{
	"Users/xopherw/Documents/nishant/smart contracts/ea-fastapi/contracts/FastAPI.sol": {
		"FastAPI": {
			"abi": [
				{
					"inputs": [],
					"stateMutability": "nonpayable",
					"type": "constructor"
				},
				{
					"anonymous": false,
					"inputs": [
						{
							"indexed": false,
							"internalType": "uint256",
							"name": "result",
							"type": "uint256"
						}
					],
					"name": "APIResponse",
					"type": "event"
				},
				{
					"anonymous": false,
					"inputs": [
						{
							"indexed": true,
							"internalType": "bytes32",
							"name": "id",
							"type": "bytes32"
						}
					],
					"name": "ChainlinkCancelled",
					"type": "event"
				},
				{
					"anonymous": false,
					"inputs": [
						{
							"indexed": true,
							"internalType": "bytes32",
							"name": "id",
							"type": "bytes32"
						}
					],
					"name": "ChainlinkFulfilled",
					"type": "event"
				},
				{
					"anonymous": false,
					"inputs": [
						{
							"indexed": true,
							"internalType": "bytes32",
							"name": "id",
							"type": "bytes32"
						}
					],
					"name": "ChainlinkRequested",
					"type": "event"
				},
				{
					"inputs": [
						{
							"internalType": "bytes32",
							"name": "requestId",
							"type": "bytes32"
						},
						{
							"internalType": "uint256",
							"name": "result",
							"type": "uint256"
						}
					],
					"name": "fulfill",
					"outputs": [],
					"stateMutability": "nonpayable",
					"type": "function"
				},
				{
					"inputs": [
						{
							"internalType": "string",
							"name": "apiURL",
							"type": "string"
						}
					],
					"name": "requestDataFromChainlink",
					"outputs": [],
					"stateMutability": "nonpayable",
					"type": "function"
				}
			],
			"devdoc": {
				"kind": "dev",
				"methods": {},
				"version": 1
			},
			"evm": {
				"assembly": "    /* \"Users/xopherw/Documents/nishant/smart contracts/ea-fastapi/contracts/FastAPI.sol\":95:1461  contract FastAPI is ChainlinkClient {... */\n  mstore(0x40, 0x80)\n    /* \"@chainlink/contracts/src/v0.8/ChainlinkClient.sol\":1291:1292  1 */\n  0x01\n    /* \"@chainlink/contracts/src/v0.8/ChainlinkClient.sol\":1258:1292  uint256 private s_requestCount = 1 */\n  0x04\n  sstore\n    /* \"Users/xopherw/Documents/nishant/smart contracts/ea-fastapi/contracts/FastAPI.sol\":364:686  constructor() {... */\n  callvalue\n  dup1\n  iszero\n  tag_1\n  jumpi\n  0x00\n  dup1\n  revert\ntag_1:\n  pop\n    /* \"Users/xopherw/Documents/nishant/smart contracts/ea-fastapi/contracts/FastAPI.sol\":388:413  setPublicChainlinkToken() */\n  tag_4\n    /* \"Users/xopherw/Documents/nishant/smart contracts/ea-fastapi/contracts/FastAPI.sol\":388:411  setPublicChainlinkToken */\n  shl(0x20, tag_5)\n    /* \"Users/xopherw/Documents/nishant/smart contracts/ea-fastapi/contracts/FastAPI.sol\":388:413  setPublicChainlinkToken() */\n  0x20\n  shr\n  jump\t// in\ntag_4:\n    /* \"Users/xopherw/Documents/nishant/smart contracts/ea-fastapi/contracts/FastAPI.sol\":509:551  0x12F2d6b0783127C62956FfF73F4D7f701433b6f5 */\n  0x12f2d6b0783127c62956fff73f4d7f701433b6f5\n    /* \"Users/xopherw/Documents/nishant/smart contracts/ea-fastapi/contracts/FastAPI.sol\":500:506  oracle */\n  0x06\n  0x00\n    /* \"Users/xopherw/Documents/nishant/smart contracts/ea-fastapi/contracts/FastAPI.sol\":500:551  oracle = 0x12F2d6b0783127C62956FfF73F4D7f701433b6f5 */\n  0x0100\n  exp\n  dup2\n  sload\n  dup2\n  0xffffffffffffffffffffffffffffffffffffffff\n  mul\n  not\n  and\n  swap1\n  dup4\n  0xffffffffffffffffffffffffffffffffffffffff\n  and\n  mul\n  or\n  swap1\n  sstore\n  pop\n    /* \"Users/xopherw/Documents/nishant/smart contracts/ea-fastapi/contracts/FastAPI.sol\":603:645  jobId = \"19ae68848dfc4f3e9ef237e9f95b2e44\" */\n  0x3139616536383834386466633466336539656632333765396639356232653434\n    /* \"Users/xopherw/Documents/nishant/smart contracts/ea-fastapi/contracts/FastAPI.sol\":603:608  jobId */\n  0x07\n    /* \"Users/xopherw/Documents/nishant/smart contracts/ea-fastapi/contracts/FastAPI.sol\":603:645  jobId = \"19ae68848dfc4f3e9ef237e9f95b2e44\" */\n  dup2\n  swap1\n  sstore\n  pop\n    /* \"Users/xopherw/Documents/nishant/smart contracts/ea-fastapi/contracts/FastAPI.sol\":95:1461  contract FastAPI is ChainlinkClient {... */\n  jump(tag_6)\n    /* \"@chainlink/contracts/src/v0.8/ChainlinkClient.sol\":8856:8979  function setPublicChainlinkToken() internal {... */\ntag_5:\n    /* \"@chainlink/contracts/src/v0.8/ChainlinkClient.sol\":8906:8974  setChainlinkToken(PointerInterface(LINK_TOKEN_POINTER).getAddress()) */\n  tag_8\n    /* \"@chainlink/contracts/src/v0.8/ChainlinkClient.sol\":1077:1119  0xC89bD4E1632D3A43CB03AAAd5262cbe4038Bc571 */\n  0xc89bd4e1632d3a43cb03aaad5262cbe4038bc571\n    /* \"@chainlink/contracts/src/v0.8/ChainlinkClient.sol\":8924:8971  PointerInterface(LINK_TOKEN_POINTER).getAddress */\n  0xffffffffffffffffffffffffffffffffffffffff\n  and\n  0x38cc4831\n    /* \"@chainlink/contracts/src/v0.8/ChainlinkClient.sol\":8924:8973  PointerInterface(LINK_TOKEN_POINTER).getAddress() */\n  mload(0x40)\n  dup2\n  0xffffffff\n  and\n  0xe0\n  shl\n  dup2\n  mstore\n  0x04\n  add\n  0x20\n  mload(0x40)\n  dup1\n  dup4\n  sub\n  dup2\n  dup7\n  gas\n  staticcall\n  iszero\n  dup1\n  iszero\n  tag_10\n  jumpi\n  returndatasize\n  0x00\n  dup1\n  returndatacopy\n  revert(0x00, returndatasize)\ntag_10:\n  pop\n  pop\n  pop\n  pop\n  mload(0x40)\n  returndatasize\n  not(0x1f)\n  0x1f\n  dup3\n  add\n  and\n  dup3\n  add\n  dup1\n  0x40\n  mstore\n  pop\n  dup2\n  add\n  swap1\n  tag_11\n  swap2\n  swap1\n  tag_12\n  jump\t// in\ntag_11:\n    /* \"@chainlink/contracts/src/v0.8/ChainlinkClient.sol\":8906:8923  setChainlinkToken */\n  shl(0x20, tag_13)\n    /* \"@chainlink/contracts/src/v0.8/ChainlinkClient.sol\":8906:8974  setChainlinkToken(PointerInterface(LINK_TOKEN_POINTER).getAddress()) */\n  0x20\n  shr\n  jump\t// in\ntag_8:\n    /* \"@chainlink/contracts/src/v0.8/ChainlinkClient.sol\":8856:8979  function setPublicChainlinkToken() internal {... */\n  jump\t// out\n    /* \"@chainlink/contracts/src/v0.8/ChainlinkClient.sol\":8625:8733  function setChainlinkToken(address linkAddress) internal {... */\ntag_13:\n    /* \"@chainlink/contracts/src/v0.8/ChainlinkClient.sol\":8716:8727  linkAddress */\n  dup1\n    /* \"@chainlink/contracts/src/v0.8/ChainlinkClient.sol\":8688:8694  s_link */\n  0x02\n  0x00\n    /* \"@chainlink/contracts/src/v0.8/ChainlinkClient.sol\":8688:8728  s_link = LinkTokenInterface(linkAddress) */\n  0x0100\n  exp\n  dup2\n  sload\n  dup2\n  0xffffffffffffffffffffffffffffffffffffffff\n  mul\n  not\n  and\n  swap1\n  dup4\n  0xffffffffffffffffffffffffffffffffffffffff\n  and\n  mul\n  or\n  swap1\n  sstore\n  pop\n    /* \"@chainlink/contracts/src/v0.8/ChainlinkClient.sol\":8625:8733  function setChainlinkToken(address linkAddress) internal {... */\n  pop\n  jump\t// out\n    /* \"#utility.yul\":88:205   */\ntag_16:\n    /* \"#utility.yul\":197:198   */\n  0x00\n    /* \"#utility.yul\":194:195   */\n  dup1\n    /* \"#utility.yul\":187:199   */\n  revert\n    /* \"#utility.yul\":334:460   */\ntag_18:\n    /* \"#utility.yul\":371:378   */\n  0x00\n    /* \"#utility.yul\":411:453   */\n  0xffffffffffffffffffffffffffffffffffffffff\n    /* \"#utility.yul\":404:409   */\n  dup3\n    /* \"#utility.yul\":400:454   */\n  and\n    /* \"#utility.yul\":389:454   */\n  swap1\n  pop\n    /* \"#utility.yul\":334:460   */\n  swap2\n  swap1\n  pop\n  jump\t// out\n    /* \"#utility.yul\":466:562   */\ntag_19:\n    /* \"#utility.yul\":503:510   */\n  0x00\n    /* \"#utility.yul\":532:556   */\n  tag_28\n    /* \"#utility.yul\":550:555   */\n  dup3\n    /* \"#utility.yul\":532:556   */\n  tag_18\n  jump\t// in\ntag_28:\n    /* \"#utility.yul\":521:556   */\n  swap1\n  pop\n    /* \"#utility.yul\":466:562   */\n  swap2\n  swap1\n  pop\n  jump\t// out\n    /* \"#utility.yul\":568:690   */\ntag_20:\n    /* \"#utility.yul\":641:665   */\n  tag_30\n    /* \"#utility.yul\":659:664   */\n  dup2\n    /* \"#utility.yul\":641:665   */\n  tag_19\n  jump\t// in\ntag_30:\n    /* \"#utility.yul\":634:639   */\n  dup2\n    /* \"#utility.yul\":631:666   */\n  eq\n    /* \"#utility.yul\":621:684   */\n  tag_31\n  jumpi\n    /* \"#utility.yul\":680:681   */\n  0x00\n    /* \"#utility.yul\":677:678   */\n  dup1\n    /* \"#utility.yul\":670:682   */\n  revert\n    /* \"#utility.yul\":621:684   */\ntag_31:\n    /* \"#utility.yul\":568:690   */\n  pop\n  jump\t// out\n    /* \"#utility.yul\":696:839   */\ntag_21:\n    /* \"#utility.yul\":753:758   */\n  0x00\n    /* \"#utility.yul\":784:790   */\n  dup2\n    /* \"#utility.yul\":778:791   */\n  mload\n    /* \"#utility.yul\":769:791   */\n  swap1\n  pop\n    /* \"#utility.yul\":800:833   */\n  tag_33\n    /* \"#utility.yul\":827:832   */\n  dup2\n    /* \"#utility.yul\":800:833   */\n  tag_20\n  jump\t// in\ntag_33:\n    /* \"#utility.yul\":696:839   */\n  swap3\n  swap2\n  pop\n  pop\n  jump\t// out\n    /* \"#utility.yul\":845:1196   */\ntag_12:\n    /* \"#utility.yul\":915:921   */\n  0x00\n    /* \"#utility.yul\":964:966   */\n  0x20\n    /* \"#utility.yul\":952:961   */\n  dup3\n    /* \"#utility.yul\":943:950   */\n  dup5\n    /* \"#utility.yul\":939:962   */\n  sub\n    /* \"#utility.yul\":935:967   */\n  slt\n    /* \"#utility.yul\":932:1051   */\n  iszero\n  tag_35\n  jumpi\n    /* \"#utility.yul\":970:1049   */\n  tag_36\n  tag_16\n  jump\t// in\ntag_36:\n    /* \"#utility.yul\":932:1051   */\ntag_35:\n    /* \"#utility.yul\":1090:1091   */\n  0x00\n    /* \"#utility.yul\":1115:1179   */\n  tag_37\n    /* \"#utility.yul\":1171:1178   */\n  dup5\n    /* \"#utility.yul\":1162:1168   */\n  dup3\n    /* \"#utility.yul\":1151:1160   */\n  dup6\n    /* \"#utility.yul\":1147:1169   */\n  add\n    /* \"#utility.yul\":1115:1179   */\n  tag_21\n  jump\t// in\ntag_37:\n    /* \"#utility.yul\":1105:1179   */\n  swap2\n  pop\n    /* \"#utility.yul\":1061:1189   */\n  pop\n    /* \"#utility.yul\":845:1196   */\n  swap3\n  swap2\n  pop\n  pop\n  jump\t// out\n    /* \"Users/xopherw/Documents/nishant/smart contracts/ea-fastapi/contracts/FastAPI.sol\":95:1461  contract FastAPI is ChainlinkClient {... */\ntag_6:\n  dataSize(sub_0)\n  dup1\n  dataOffset(sub_0)\n  0x00\n  codecopy\n  0x00\n  return\nstop\n\nsub_0: assembly {\n        /* \"Users/xopherw/Documents/nishant/smart contracts/ea-fastapi/contracts/FastAPI.sol\":95:1461  contract FastAPI is ChainlinkClient {... */\n      mstore(0x40, 0x80)\n      callvalue\n      dup1\n      iszero\n      tag_1\n      jumpi\n      0x00\n      dup1\n      revert\n    tag_1:\n      pop\n      jumpi(tag_2, lt(calldatasize, 0x04))\n      shr(0xe0, calldataload(0x00))\n      dup1\n      0x28b0af2c\n      eq\n      tag_3\n      jumpi\n      dup1\n      0x4357855e\n      eq\n      tag_4\n      jumpi\n    tag_2:\n      0x00\n      dup1\n      revert\n        /* \"Users/xopherw/Documents/nishant/smart contracts/ea-fastapi/contracts/FastAPI.sol\":756:1182  function requestDataFromChainlink(string memory apiURL) public {... */\n    tag_3:\n      tag_5\n      0x04\n      dup1\n      calldatasize\n      sub\n      dup2\n      add\n      swap1\n      tag_6\n      swap2\n      swap1\n      tag_7\n      jump\t// in\n    tag_6:\n      tag_8\n      jump\t// in\n    tag_5:\n      stop\n        /* \"Users/xopherw/Documents/nishant/smart contracts/ea-fastapi/contracts/FastAPI.sol\":1258:1459  function fulfill(... */\n    tag_4:\n      tag_9\n      0x04\n      dup1\n      calldatasize\n      sub\n      dup2\n      add\n      swap1\n      tag_10\n      swap2\n      swap1\n      tag_11\n      jump\t// in\n    tag_10:\n      tag_12\n      jump\t// in\n    tag_9:\n      stop\n        /* \"Users/xopherw/Documents/nishant/smart contracts/ea-fastapi/contracts/FastAPI.sol\":756:1182  function requestDataFromChainlink(string memory apiURL) public {... */\n    tag_8:\n        /* \"Users/xopherw/Documents/nishant/smart contracts/ea-fastapi/contracts/FastAPI.sol\":829:857  Chainlink.Request memory req */\n      0x00\n        /* \"Users/xopherw/Documents/nishant/smart contracts/ea-fastapi/contracts/FastAPI.sol\":860:972  buildChainlinkRequest(... */\n      tag_14\n        /* \"Users/xopherw/Documents/nishant/smart contracts/ea-fastapi/contracts/FastAPI.sol\":895:900  jobId */\n      sload(0x07)\n        /* \"Users/xopherw/Documents/nishant/smart contracts/ea-fastapi/contracts/FastAPI.sol\":922:926  this */\n      address\n        /* \"Users/xopherw/Documents/nishant/smart contracts/ea-fastapi/contracts/FastAPI.sol\":941:962  this.fulfill.selector */\n      shl(0xe0, 0x4357855e)\n        /* \"Users/xopherw/Documents/nishant/smart contracts/ea-fastapi/contracts/FastAPI.sol\":860:881  buildChainlinkRequest */\n      tag_15\n        /* \"Users/xopherw/Documents/nishant/smart contracts/ea-fastapi/contracts/FastAPI.sol\":860:972  buildChainlinkRequest(... */\n      jump\t// in\n    tag_14:\n        /* \"Users/xopherw/Documents/nishant/smart contracts/ea-fastapi/contracts/FastAPI.sol\":829:972  Chainlink.Request memory req = buildChainlinkRequest(... */\n      swap1\n      pop\n        /* \"Users/xopherw/Documents/nishant/smart contracts/ea-fastapi/contracts/FastAPI.sol\":982:1004  req.add(\"get\", apiURL) */\n      tag_16\n      mload(0x40)\n      dup1\n      0x40\n      add\n      0x40\n      mstore\n      dup1\n      0x03\n      dup2\n      mstore\n      0x20\n      add\n      0x6765740000000000000000000000000000000000000000000000000000000000\n      dup2\n      mstore\n      pop\n        /* \"Users/xopherw/Documents/nishant/smart contracts/ea-fastapi/contracts/FastAPI.sol\":997:1003  apiURL */\n      dup4\n        /* \"Users/xopherw/Documents/nishant/smart contracts/ea-fastapi/contracts/FastAPI.sol\":982:985  req */\n      dup4\n        /* \"Users/xopherw/Documents/nishant/smart contracts/ea-fastapi/contracts/FastAPI.sol\":982:989  req.add */\n      tag_17\n      swap1\n        /* \"Users/xopherw/Documents/nishant/smart contracts/ea-fastapi/contracts/FastAPI.sol\":982:1004  req.add(\"get\", apiURL) */\n      swap3\n      swap2\n      swap1\n      0xffffffff\n      and\n      jump\t// in\n    tag_16:\n        /* \"Users/xopherw/Documents/nishant/smart contracts/ea-fastapi/contracts/FastAPI.sol\":1014:1039  req.add(\"path\", \"result\") */\n      tag_18\n      mload(0x40)\n      dup1\n      0x40\n      add\n      0x40\n      mstore\n      dup1\n      0x04\n      dup2\n      mstore\n      0x20\n      add\n      0x7061746800000000000000000000000000000000000000000000000000000000\n      dup2\n      mstore\n      pop\n      mload(0x40)\n      dup1\n      0x40\n      add\n      0x40\n      mstore\n      dup1\n      0x06\n      dup2\n      mstore\n      0x20\n      add\n      0x726573756c740000000000000000000000000000000000000000000000000000\n      dup2\n      mstore\n      pop\n        /* \"Users/xopherw/Documents/nishant/smart contracts/ea-fastapi/contracts/FastAPI.sol\":1014:1017  req */\n      dup4\n        /* \"Users/xopherw/Documents/nishant/smart contracts/ea-fastapi/contracts/FastAPI.sol\":1014:1021  req.add */\n      tag_17\n      swap1\n        /* \"Users/xopherw/Documents/nishant/smart contracts/ea-fastapi/contracts/FastAPI.sol\":1014:1039  req.add(\"path\", \"result\") */\n      swap3\n      swap2\n      swap1\n      0xffffffff\n      and\n      jump\t// in\n    tag_18:\n        /* \"Users/xopherw/Documents/nishant/smart contracts/ea-fastapi/contracts/FastAPI.sol\":1096:1134  sendChainlinkRequestTo(oracle, req, 0) */\n      tag_19\n        /* \"Users/xopherw/Documents/nishant/smart contracts/ea-fastapi/contracts/FastAPI.sol\":1119:1125  oracle */\n      0x06\n      0x00\n      swap1\n      sload\n      swap1\n      0x0100\n      exp\n      swap1\n      div\n      0xffffffffffffffffffffffffffffffffffffffff\n      and\n        /* \"Users/xopherw/Documents/nishant/smart contracts/ea-fastapi/contracts/FastAPI.sol\":1127:1130  req */\n      dup3\n        /* \"Users/xopherw/Documents/nishant/smart contracts/ea-fastapi/contracts/FastAPI.sol\":1132:1133  0 */\n      0x00\n        /* \"Users/xopherw/Documents/nishant/smart contracts/ea-fastapi/contracts/FastAPI.sol\":1096:1118  sendChainlinkRequestTo */\n      tag_20\n        /* \"Users/xopherw/Documents/nishant/smart contracts/ea-fastapi/contracts/FastAPI.sol\":1096:1134  sendChainlinkRequestTo(oracle, req, 0) */\n      jump\t// in\n    tag_19:\n      pop\n        /* \"Users/xopherw/Documents/nishant/smart contracts/ea-fastapi/contracts/FastAPI.sol\":819:1182  {... */\n      pop\n        /* \"Users/xopherw/Documents/nishant/smart contracts/ea-fastapi/contracts/FastAPI.sol\":756:1182  function requestDataFromChainlink(string memory apiURL) public {... */\n      pop\n      jump\t// out\n        /* \"Users/xopherw/Documents/nishant/smart contracts/ea-fastapi/contracts/FastAPI.sol\":1258:1459  function fulfill(... */\n    tag_12:\n        /* \"Users/xopherw/Documents/nishant/smart contracts/ea-fastapi/contracts/FastAPI.sol\":1366:1375  requestId */\n      dup2\n        /* \"@chainlink/contracts/src/v0.8/ChainlinkClient.sol\":11663:11680  s_pendingRequests */\n      0x05\n        /* \"@chainlink/contracts/src/v0.8/ChainlinkClient.sol\":11663:11691  s_pendingRequests[requestId] */\n      0x00\n        /* \"@chainlink/contracts/src/v0.8/ChainlinkClient.sol\":11681:11690  requestId */\n      dup3\n        /* \"@chainlink/contracts/src/v0.8/ChainlinkClient.sol\":11663:11691  s_pendingRequests[requestId] */\n      dup2\n      mstore\n      0x20\n      add\n      swap1\n      dup2\n      mstore\n      0x20\n      add\n      0x00\n      keccak256\n      0x00\n      swap1\n      sload\n      swap1\n      0x0100\n      exp\n      swap1\n      div\n      0xffffffffffffffffffffffffffffffffffffffff\n      and\n        /* \"@chainlink/contracts/src/v0.8/ChainlinkClient.sol\":11649:11691  msg.sender == s_pendingRequests[requestId] */\n      0xffffffffffffffffffffffffffffffffffffffff\n      and\n        /* \"@chainlink/contracts/src/v0.8/ChainlinkClient.sol\":11649:11659  msg.sender */\n      caller\n        /* \"@chainlink/contracts/src/v0.8/ChainlinkClient.sol\":11649:11691  msg.sender == s_pendingRequests[requestId] */\n      0xffffffffffffffffffffffffffffffffffffffff\n      and\n      eq\n        /* \"@chainlink/contracts/src/v0.8/ChainlinkClient.sol\":11641:11736  require(msg.sender == s_pendingRequests[requestId], \"Source must be the oracle of the request\") */\n      tag_22\n      jumpi\n      mload(0x40)\n      0x08c379a000000000000000000000000000000000000000000000000000000000\n      dup2\n      mstore\n      0x04\n      add\n      tag_23\n      swap1\n      tag_24\n      jump\t// in\n    tag_23:\n      mload(0x40)\n      dup1\n      swap2\n      sub\n      swap1\n      revert\n    tag_22:\n        /* \"@chainlink/contracts/src/v0.8/ChainlinkClient.sol\":11749:11766  s_pendingRequests */\n      0x05\n        /* \"@chainlink/contracts/src/v0.8/ChainlinkClient.sol\":11749:11777  s_pendingRequests[requestId] */\n      0x00\n        /* \"@chainlink/contracts/src/v0.8/ChainlinkClient.sol\":11767:11776  requestId */\n      dup3\n        /* \"@chainlink/contracts/src/v0.8/ChainlinkClient.sol\":11749:11777  s_pendingRequests[requestId] */\n      dup2\n      mstore\n      0x20\n      add\n      swap1\n      dup2\n      mstore\n      0x20\n      add\n      0x00\n      keccak256\n      0x00\n        /* \"@chainlink/contracts/src/v0.8/ChainlinkClient.sol\":11742:11777  delete s_pendingRequests[requestId] */\n      0x0100\n      exp\n      dup2\n      sload\n      swap1\n      0xffffffffffffffffffffffffffffffffffffffff\n      mul\n      not\n      and\n      swap1\n      sstore\n        /* \"@chainlink/contracts/src/v0.8/ChainlinkClient.sol\":11807:11816  requestId */\n      dup1\n        /* \"@chainlink/contracts/src/v0.8/ChainlinkClient.sol\":11788:11817  ChainlinkFulfilled(requestId) */\n      0x7cc135e0cebb02c3480ae5d74d377283180a2601f8f644edf7987b009316c63a\n      mload(0x40)\n      mload(0x40)\n      dup1\n      swap2\n      sub\n      swap1\n      log2\n        /* \"Users/xopherw/Documents/nishant/smart contracts/ea-fastapi/contracts/FastAPI.sol\":1433:1452  APIResponse(result) */\n      0x8d045d83adae4e040b333d2a52a74f1f89f04241cffcb4802aaf0507ce24d20f\n        /* \"Users/xopherw/Documents/nishant/smart contracts/ea-fastapi/contracts/FastAPI.sol\":1445:1451  result */\n      dup3\n        /* \"Users/xopherw/Documents/nishant/smart contracts/ea-fastapi/contracts/FastAPI.sol\":1433:1452  APIResponse(result) */\n      mload(0x40)\n      tag_26\n      swap2\n      swap1\n      tag_27\n      jump\t// in\n    tag_26:\n      mload(0x40)\n      dup1\n      swap2\n      sub\n      swap1\n      log1\n        /* \"Users/xopherw/Documents/nishant/smart contracts/ea-fastapi/contracts/FastAPI.sol\":1258:1459  function fulfill(... */\n      pop\n      pop\n      pop\n      jump\t// out\n        /* \"@chainlink/contracts/src/v0.8/ChainlinkClient.sol\":1850:2133  function buildChainlinkRequest(... */\n    tag_15:\n        /* \"@chainlink/contracts/src/v0.8/ChainlinkClient.sol\":1992:2016  Chainlink.Request memory */\n      tag_28\n      tag_29\n      jump\t// in\n    tag_28:\n        /* \"@chainlink/contracts/src/v0.8/ChainlinkClient.sol\":2024:2052  Chainlink.Request memory req */\n      tag_31\n      tag_29\n      jump\t// in\n    tag_31:\n        /* \"@chainlink/contracts/src/v0.8/ChainlinkClient.sol\":2065:2128  req.initialize(specId, callbackAddr, callbackFunctionSignature) */\n      tag_32\n        /* \"@chainlink/contracts/src/v0.8/ChainlinkClient.sol\":2080:2086  specId */\n      dup6\n        /* \"@chainlink/contracts/src/v0.8/ChainlinkClient.sol\":2088:2100  callbackAddr */\n      dup6\n        /* \"@chainlink/contracts/src/v0.8/ChainlinkClient.sol\":2102:2127  callbackFunctionSignature */\n      dup6\n        /* \"@chainlink/contracts/src/v0.8/ChainlinkClient.sol\":2065:2068  req */\n      dup5\n        /* \"@chainlink/contracts/src/v0.8/ChainlinkClient.sol\":2065:2079  req.initialize */\n      tag_33\n      swap1\n        /* \"@chainlink/contracts/src/v0.8/ChainlinkClient.sol\":2065:2128  req.initialize(specId, callbackAddr, callbackFunctionSignature) */\n      swap4\n      swap3\n      swap2\n      swap1\n      0xffffffff\n      and\n      jump\t// in\n    tag_32:\n        /* \"@chainlink/contracts/src/v0.8/ChainlinkClient.sol\":2058:2128  return req.initialize(specId, callbackAddr, callbackFunctionSignature) */\n      swap2\n      pop\n      pop\n        /* \"@chainlink/contracts/src/v0.8/ChainlinkClient.sol\":1850:2133  function buildChainlinkRequest(... */\n      swap4\n      swap3\n      pop\n      pop\n      pop\n      jump\t// out\n        /* \"@chainlink/contracts/src/v0.8/Chainlink.sol\":1951:2126  function add(... */\n    tag_17:\n        /* \"@chainlink/contracts/src/v0.8/Chainlink.sol\":2061:2087  self.buf.encodeString(key) */\n      tag_35\n        /* \"@chainlink/contracts/src/v0.8/Chainlink.sol\":2083:2086  key */\n      dup3\n        /* \"@chainlink/contracts/src/v0.8/Chainlink.sol\":2061:2065  self */\n      dup5\n        /* \"@chainlink/contracts/src/v0.8/Chainlink.sol\":2061:2069  self.buf */\n      0x80\n      add\n      mload\n        /* \"@chainlink/contracts/src/v0.8/Chainlink.sol\":2061:2082  self.buf.encodeString */\n      tag_36\n      swap1\n        /* \"@chainlink/contracts/src/v0.8/Chainlink.sol\":2061:2087  self.buf.encodeString(key) */\n      swap2\n      swap1\n      0xffffffff\n      and\n      jump\t// in\n    tag_35:\n        /* \"@chainlink/contracts/src/v0.8/Chainlink.sol\":2093:2121  self.buf.encodeString(value) */\n      tag_37\n        /* \"@chainlink/contracts/src/v0.8/Chainlink.sol\":2115:2120  value */\n      dup2\n        /* \"@chainlink/contracts/src/v0.8/Chainlink.sol\":2093:2097  self */\n      dup5\n        /* \"@chainlink/contracts/src/v0.8/Chainlink.sol\":2093:2101  self.buf */\n      0x80\n      add\n      mload\n        /* \"@chainlink/contracts/src/v0.8/Chainlink.sol\":2093:2114  self.buf.encodeString */\n      tag_36\n      swap1\n        /* \"@chainlink/contracts/src/v0.8/Chainlink.sol\":2093:2121  self.buf.encodeString(value) */\n      swap2\n      swap1\n      0xffffffff\n      and\n      jump\t// in\n    tag_37:\n        /* \"@chainlink/contracts/src/v0.8/Chainlink.sol\":1951:2126  function add(... */\n      pop\n      pop\n      pop\n      jump\t// out\n        /* \"@chainlink/contracts/src/v0.8/ChainlinkClient.sol\":3687:4443  function sendChainlinkRequestTo(... */\n    tag_20:\n        /* \"@chainlink/contracts/src/v0.8/ChainlinkClient.sol\":3823:3840  bytes32 requestId */\n      0x00\n        /* \"@chainlink/contracts/src/v0.8/ChainlinkClient.sol\":3848:3861  uint256 nonce */\n      dup1\n        /* \"@chainlink/contracts/src/v0.8/ChainlinkClient.sol\":3864:3878  s_requestCount */\n      sload(0x04)\n        /* \"@chainlink/contracts/src/v0.8/ChainlinkClient.sol\":3848:3878  uint256 nonce = s_requestCount */\n      swap1\n      pop\n        /* \"@chainlink/contracts/src/v0.8/ChainlinkClient.sol\":3909:3910  1 */\n      0x01\n        /* \"@chainlink/contracts/src/v0.8/ChainlinkClient.sol\":3901:3906  nonce */\n      dup2\n        /* \"@chainlink/contracts/src/v0.8/ChainlinkClient.sol\":3901:3910  nonce + 1 */\n      tag_39\n      swap2\n      swap1\n      tag_40\n      jump\t// in\n    tag_39:\n        /* \"@chainlink/contracts/src/v0.8/ChainlinkClient.sol\":3884:3898  s_requestCount */\n      0x04\n        /* \"@chainlink/contracts/src/v0.8/ChainlinkClient.sol\":3884:3910  s_requestCount = nonce + 1 */\n      dup2\n      swap1\n      sstore\n      pop\n        /* \"@chainlink/contracts/src/v0.8/ChainlinkClient.sol\":3916:3943  bytes memory encodedRequest */\n      0x00\n        /* \"@chainlink/contracts/src/v0.8/ChainlinkClient.sol\":3976:4024  ChainlinkRequestInterface.oracleRequest.selector */\n      shl(0xe0, 0x40429946)\n        /* \"@chainlink/contracts/src/v0.8/ChainlinkClient.sol\":784:785  0 */\n      0x00\n        /* \"@chainlink/contracts/src/v0.8/ChainlinkClient.sol\":728:729  0 */\n      dup1\n        /* \"@chainlink/contracts/src/v0.8/ChainlinkClient.sol\":4245:4248  req */\n      dup8\n        /* \"@chainlink/contracts/src/v0.8/ChainlinkClient.sol\":4245:4251  req.id */\n      0x00\n      add\n      mload\n        /* \"@chainlink/contracts/src/v0.8/ChainlinkClient.sol\":4267:4271  this */\n      address\n        /* \"@chainlink/contracts/src/v0.8/ChainlinkClient.sol\":4280:4283  req */\n      dup10\n        /* \"@chainlink/contracts/src/v0.8/ChainlinkClient.sol\":4280:4302  req.callbackFunctionId */\n      0x40\n      add\n      mload\n        /* \"@chainlink/contracts/src/v0.8/ChainlinkClient.sol\":4310:4315  nonce */\n      dup8\n        /* \"@chainlink/contracts/src/v0.8/ChainlinkClient.sol\":837:838  1 */\n      0x01\n        /* \"@chainlink/contracts/src/v0.8/ChainlinkClient.sol\":4350:4353  req */\n      dup13\n        /* \"@chainlink/contracts/src/v0.8/ChainlinkClient.sol\":4350:4357  req.buf */\n      0x80\n      add\n      mload\n        /* \"@chainlink/contracts/src/v0.8/ChainlinkClient.sol\":4350:4361  req.buf.buf */\n      0x00\n      add\n      mload\n        /* \"@chainlink/contracts/src/v0.8/ChainlinkClient.sol\":3946:4367  abi.encodeWithSelector(... */\n      add(0x24, mload(0x40))\n      tag_41\n      swap9\n      swap8\n      swap7\n      swap6\n      swap5\n      swap4\n      swap3\n      swap2\n      swap1\n      tag_42\n      jump\t// in\n    tag_41:\n      mload(0x40)\n      0x20\n      dup2\n      dup4\n      sub\n      sub\n      dup2\n      mstore\n      swap1\n      0x40\n      mstore\n      swap1\n      not(0xffffffffffffffffffffffffffffffffffffffffffffffffffffffff)\n      and\n      0x20\n      dup3\n      add\n      dup1\n      mload\n      0xffffffffffffffffffffffffffffffffffffffffffffffffffffffff\n      dup4\n      dup2\n      dup4\n      and\n      or\n      dup4\n      mstore\n      pop\n      pop\n      pop\n      pop\n        /* \"@chainlink/contracts/src/v0.8/ChainlinkClient.sol\":3916:4367  bytes memory encodedRequest = abi.encodeWithSelector(... */\n      swap1\n      pop\n        /* \"@chainlink/contracts/src/v0.8/ChainlinkClient.sol\":4380:4438  _rawRequest(oracleAddress, nonce, payment, encodedRequest) */\n      tag_43\n        /* \"@chainlink/contracts/src/v0.8/ChainlinkClient.sol\":4392:4405  oracleAddress */\n      dup7\n        /* \"@chainlink/contracts/src/v0.8/ChainlinkClient.sol\":4407:4412  nonce */\n      dup4\n        /* \"@chainlink/contracts/src/v0.8/ChainlinkClient.sol\":4414:4421  payment */\n      dup7\n        /* \"@chainlink/contracts/src/v0.8/ChainlinkClient.sol\":4423:4437  encodedRequest */\n      dup5\n        /* \"@chainlink/contracts/src/v0.8/ChainlinkClient.sol\":4380:4391  _rawRequest */\n      tag_44\n        /* \"@chainlink/contracts/src/v0.8/ChainlinkClient.sol\":4380:4438  _rawRequest(oracleAddress, nonce, payment, encodedRequest) */\n      jump\t// in\n    tag_43:\n        /* \"@chainlink/contracts/src/v0.8/ChainlinkClient.sol\":4373:4438  return _rawRequest(oracleAddress, nonce, payment, encodedRequest) */\n      swap3\n      pop\n      pop\n      pop\n        /* \"@chainlink/contracts/src/v0.8/ChainlinkClient.sol\":3687:4443  function sendChainlinkRequestTo(... */\n      swap4\n      swap3\n      pop\n      pop\n      pop\n      jump\t// out\n        /* \"@chainlink/contracts/src/v0.8/Chainlink.sol\":987:1338  function initialize(... */\n    tag_33:\n        /* \"@chainlink/contracts/src/v0.8/Chainlink.sol\":1129:1153  Chainlink.Request memory */\n      tag_45\n      tag_29\n      jump\t// in\n    tag_45:\n        /* \"@chainlink/contracts/src/v0.8/Chainlink.sol\":1161:1210  BufferChainlink.init(self.buf, defaultBufferSize) */\n      tag_47\n        /* \"@chainlink/contracts/src/v0.8/Chainlink.sol\":1182:1186  self */\n      dup6\n        /* \"@chainlink/contracts/src/v0.8/Chainlink.sol\":1182:1190  self.buf */\n      0x80\n      add\n      mload\n        /* \"@chainlink/contracts/src/v0.8/Chainlink.sol\":361:364  256 */\n      0x0100\n        /* \"@chainlink/contracts/src/v0.8/Chainlink.sol\":1161:1181  BufferChainlink.init */\n      tag_48\n        /* \"@chainlink/contracts/src/v0.8/Chainlink.sol\":1161:1210  BufferChainlink.init(self.buf, defaultBufferSize) */\n      jump\t// in\n    tag_47:\n      pop\n        /* \"@chainlink/contracts/src/v0.8/Chainlink.sol\":1226:1231  jobId */\n      dup4\n        /* \"@chainlink/contracts/src/v0.8/Chainlink.sol\":1216:1220  self */\n      dup6\n        /* \"@chainlink/contracts/src/v0.8/Chainlink.sol\":1216:1223  self.id */\n      0x00\n      add\n        /* \"@chainlink/contracts/src/v0.8/Chainlink.sol\":1216:1231  self.id = jobId */\n      dup2\n      dup2\n      mstore\n      pop\n      pop\n        /* \"@chainlink/contracts/src/v0.8/Chainlink.sol\":1260:1272  callbackAddr */\n      dup3\n        /* \"@chainlink/contracts/src/v0.8/Chainlink.sol\":1237:1241  self */\n      dup6\n        /* \"@chainlink/contracts/src/v0.8/Chainlink.sol\":1237:1257  self.callbackAddress */\n      0x20\n      add\n        /* \"@chainlink/contracts/src/v0.8/Chainlink.sol\":1237:1272  self.callbackAddress = callbackAddr */\n      swap1\n      0xffffffffffffffffffffffffffffffffffffffff\n      and\n      swap1\n      dup2\n      0xffffffffffffffffffffffffffffffffffffffff\n      and\n      dup2\n      mstore\n      pop\n      pop\n        /* \"@chainlink/contracts/src/v0.8/Chainlink.sol\":1304:1316  callbackFunc */\n      dup2\n        /* \"@chainlink/contracts/src/v0.8/Chainlink.sol\":1278:1282  self */\n      dup6\n        /* \"@chainlink/contracts/src/v0.8/Chainlink.sol\":1278:1301  self.callbackFunctionId */\n      0x40\n      add\n        /* \"@chainlink/contracts/src/v0.8/Chainlink.sol\":1278:1316  self.callbackFunctionId = callbackFunc */\n      swap1\n      not(0xffffffffffffffffffffffffffffffffffffffffffffffffffffffff)\n      and\n      swap1\n      dup2\n      not(0xffffffffffffffffffffffffffffffffffffffffffffffffffffffff)\n      and\n      dup2\n      mstore\n      pop\n      pop\n        /* \"@chainlink/contracts/src/v0.8/Chainlink.sol\":1329:1333  self */\n      dup5\n        /* \"@chainlink/contracts/src/v0.8/Chainlink.sol\":1322:1333  return self */\n      swap1\n      pop\n        /* \"@chainlink/contracts/src/v0.8/Chainlink.sol\":987:1338  function initialize(... */\n      swap5\n      swap4\n      pop\n      pop\n      pop\n      pop\n      jump\t// out\n        /* \"@chainlink/contracts/src/v0.8/vendor/CBORChainlink.sol\":2777:2981  function encodeString(BufferChainlink.buffer memory buf, string memory value) internal pure {... */\n    tag_36:\n        /* \"@chainlink/contracts/src/v0.8/vendor/CBORChainlink.sol\":2875:2946  encodeFixedNumeric(buf, MAJOR_TYPE_STRING, uint64(bytes(value).length)) */\n      tag_50\n        /* \"@chainlink/contracts/src/v0.8/vendor/CBORChainlink.sol\":2894:2897  buf */\n      dup3\n        /* \"@chainlink/contracts/src/v0.8/vendor/CBORChainlink.sol\":383:384  3 */\n      0x03\n        /* \"@chainlink/contracts/src/v0.8/vendor/CBORChainlink.sol\":2931:2936  value */\n      dup4\n        /* \"@chainlink/contracts/src/v0.8/vendor/CBORChainlink.sol\":2925:2944  bytes(value).length */\n      mload\n        /* \"@chainlink/contracts/src/v0.8/vendor/CBORChainlink.sol\":2875:2893  encodeFixedNumeric */\n      tag_51\n        /* \"@chainlink/contracts/src/v0.8/vendor/CBORChainlink.sol\":2875:2946  encodeFixedNumeric(buf, MAJOR_TYPE_STRING, uint64(bytes(value).length)) */\n      jump\t// in\n    tag_50:\n        /* \"@chainlink/contracts/src/v0.8/vendor/CBORChainlink.sol\":2952:2976  buf.append(bytes(value)) */\n      tag_52\n        /* \"@chainlink/contracts/src/v0.8/vendor/CBORChainlink.sol\":2969:2974  value */\n      dup2\n        /* \"@chainlink/contracts/src/v0.8/vendor/CBORChainlink.sol\":2952:2955  buf */\n      dup4\n        /* \"@chainlink/contracts/src/v0.8/vendor/CBORChainlink.sol\":2952:2962  buf.append */\n      tag_53\n      swap1\n        /* \"@chainlink/contracts/src/v0.8/vendor/CBORChainlink.sol\":2952:2976  buf.append(bytes(value)) */\n      swap2\n      swap1\n      0xffffffff\n      and\n      jump\t// in\n    tag_52:\n      pop\n        /* \"@chainlink/contracts/src/v0.8/vendor/CBORChainlink.sol\":2777:2981  function encodeString(BufferChainlink.buffer memory buf, string memory value) internal pure {... */\n      pop\n      pop\n      jump\t// out\n        /* \"@chainlink/contracts/src/v0.8/ChainlinkClient.sol\":6629:7059  function _rawRequest(... */\n    tag_44:\n        /* \"@chainlink/contracts/src/v0.8/ChainlinkClient.sol\":6771:6788  bytes32 requestId */\n      0x00\n        /* \"@chainlink/contracts/src/v0.8/ChainlinkClient.sol\":6835:6839  this */\n      address\n        /* \"@chainlink/contracts/src/v0.8/ChainlinkClient.sol\":6841:6846  nonce */\n      dup5\n        /* \"@chainlink/contracts/src/v0.8/ChainlinkClient.sol\":6818:6847  abi.encodePacked(this, nonce) */\n      add(0x20, mload(0x40))\n      tag_55\n      swap3\n      swap2\n      swap1\n      tag_56\n      jump\t// in\n    tag_55:\n      mload(0x40)\n      0x20\n      dup2\n      dup4\n      sub\n      sub\n      dup2\n      mstore\n      swap1\n      0x40\n      mstore\n        /* \"@chainlink/contracts/src/v0.8/ChainlinkClient.sol\":6808:6848  keccak256(abi.encodePacked(this, nonce)) */\n      dup1\n      mload\n      swap1\n      0x20\n      add\n      keccak256\n        /* \"@chainlink/contracts/src/v0.8/ChainlinkClient.sol\":6796:6848  requestId = keccak256(abi.encodePacked(this, nonce)) */\n      swap1\n      pop\n        /* \"@chainlink/contracts/src/v0.8/ChainlinkClient.sol\":6885:6898  oracleAddress */\n      dup5\n        /* \"@chainlink/contracts/src/v0.8/ChainlinkClient.sol\":6854:6871  s_pendingRequests */\n      0x05\n        /* \"@chainlink/contracts/src/v0.8/ChainlinkClient.sol\":6854:6882  s_pendingRequests[requestId] */\n      0x00\n        /* \"@chainlink/contracts/src/v0.8/ChainlinkClient.sol\":6872:6881  requestId */\n      dup4\n        /* \"@chainlink/contracts/src/v0.8/ChainlinkClient.sol\":6854:6882  s_pendingRequests[requestId] */\n      dup2\n      mstore\n      0x20\n      add\n      swap1\n      dup2\n      mstore\n      0x20\n      add\n      0x00\n      keccak256\n      0x00\n        /* \"@chainlink/contracts/src/v0.8/ChainlinkClient.sol\":6854:6898  s_pendingRequests[requestId] = oracleAddress */\n      0x0100\n      exp\n      dup2\n      sload\n      dup2\n      0xffffffffffffffffffffffffffffffffffffffff\n      mul\n      not\n      and\n      swap1\n      dup4\n      0xffffffffffffffffffffffffffffffffffffffff\n      and\n      mul\n      or\n      swap1\n      sstore\n      pop\n        /* \"@chainlink/contracts/src/v0.8/ChainlinkClient.sol\":6928:6937  requestId */\n      dup1\n        /* \"@chainlink/contracts/src/v0.8/ChainlinkClient.sol\":6909:6938  ChainlinkRequested(requestId) */\n      0xb5e6e01e79f91267dc17b4e6314d5d4d03593d2ceee0fbb452b750bd70ea5af9\n      mload(0x40)\n      mload(0x40)\n      dup1\n      swap2\n      sub\n      swap1\n      log2\n        /* \"@chainlink/contracts/src/v0.8/ChainlinkClient.sol\":6952:6958  s_link */\n      0x02\n      0x00\n      swap1\n      sload\n      swap1\n      0x0100\n      exp\n      swap1\n      div\n      0xffffffffffffffffffffffffffffffffffffffff\n      and\n        /* \"@chainlink/contracts/src/v0.8/ChainlinkClient.sol\":6952:6974  s_link.transferAndCall */\n      0xffffffffffffffffffffffffffffffffffffffff\n      and\n      0x4000aea0\n        /* \"@chainlink/contracts/src/v0.8/ChainlinkClient.sol\":6975:6988  oracleAddress */\n      dup7\n        /* \"@chainlink/contracts/src/v0.8/ChainlinkClient.sol\":6990:6997  payment */\n      dup6\n        /* \"@chainlink/contracts/src/v0.8/ChainlinkClient.sol\":6999:7013  encodedRequest */\n      dup6\n        /* \"@chainlink/contracts/src/v0.8/ChainlinkClient.sol\":6952:7014  s_link.transferAndCall(oracleAddress, payment, encodedRequest) */\n      mload(0x40)\n      dup5\n      0xffffffff\n      and\n      0xe0\n      shl\n      dup2\n      mstore\n      0x04\n      add\n      tag_57\n      swap4\n      swap3\n      swap2\n      swap1\n      tag_58\n      jump\t// in\n    tag_57:\n      0x20\n      mload(0x40)\n      dup1\n      dup4\n      sub\n      dup2\n      0x00\n      dup8\n      gas\n      call\n      iszero\n      dup1\n      iszero\n      tag_60\n      jumpi\n      returndatasize\n      0x00\n      dup1\n      returndatacopy\n      revert(0x00, returndatasize)\n    tag_60:\n      pop\n      pop\n      pop\n      pop\n      mload(0x40)\n      returndatasize\n      not(0x1f)\n      0x1f\n      dup3\n      add\n      and\n      dup3\n      add\n      dup1\n      0x40\n      mstore\n      pop\n      dup2\n      add\n      swap1\n      tag_61\n      swap2\n      swap1\n      tag_62\n      jump\t// in\n    tag_61:\n        /* \"@chainlink/contracts/src/v0.8/ChainlinkClient.sol\":6944:7054  require(s_link.transferAndCall(oracleAddress, payment, encodedRequest), \"unable to transferAndCall to oracle\") */\n      tag_63\n      jumpi\n      mload(0x40)\n      0x08c379a000000000000000000000000000000000000000000000000000000000\n      dup2\n      mstore\n      0x04\n      add\n      tag_64\n      swap1\n      tag_65\n      jump\t// in\n    tag_64:\n      mload(0x40)\n      dup1\n      swap2\n      sub\n      swap1\n      revert\n    tag_63:\n        /* \"@chainlink/contracts/src/v0.8/ChainlinkClient.sol\":6629:7059  function _rawRequest(... */\n      swap5\n      swap4\n      pop\n      pop\n      pop\n      pop\n      jump\t// out\n        /* \"@chainlink/contracts/src/v0.8/vendor/BufferChainlink.sol\":1001:1400  function init(buffer memory buf, uint256 capacity) internal pure returns (buffer memory) {... */\n    tag_48:\n        /* \"@chainlink/contracts/src/v0.8/vendor/BufferChainlink.sol\":1075:1088  buffer memory */\n      tag_66\n      tag_67\n      jump\t// in\n    tag_66:\n        /* \"@chainlink/contracts/src/v0.8/vendor/BufferChainlink.sol\":1117:1118  0 */\n      0x00\n        /* \"@chainlink/contracts/src/v0.8/vendor/BufferChainlink.sol\":1111:1113  32 */\n      0x20\n        /* \"@chainlink/contracts/src/v0.8/vendor/BufferChainlink.sol\":1100:1108  capacity */\n      dup4\n        /* \"@chainlink/contracts/src/v0.8/vendor/BufferChainlink.sol\":1100:1113  capacity % 32 */\n      tag_69\n      swap2\n      swap1\n      tag_70\n      jump\t// in\n    tag_69:\n        /* \"@chainlink/contracts/src/v0.8/vendor/BufferChainlink.sol\":1100:1118  capacity % 32 != 0 */\n      eq\n        /* \"@chainlink/contracts/src/v0.8/vendor/BufferChainlink.sol\":1096:1167  if (capacity % 32 != 0) {... */\n      tag_71\n      jumpi\n        /* \"@chainlink/contracts/src/v0.8/vendor/BufferChainlink.sol\":1157:1159  32 */\n      0x20\n        /* \"@chainlink/contracts/src/v0.8/vendor/BufferChainlink.sol\":1146:1154  capacity */\n      dup3\n        /* \"@chainlink/contracts/src/v0.8/vendor/BufferChainlink.sol\":1146:1159  capacity % 32 */\n      tag_72\n      swap2\n      swap1\n      tag_70\n      jump\t// in\n    tag_72:\n        /* \"@chainlink/contracts/src/v0.8/vendor/BufferChainlink.sol\":1140:1142  32 */\n      0x20\n        /* \"@chainlink/contracts/src/v0.8/vendor/BufferChainlink.sol\":1140:1160  32 - (capacity % 32) */\n      tag_73\n      swap2\n      swap1\n      tag_74\n      jump\t// in\n    tag_73:\n        /* \"@chainlink/contracts/src/v0.8/vendor/BufferChainlink.sol\":1128:1160  capacity += 32 - (capacity % 32) */\n      dup3\n      tag_75\n      swap2\n      swap1\n      tag_40\n      jump\t// in\n    tag_75:\n      swap2\n      pop\n        /* \"@chainlink/contracts/src/v0.8/vendor/BufferChainlink.sol\":1096:1167  if (capacity % 32 != 0) {... */\n    tag_71:\n        /* \"@chainlink/contracts/src/v0.8/vendor/BufferChainlink.sol\":1229:1237  capacity */\n      dup2\n        /* \"@chainlink/contracts/src/v0.8/vendor/BufferChainlink.sol\":1214:1217  buf */\n      dup4\n        /* \"@chainlink/contracts/src/v0.8/vendor/BufferChainlink.sol\":1214:1226  buf.capacity */\n      0x20\n      add\n        /* \"@chainlink/contracts/src/v0.8/vendor/BufferChainlink.sol\":1214:1237  buf.capacity = capacity */\n      dup2\n      dup2\n      mstore\n      pop\n      pop\n        /* \"@chainlink/contracts/src/v0.8/vendor/BufferChainlink.sol\":1277:1281  0x40 */\n      0x40\n        /* \"@chainlink/contracts/src/v0.8/vendor/BufferChainlink.sol\":1271:1282  mload(0x40) */\n      mload\n        /* \"@chainlink/contracts/src/v0.8/vendor/BufferChainlink.sol\":1301:1304  ptr */\n      dup1\n        /* \"@chainlink/contracts/src/v0.8/vendor/BufferChainlink.sol\":1296:1299  buf */\n      dup5\n        /* \"@chainlink/contracts/src/v0.8/vendor/BufferChainlink.sol\":1289:1305  mstore(buf, ptr) */\n      mstore\n        /* \"@chainlink/contracts/src/v0.8/vendor/BufferChainlink.sol\":1324:1325  0 */\n      0x00\n        /* \"@chainlink/contracts/src/v0.8/vendor/BufferChainlink.sol\":1319:1322  ptr */\n      dup2\n        /* \"@chainlink/contracts/src/v0.8/vendor/BufferChainlink.sol\":1312:1326  mstore(ptr, 0) */\n      mstore\n        /* \"@chainlink/contracts/src/v0.8/vendor/BufferChainlink.sol\":1363:1371  capacity */\n      dup3\n        /* \"@chainlink/contracts/src/v0.8/vendor/BufferChainlink.sol\":1358:1361  ptr */\n      dup2\n        /* \"@chainlink/contracts/src/v0.8/vendor/BufferChainlink.sol\":1354:1372  add(ptr, capacity) */\n      add\n        /* \"@chainlink/contracts/src/v0.8/vendor/BufferChainlink.sol\":1350:1352  32 */\n      0x20\n        /* \"@chainlink/contracts/src/v0.8/vendor/BufferChainlink.sol\":1346:1373  add(32, add(ptr, capacity)) */\n      add\n        /* \"@chainlink/contracts/src/v0.8/vendor/BufferChainlink.sol\":1340:1344  0x40 */\n      0x40\n        /* \"@chainlink/contracts/src/v0.8/vendor/BufferChainlink.sol\":1333:1374  mstore(0x40, add(32, add(ptr, capacity))) */\n      mstore\n        /* \"@chainlink/contracts/src/v0.8/vendor/BufferChainlink.sol\":1252:1380  {... */\n      pop\n        /* \"@chainlink/contracts/src/v0.8/vendor/BufferChainlink.sol\":1392:1395  buf */\n      dup3\n        /* \"@chainlink/contracts/src/v0.8/vendor/BufferChainlink.sol\":1385:1395  return buf */\n      swap1\n      pop\n        /* \"@chainlink/contracts/src/v0.8/vendor/BufferChainlink.sol\":1001:1400  function init(buffer memory buf, uint256 capacity) internal pure returns (buffer memory) {... */\n      swap3\n      swap2\n      pop\n      pop\n      jump\t// out\n        /* \"@chainlink/contracts/src/v0.8/vendor/CBORChainlink.sol\":682:1307  function encodeFixedNumeric(BufferChainlink.buffer memory buf, uint8 major, uint64 value) private pure {... */\n    tag_51:\n        /* \"@chainlink/contracts/src/v0.8/vendor/CBORChainlink.sol\":803:805  23 */\n      0x17\n        /* \"@chainlink/contracts/src/v0.8/vendor/CBORChainlink.sol\":794:799  value */\n      dup2\n        /* \"@chainlink/contracts/src/v0.8/vendor/CBORChainlink.sol\":794:805  value <= 23 */\n      0xffffffffffffffff\n      and\n      gt\n        /* \"@chainlink/contracts/src/v0.8/vendor/CBORChainlink.sol\":791:1303  if(value <= 23) {... */\n      tag_77\n      jumpi\n        /* \"@chainlink/contracts/src/v0.8/vendor/CBORChainlink.sol\":815:859  buf.appendUint8(uint8((major << 5) | value)) */\n      tag_78\n        /* \"@chainlink/contracts/src/v0.8/vendor/CBORChainlink.sol\":852:857  value */\n      dup2\n        /* \"@chainlink/contracts/src/v0.8/vendor/CBORChainlink.sol\":847:848  5 */\n      0x05\n        /* \"@chainlink/contracts/src/v0.8/vendor/CBORChainlink.sol\":838:843  major */\n      dup5\n        /* \"@chainlink/contracts/src/v0.8/vendor/CBORChainlink.sol\":838:848  major << 5 */\n      0xff\n      and\n      swap1\n      shl\n        /* \"@chainlink/contracts/src/v0.8/vendor/CBORChainlink.sol\":837:857  (major << 5) | value */\n      0xff\n      and\n      or\n        /* \"@chainlink/contracts/src/v0.8/vendor/CBORChainlink.sol\":815:818  buf */\n      dup5\n        /* \"@chainlink/contracts/src/v0.8/vendor/CBORChainlink.sol\":815:830  buf.appendUint8 */\n      tag_79\n      swap1\n        /* \"@chainlink/contracts/src/v0.8/vendor/CBORChainlink.sol\":815:859  buf.appendUint8(uint8((major << 5) | value)) */\n      swap2\n      swap1\n      0xffffffff\n      and\n      jump\t// in\n    tag_78:\n      pop\n        /* \"@chainlink/contracts/src/v0.8/vendor/CBORChainlink.sol\":791:1303  if(value <= 23) {... */\n      jump(tag_80)\n    tag_77:\n        /* \"@chainlink/contracts/src/v0.8/vendor/CBORChainlink.sol\":885:889  0xFF */\n      0xff\n        /* \"@chainlink/contracts/src/v0.8/vendor/CBORChainlink.sol\":876:881  value */\n      dup2\n        /* \"@chainlink/contracts/src/v0.8/vendor/CBORChainlink.sol\":876:889  value <= 0xFF */\n      0xffffffffffffffff\n      and\n      gt\n        /* \"@chainlink/contracts/src/v0.8/vendor/CBORChainlink.sol\":872:1303  if (value <= 0xFF) {... */\n      tag_81\n      jumpi\n        /* \"@chainlink/contracts/src/v0.8/vendor/CBORChainlink.sol\":899:940  buf.appendUint8(uint8((major << 5) | 24)) */\n      tag_82\n        /* \"@chainlink/contracts/src/v0.8/vendor/CBORChainlink.sol\":936:938  24 */\n      0x18\n        /* \"@chainlink/contracts/src/v0.8/vendor/CBORChainlink.sol\":931:932  5 */\n      0x05\n        /* \"@chainlink/contracts/src/v0.8/vendor/CBORChainlink.sol\":922:927  major */\n      dup5\n        /* \"@chainlink/contracts/src/v0.8/vendor/CBORChainlink.sol\":922:932  major << 5 */\n      0xff\n      and\n      swap1\n      shl\n        /* \"@chainlink/contracts/src/v0.8/vendor/CBORChainlink.sol\":921:938  (major << 5) | 24 */\n      or\n        /* \"@chainlink/contracts/src/v0.8/vendor/CBORChainlink.sol\":899:902  buf */\n      dup5\n        /* \"@chainlink/contracts/src/v0.8/vendor/CBORChainlink.sol\":899:914  buf.appendUint8 */\n      tag_79\n      swap1\n        /* \"@chainlink/contracts/src/v0.8/vendor/CBORChainlink.sol\":899:940  buf.appendUint8(uint8((major << 5) | 24)) */\n      swap2\n      swap1\n      0xffffffff\n      and\n      jump\t// in\n    tag_82:\n      pop\n        /* \"@chainlink/contracts/src/v0.8/vendor/CBORChainlink.sol\":948:971  buf.appendInt(value, 1) */\n      tag_83\n        /* \"@chainlink/contracts/src/v0.8/vendor/CBORChainlink.sol\":962:967  value */\n      dup2\n        /* \"@chainlink/contracts/src/v0.8/vendor/CBORChainlink.sol\":948:971  buf.appendInt(value, 1) */\n      0xffffffffffffffff\n      and\n        /* \"@chainlink/contracts/src/v0.8/vendor/CBORChainlink.sol\":969:970  1 */\n      0x01\n        /* \"@chainlink/contracts/src/v0.8/vendor/CBORChainlink.sol\":948:951  buf */\n      dup6\n        /* \"@chainlink/contracts/src/v0.8/vendor/CBORChainlink.sol\":948:961  buf.appendInt */\n      tag_84\n      swap1\n        /* \"@chainlink/contracts/src/v0.8/vendor/CBORChainlink.sol\":948:971  buf.appendInt(value, 1) */\n      swap3\n      swap2\n      swap1\n      0xffffffff\n      and\n      jump\t// in\n    tag_83:\n      pop\n        /* \"@chainlink/contracts/src/v0.8/vendor/CBORChainlink.sol\":872:1303  if (value <= 0xFF) {... */\n      jump(tag_85)\n    tag_81:\n        /* \"@chainlink/contracts/src/v0.8/vendor/CBORChainlink.sol\":997:1003  0xFFFF */\n      0xffff\n        /* \"@chainlink/contracts/src/v0.8/vendor/CBORChainlink.sol\":988:993  value */\n      dup2\n        /* \"@chainlink/contracts/src/v0.8/vendor/CBORChainlink.sol\":988:1003  value <= 0xFFFF */\n      0xffffffffffffffff\n      and\n      gt\n        /* \"@chainlink/contracts/src/v0.8/vendor/CBORChainlink.sol\":984:1303  if (value <= 0xFFFF) {... */\n      tag_86\n      jumpi\n        /* \"@chainlink/contracts/src/v0.8/vendor/CBORChainlink.sol\":1013:1054  buf.appendUint8(uint8((major << 5) | 25)) */\n      tag_87\n        /* \"@chainlink/contracts/src/v0.8/vendor/CBORChainlink.sol\":1050:1052  25 */\n      0x19\n        /* \"@chainlink/contracts/src/v0.8/vendor/CBORChainlink.sol\":1045:1046  5 */\n      0x05\n        /* \"@chainlink/contracts/src/v0.8/vendor/CBORChainlink.sol\":1036:1041  major */\n      dup5\n        /* \"@chainlink/contracts/src/v0.8/vendor/CBORChainlink.sol\":1036:1046  major << 5 */\n      0xff\n      and\n      swap1\n      shl\n        /* \"@chainlink/contracts/src/v0.8/vendor/CBORChainlink.sol\":1035:1052  (major << 5) | 25 */\n      or\n        /* \"@chainlink/contracts/src/v0.8/vendor/CBORChainlink.sol\":1013:1016  buf */\n      dup5\n        /* \"@chainlink/contracts/src/v0.8/vendor/CBORChainlink.sol\":1013:1028  buf.appendUint8 */\n      tag_79\n      swap1\n        /* \"@chainlink/contracts/src/v0.8/vendor/CBORChainlink.sol\":1013:1054  buf.appendUint8(uint8((major << 5) | 25)) */\n      swap2\n      swap1\n      0xffffffff\n      and\n      jump\t// in\n    tag_87:\n      pop\n        /* \"@chainlink/contracts/src/v0.8/vendor/CBORChainlink.sol\":1062:1085  buf.appendInt(value, 2) */\n      tag_88\n        /* \"@chainlink/contracts/src/v0.8/vendor/CBORChainlink.sol\":1076:1081  value */\n      dup2\n        /* \"@chainlink/contracts/src/v0.8/vendor/CBORChainlink.sol\":1062:1085  buf.appendInt(value, 2) */\n      0xffffffffffffffff\n      and\n        /* \"@chainlink/contracts/src/v0.8/vendor/CBORChainlink.sol\":1083:1084  2 */\n      0x02\n        /* \"@chainlink/contracts/src/v0.8/vendor/CBORChainlink.sol\":1062:1065  buf */\n      dup6\n        /* \"@chainlink/contracts/src/v0.8/vendor/CBORChainlink.sol\":1062:1075  buf.appendInt */\n      tag_84\n      swap1\n        /* \"@chainlink/contracts/src/v0.8/vendor/CBORChainlink.sol\":1062:1085  buf.appendInt(value, 2) */\n      swap3\n      swap2\n      swap1\n      0xffffffff\n      and\n      jump\t// in\n    tag_88:\n      pop\n        /* \"@chainlink/contracts/src/v0.8/vendor/CBORChainlink.sol\":984:1303  if (value <= 0xFFFF) {... */\n      jump(tag_89)\n    tag_86:\n        /* \"@chainlink/contracts/src/v0.8/vendor/CBORChainlink.sol\":1111:1121  0xFFFFFFFF */\n      0xffffffff\n        /* \"@chainlink/contracts/src/v0.8/vendor/CBORChainlink.sol\":1102:1107  value */\n      dup2\n        /* \"@chainlink/contracts/src/v0.8/vendor/CBORChainlink.sol\":1102:1121  value <= 0xFFFFFFFF */\n      0xffffffffffffffff\n      and\n      gt\n        /* \"@chainlink/contracts/src/v0.8/vendor/CBORChainlink.sol\":1098:1303  if (value <= 0xFFFFFFFF) {... */\n      tag_90\n      jumpi\n        /* \"@chainlink/contracts/src/v0.8/vendor/CBORChainlink.sol\":1131:1172  buf.appendUint8(uint8((major << 5) | 26)) */\n      tag_91\n        /* \"@chainlink/contracts/src/v0.8/vendor/CBORChainlink.sol\":1168:1170  26 */\n      0x1a\n        /* \"@chainlink/contracts/src/v0.8/vendor/CBORChainlink.sol\":1163:1164  5 */\n      0x05\n        /* \"@chainlink/contracts/src/v0.8/vendor/CBORChainlink.sol\":1154:1159  major */\n      dup5\n        /* \"@chainlink/contracts/src/v0.8/vendor/CBORChainlink.sol\":1154:1164  major << 5 */\n      0xff\n      and\n      swap1\n      shl\n        /* \"@chainlink/contracts/src/v0.8/vendor/CBORChainlink.sol\":1153:1170  (major << 5) | 26 */\n      or\n        /* \"@chainlink/contracts/src/v0.8/vendor/CBORChainlink.sol\":1131:1134  buf */\n      dup5\n        /* \"@chainlink/contracts/src/v0.8/vendor/CBORChainlink.sol\":1131:1146  buf.appendUint8 */\n      tag_79\n      swap1\n        /* \"@chainlink/contracts/src/v0.8/vendor/CBORChainlink.sol\":1131:1172  buf.appendUint8(uint8((major << 5) | 26)) */\n      swap2\n      swap1\n      0xffffffff\n      and\n      jump\t// in\n    tag_91:\n      pop\n        /* \"@chainlink/contracts/src/v0.8/vendor/CBORChainlink.sol\":1180:1203  buf.appendInt(value, 4) */\n      tag_92\n        /* \"@chainlink/contracts/src/v0.8/vendor/CBORChainlink.sol\":1194:1199  value */\n      dup2\n        /* \"@chainlink/contracts/src/v0.8/vendor/CBORChainlink.sol\":1180:1203  buf.appendInt(value, 4) */\n      0xffffffffffffffff\n      and\n        /* \"@chainlink/contracts/src/v0.8/vendor/CBORChainlink.sol\":1201:1202  4 */\n      0x04\n        /* \"@chainlink/contracts/src/v0.8/vendor/CBORChainlink.sol\":1180:1183  buf */\n      dup6\n        /* \"@chainlink/contracts/src/v0.8/vendor/CBORChainlink.sol\":1180:1193  buf.appendInt */\n      tag_84\n      swap1\n        /* \"@chainlink/contracts/src/v0.8/vendor/CBORChainlink.sol\":1180:1203  buf.appendInt(value, 4) */\n      swap3\n      swap2\n      swap1\n      0xffffffff\n      and\n      jump\t// in\n    tag_92:\n      pop\n        /* \"@chainlink/contracts/src/v0.8/vendor/CBORChainlink.sol\":1098:1303  if (value <= 0xFFFFFFFF) {... */\n      jump(tag_93)\n    tag_90:\n        /* \"@chainlink/contracts/src/v0.8/vendor/CBORChainlink.sol\":1224:1265  buf.appendUint8(uint8((major << 5) | 27)) */\n      tag_94\n        /* \"@chainlink/contracts/src/v0.8/vendor/CBORChainlink.sol\":1261:1263  27 */\n      0x1b\n        /* \"@chainlink/contracts/src/v0.8/vendor/CBORChainlink.sol\":1256:1257  5 */\n      0x05\n        /* \"@chainlink/contracts/src/v0.8/vendor/CBORChainlink.sol\":1247:1252  major */\n      dup5\n        /* \"@chainlink/contracts/src/v0.8/vendor/CBORChainlink.sol\":1247:1257  major << 5 */\n      0xff\n      and\n      swap1\n      shl\n        /* \"@chainlink/contracts/src/v0.8/vendor/CBORChainlink.sol\":1246:1263  (major << 5) | 27 */\n      or\n        /* \"@chainlink/contracts/src/v0.8/vendor/CBORChainlink.sol\":1224:1227  buf */\n      dup5\n        /* \"@chainlink/contracts/src/v0.8/vendor/CBORChainlink.sol\":1224:1239  buf.appendUint8 */\n      tag_79\n      swap1\n        /* \"@chainlink/contracts/src/v0.8/vendor/CBORChainlink.sol\":1224:1265  buf.appendUint8(uint8((major << 5) | 27)) */\n      swap2\n      swap1\n      0xffffffff\n      and\n      jump\t// in\n    tag_94:\n      pop\n        /* \"@chainlink/contracts/src/v0.8/vendor/CBORChainlink.sol\":1273:1296  buf.appendInt(value, 8) */\n      tag_95\n        /* \"@chainlink/contracts/src/v0.8/vendor/CBORChainlink.sol\":1287:1292  value */\n      dup2\n        /* \"@chainlink/contracts/src/v0.8/vendor/CBORChainlink.sol\":1273:1296  buf.appendInt(value, 8) */\n      0xffffffffffffffff\n      and\n        /* \"@chainlink/contracts/src/v0.8/vendor/CBORChainlink.sol\":1294:1295  8 */\n      0x08\n        /* \"@chainlink/contracts/src/v0.8/vendor/CBORChainlink.sol\":1273:1276  buf */\n      dup6\n        /* \"@chainlink/contracts/src/v0.8/vendor/CBORChainlink.sol\":1273:1286  buf.appendInt */\n      tag_84\n      swap1\n        /* \"@chainlink/contracts/src/v0.8/vendor/CBORChainlink.sol\":1273:1296  buf.appendInt(value, 8) */\n      swap3\n      swap2\n      swap1\n      0xffffffff\n      and\n      jump\t// in\n    tag_95:\n      pop\n        /* \"@chainlink/contracts/src/v0.8/vendor/CBORChainlink.sol\":1098:1303  if (value <= 0xFFFFFFFF) {... */\n    tag_93:\n        /* \"@chainlink/contracts/src/v0.8/vendor/CBORChainlink.sol\":984:1303  if (value <= 0xFFFF) {... */\n    tag_89:\n        /* \"@chainlink/contracts/src/v0.8/vendor/CBORChainlink.sol\":872:1303  if (value <= 0xFF) {... */\n    tag_85:\n        /* \"@chainlink/contracts/src/v0.8/vendor/CBORChainlink.sol\":791:1303  if(value <= 23) {... */\n    tag_80:\n        /* \"@chainlink/contracts/src/v0.8/vendor/CBORChainlink.sol\":682:1307  function encodeFixedNumeric(BufferChainlink.buffer memory buf, uint8 major, uint64 value) private pure {... */\n      pop\n      pop\n      pop\n      jump\t// out\n        /* \"@chainlink/contracts/src/v0.8/vendor/BufferChainlink.sol\":4692:4847  function append(buffer memory buf, bytes memory data) internal pure returns (buffer memory) {... */\n    tag_53:\n        /* \"@chainlink/contracts/src/v0.8/vendor/BufferChainlink.sol\":4769:4782  buffer memory */\n      tag_96\n      tag_67\n      jump\t// in\n    tag_96:\n        /* \"@chainlink/contracts/src/v0.8/vendor/BufferChainlink.sol\":4797:4842  write(buf, buf.buf.length, data, data.length) */\n      tag_98\n        /* \"@chainlink/contracts/src/v0.8/vendor/BufferChainlink.sol\":4803:4806  buf */\n      dup4\n        /* \"@chainlink/contracts/src/v0.8/vendor/BufferChainlink.sol\":4808:4811  buf */\n      dup5\n        /* \"@chainlink/contracts/src/v0.8/vendor/BufferChainlink.sol\":4808:4815  buf.buf */\n      0x00\n      add\n      mload\n        /* \"@chainlink/contracts/src/v0.8/vendor/BufferChainlink.sol\":4808:4822  buf.buf.length */\n      mload\n        /* \"@chainlink/contracts/src/v0.8/vendor/BufferChainlink.sol\":4824:4828  data */\n      dup5\n        /* \"@chainlink/contracts/src/v0.8/vendor/BufferChainlink.sol\":4830:4834  data */\n      dup6\n        /* \"@chainlink/contracts/src/v0.8/vendor/BufferChainlink.sol\":4830:4841  data.length */\n      mload\n        /* \"@chainlink/contracts/src/v0.8/vendor/BufferChainlink.sol\":4797:4802  write */\n      tag_99\n        /* \"@chainlink/contracts/src/v0.8/vendor/BufferChainlink.sol\":4797:4842  write(buf, buf.buf.length, data, data.length) */\n      jump\t// in\n    tag_98:\n        /* \"@chainlink/contracts/src/v0.8/vendor/BufferChainlink.sol\":4790:4842  return write(buf, buf.buf.length, data, data.length) */\n      swap1\n      pop\n        /* \"@chainlink/contracts/src/v0.8/vendor/BufferChainlink.sol\":4692:4847  function append(buffer memory buf, bytes memory data) internal pure returns (buffer memory) {... */\n      swap3\n      swap2\n      pop\n      pop\n      jump\t// out\n        /* \"@chainlink/contracts/src/v0.8/vendor/BufferChainlink.sol\":6040:6185  function appendUint8(buffer memory buf, uint8 data) internal pure returns (buffer memory) {... */\n    tag_79:\n        /* \"@chainlink/contracts/src/v0.8/vendor/BufferChainlink.sol\":6115:6128  buffer memory */\n      tag_100\n      tag_67\n      jump\t// in\n    tag_100:\n        /* \"@chainlink/contracts/src/v0.8/vendor/BufferChainlink.sol\":6143:6180  writeUint8(buf, buf.buf.length, data) */\n      tag_102\n        /* \"@chainlink/contracts/src/v0.8/vendor/BufferChainlink.sol\":6154:6157  buf */\n      dup4\n        /* \"@chainlink/contracts/src/v0.8/vendor/BufferChainlink.sol\":6159:6162  buf */\n      dup5\n        /* \"@chainlink/contracts/src/v0.8/vendor/BufferChainlink.sol\":6159:6166  buf.buf */\n      0x00\n      add\n      mload\n        /* \"@chainlink/contracts/src/v0.8/vendor/BufferChainlink.sol\":6159:6173  buf.buf.length */\n      mload\n        /* \"@chainlink/contracts/src/v0.8/vendor/BufferChainlink.sol\":6175:6179  data */\n      dup5\n        /* \"@chainlink/contracts/src/v0.8/vendor/BufferChainlink.sol\":6143:6153  writeUint8 */\n      tag_103\n        /* \"@chainlink/contracts/src/v0.8/vendor/BufferChainlink.sol\":6143:6180  writeUint8(buf, buf.buf.length, data) */\n      jump\t// in\n    tag_102:\n        /* \"@chainlink/contracts/src/v0.8/vendor/BufferChainlink.sol\":6136:6180  return writeUint8(buf, buf.buf.length, data) */\n      swap1\n      pop\n        /* \"@chainlink/contracts/src/v0.8/vendor/BufferChainlink.sol\":6040:6185  function appendUint8(buffer memory buf, uint8 data) internal pure returns (buffer memory) {... */\n      swap3\n      swap2\n      pop\n      pop\n      jump\t// out\n        /* \"@chainlink/contracts/src/v0.8/vendor/BufferChainlink.sol\":9894:10071  function appendInt(... */\n    tag_84:\n        /* \"@chainlink/contracts/src/v0.8/vendor/BufferChainlink.sol\":9998:10011  buffer memory */\n      tag_104\n      tag_67\n      jump\t// in\n    tag_104:\n        /* \"@chainlink/contracts/src/v0.8/vendor/BufferChainlink.sol\":10026:10066  writeInt(buf, buf.buf.length, data, len) */\n      tag_106\n        /* \"@chainlink/contracts/src/v0.8/vendor/BufferChainlink.sol\":10035:10038  buf */\n      dup5\n        /* \"@chainlink/contracts/src/v0.8/vendor/BufferChainlink.sol\":10040:10043  buf */\n      dup6\n        /* \"@chainlink/contracts/src/v0.8/vendor/BufferChainlink.sol\":10040:10047  buf.buf */\n      0x00\n      add\n      mload\n        /* \"@chainlink/contracts/src/v0.8/vendor/BufferChainlink.sol\":10040:10054  buf.buf.length */\n      mload\n        /* \"@chainlink/contracts/src/v0.8/vendor/BufferChainlink.sol\":10056:10060  data */\n      dup6\n        /* \"@chainlink/contracts/src/v0.8/vendor/BufferChainlink.sol\":10062:10065  len */\n      dup6\n        /* \"@chainlink/contracts/src/v0.8/vendor/BufferChainlink.sol\":10026:10034  writeInt */\n      tag_107\n        /* \"@chainlink/contracts/src/v0.8/vendor/BufferChainlink.sol\":10026:10066  writeInt(buf, buf.buf.length, data, len) */\n      jump\t// in\n    tag_106:\n        /* \"@chainlink/contracts/src/v0.8/vendor/BufferChainlink.sol\":10019:10066  return writeInt(buf, buf.buf.length, data, len) */\n      swap1\n      pop\n        /* \"@chainlink/contracts/src/v0.8/vendor/BufferChainlink.sol\":9894:10071  function appendInt(... */\n      swap4\n      swap3\n      pop\n      pop\n      pop\n      jump\t// out\n        /* \"@chainlink/contracts/src/v0.8/vendor/BufferChainlink.sol\":2745:3955  function write(... */\n    tag_99:\n        /* \"@chainlink/contracts/src/v0.8/vendor/BufferChainlink.sol\":2867:2880  buffer memory */\n      tag_108\n      tag_67\n      jump\t// in\n    tag_108:\n        /* \"@chainlink/contracts/src/v0.8/vendor/BufferChainlink.sol\":2903:2907  data */\n      dup3\n        /* \"@chainlink/contracts/src/v0.8/vendor/BufferChainlink.sol\":2903:2914  data.length */\n      mload\n        /* \"@chainlink/contracts/src/v0.8/vendor/BufferChainlink.sol\":2896:2899  len */\n      dup3\n        /* \"@chainlink/contracts/src/v0.8/vendor/BufferChainlink.sol\":2896:2914  len <= data.length */\n      gt\n      iszero\n        /* \"@chainlink/contracts/src/v0.8/vendor/BufferChainlink.sol\":2888:2915  require(len <= data.length) */\n      tag_110\n      jumpi\n      0x00\n      dup1\n      revert\n    tag_110:\n        /* \"@chainlink/contracts/src/v0.8/vendor/BufferChainlink.sol\":2938:2941  buf */\n      dup5\n        /* \"@chainlink/contracts/src/v0.8/vendor/BufferChainlink.sol\":2938:2950  buf.capacity */\n      0x20\n      add\n      mload\n        /* \"@chainlink/contracts/src/v0.8/vendor/BufferChainlink.sol\":2932:2935  len */\n      dup3\n        /* \"@chainlink/contracts/src/v0.8/vendor/BufferChainlink.sol\":2926:2929  off */\n      dup6\n        /* \"@chainlink/contracts/src/v0.8/vendor/BufferChainlink.sol\":2926:2935  off + len */\n      tag_111\n      swap2\n      swap1\n      tag_40\n      jump\t// in\n    tag_111:\n        /* \"@chainlink/contracts/src/v0.8/vendor/BufferChainlink.sol\":2926:2950  off + len > buf.capacity */\n      gt\n        /* \"@chainlink/contracts/src/v0.8/vendor/BufferChainlink.sol\":2922:3012  if (off + len > buf.capacity) {... */\n      iszero\n      tag_112\n      jumpi\n        /* \"@chainlink/contracts/src/v0.8/vendor/BufferChainlink.sol\":2960:3005  resize(buf, max(buf.capacity, len + off) * 2) */\n      tag_113\n        /* \"@chainlink/contracts/src/v0.8/vendor/BufferChainlink.sol\":2967:2970  buf */\n      dup6\n        /* \"@chainlink/contracts/src/v0.8/vendor/BufferChainlink.sol\":3003:3004  2 */\n      0x02\n        /* \"@chainlink/contracts/src/v0.8/vendor/BufferChainlink.sol\":2972:3000  max(buf.capacity, len + off) */\n      tag_114\n        /* \"@chainlink/contracts/src/v0.8/vendor/BufferChainlink.sol\":2976:2979  buf */\n      dup9\n        /* \"@chainlink/contracts/src/v0.8/vendor/BufferChainlink.sol\":2976:2988  buf.capacity */\n      0x20\n      add\n      mload\n        /* \"@chainlink/contracts/src/v0.8/vendor/BufferChainlink.sol\":2996:2999  off */\n      dup9\n        /* \"@chainlink/contracts/src/v0.8/vendor/BufferChainlink.sol\":2990:2993  len */\n      dup8\n        /* \"@chainlink/contracts/src/v0.8/vendor/BufferChainlink.sol\":2990:2999  len + off */\n      tag_115\n      swap2\n      swap1\n      tag_40\n      jump\t// in\n    tag_115:\n        /* \"@chainlink/contracts/src/v0.8/vendor/BufferChainlink.sol\":2972:2975  max */\n      tag_116\n        /* \"@chainlink/contracts/src/v0.8/vendor/BufferChainlink.sol\":2972:3000  max(buf.capacity, len + off) */\n      jump\t// in\n    tag_114:\n        /* \"@chainlink/contracts/src/v0.8/vendor/BufferChainlink.sol\":2972:3004  max(buf.capacity, len + off) * 2 */\n      tag_117\n      swap2\n      swap1\n      tag_118\n      jump\t// in\n    tag_117:\n        /* \"@chainlink/contracts/src/v0.8/vendor/BufferChainlink.sol\":2960:2966  resize */\n      tag_119\n        /* \"@chainlink/contracts/src/v0.8/vendor/BufferChainlink.sol\":2960:3005  resize(buf, max(buf.capacity, len + off) * 2) */\n      jump\t// in\n    tag_113:\n        /* \"@chainlink/contracts/src/v0.8/vendor/BufferChainlink.sol\":2922:3012  if (off + len > buf.capacity) {... */\n    tag_112:\n        /* \"@chainlink/contracts/src/v0.8/vendor/BufferChainlink.sol\":3018:3030  uint256 dest */\n      0x00\n        /* \"@chainlink/contracts/src/v0.8/vendor/BufferChainlink.sol\":3036:3047  uint256 src */\n      dup1\n        /* \"@chainlink/contracts/src/v0.8/vendor/BufferChainlink.sol\":3133:3136  buf */\n      dup7\n        /* \"@chainlink/contracts/src/v0.8/vendor/BufferChainlink.sol\":3127:3137  mload(buf) */\n      mload\n        /* \"@chainlink/contracts/src/v0.8/vendor/BufferChainlink.sol\":3204:3210  bufptr */\n      dup1\n        /* \"@chainlink/contracts/src/v0.8/vendor/BufferChainlink.sol\":3198:3211  mload(bufptr) */\n      mload\n        /* \"@chainlink/contracts/src/v0.8/vendor/BufferChainlink.sol\":3320:3323  off */\n      dup8\n        /* \"@chainlink/contracts/src/v0.8/vendor/BufferChainlink.sol\":3315:3317  32 */\n      0x20\n        /* \"@chainlink/contracts/src/v0.8/vendor/BufferChainlink.sol\":3307:3313  bufptr */\n      dup4\n        /* \"@chainlink/contracts/src/v0.8/vendor/BufferChainlink.sol\":3303:3318  add(bufptr, 32) */\n      add\n        /* \"@chainlink/contracts/src/v0.8/vendor/BufferChainlink.sol\":3299:3324  add(add(bufptr, 32), off) */\n      add\n        /* \"@chainlink/contracts/src/v0.8/vendor/BufferChainlink.sol\":3291:3324  dest := add(add(bufptr, 32), off) */\n      swap4\n      pop\n        /* \"@chainlink/contracts/src/v0.8/vendor/BufferChainlink.sol\":3404:3410  buflen */\n      dup1\n        /* \"@chainlink/contracts/src/v0.8/vendor/BufferChainlink.sol\":3398:3401  off */\n      dup9\n        /* \"@chainlink/contracts/src/v0.8/vendor/BufferChainlink.sol\":3393:3396  len */\n      dup8\n        /* \"@chainlink/contracts/src/v0.8/vendor/BufferChainlink.sol\":3389:3402  add(len, off) */\n      add\n        /* \"@chainlink/contracts/src/v0.8/vendor/BufferChainlink.sol\":3386:3411  gt(add(len, off), buflen) */\n      gt\n        /* \"@chainlink/contracts/src/v0.8/vendor/BufferChainlink.sol\":3383:3459  if gt(add(len, off), buflen) {... */\n      iszero\n      tag_120\n      jumpi\n        /* \"@chainlink/contracts/src/v0.8/vendor/BufferChainlink.sol\":3446:3449  off */\n      dup8\n        /* \"@chainlink/contracts/src/v0.8/vendor/BufferChainlink.sol\":3441:3444  len */\n      dup7\n        /* \"@chainlink/contracts/src/v0.8/vendor/BufferChainlink.sol\":3437:3450  add(len, off) */\n      add\n        /* \"@chainlink/contracts/src/v0.8/vendor/BufferChainlink.sol\":3429:3435  bufptr */\n      dup3\n        /* \"@chainlink/contracts/src/v0.8/vendor/BufferChainlink.sol\":3422:3451  mstore(bufptr, add(len, off)) */\n      mstore\n        /* \"@chainlink/contracts/src/v0.8/vendor/BufferChainlink.sol\":3383:3459  if gt(add(len, off), buflen) {... */\n    tag_120:\n        /* \"@chainlink/contracts/src/v0.8/vendor/BufferChainlink.sol\":3483:3485  32 */\n      0x20\n        /* \"@chainlink/contracts/src/v0.8/vendor/BufferChainlink.sol\":3477:3481  data */\n      dup8\n        /* \"@chainlink/contracts/src/v0.8/vendor/BufferChainlink.sol\":3473:3486  add(data, 32) */\n      add\n        /* \"@chainlink/contracts/src/v0.8/vendor/BufferChainlink.sol\":3466:3486  src := add(data, 32) */\n      swap3\n      pop\n        /* \"@chainlink/contracts/src/v0.8/vendor/BufferChainlink.sol\":3062:3492  {... */\n      pop\n      pop\n        /* \"@chainlink/contracts/src/v0.8/vendor/BufferChainlink.sol\":3544:3673  for (; len >= 32; len -= 32) {... */\n    tag_121:\n        /* \"@chainlink/contracts/src/v0.8/vendor/BufferChainlink.sol\":3558:3560  32 */\n      0x20\n        /* \"@chainlink/contracts/src/v0.8/vendor/BufferChainlink.sol\":3551:3554  len */\n      dup5\n        /* \"@chainlink/contracts/src/v0.8/vendor/BufferChainlink.sol\":3551:3560  len >= 32 */\n      lt\n        /* \"@chainlink/contracts/src/v0.8/vendor/BufferChainlink.sol\":3544:3673  for (; len >= 32; len -= 32) {... */\n      tag_122\n      jumpi\n        /* \"@chainlink/contracts/src/v0.8/vendor/BufferChainlink.sol\":3619:3622  src */\n      dup1\n        /* \"@chainlink/contracts/src/v0.8/vendor/BufferChainlink.sol\":3613:3623  mload(src) */\n      mload\n        /* \"@chainlink/contracts/src/v0.8/vendor/BufferChainlink.sol\":3607:3611  dest */\n      dup3\n        /* \"@chainlink/contracts/src/v0.8/vendor/BufferChainlink.sol\":3600:3624  mstore(dest, mload(src)) */\n      mstore\n        /* \"@chainlink/contracts/src/v0.8/vendor/BufferChainlink.sol\":3647:3649  32 */\n      0x20\n        /* \"@chainlink/contracts/src/v0.8/vendor/BufferChainlink.sol\":3639:3649  dest += 32 */\n      dup3\n      tag_124\n      swap2\n      swap1\n      tag_40\n      jump\t// in\n    tag_124:\n      swap2\n      pop\n        /* \"@chainlink/contracts/src/v0.8/vendor/BufferChainlink.sol\":3664:3666  32 */\n      0x20\n        /* \"@chainlink/contracts/src/v0.8/vendor/BufferChainlink.sol\":3657:3666  src += 32 */\n      dup2\n      tag_125\n      swap2\n      swap1\n      tag_40\n      jump\t// in\n    tag_125:\n      swap1\n      pop\n        /* \"@chainlink/contracts/src/v0.8/vendor/BufferChainlink.sol\":3569:3571  32 */\n      0x20\n        /* \"@chainlink/contracts/src/v0.8/vendor/BufferChainlink.sol\":3562:3571  len -= 32 */\n      dup5\n      tag_126\n      swap2\n      swap1\n      tag_74\n      jump\t// in\n    tag_126:\n      swap4\n      pop\n        /* \"@chainlink/contracts/src/v0.8/vendor/BufferChainlink.sol\":3544:3673  for (; len >= 32; len -= 32) {... */\n      jump(tag_121)\n    tag_122:\n        /* \"@chainlink/contracts/src/v0.8/vendor/BufferChainlink.sol\":3725:3737  uint256 mask */\n      0x00\n        /* \"@chainlink/contracts/src/v0.8/vendor/BufferChainlink.sol\":3760:3761  1 */\n      0x01\n        /* \"@chainlink/contracts/src/v0.8/vendor/BufferChainlink.sol\":3752:3755  len */\n      dup6\n        /* \"@chainlink/contracts/src/v0.8/vendor/BufferChainlink.sol\":3747:3749  32 */\n      0x20\n        /* \"@chainlink/contracts/src/v0.8/vendor/BufferChainlink.sol\":3747:3755  32 - len */\n      sub\n        /* \"@chainlink/contracts/src/v0.8/vendor/BufferChainlink.sol\":3741:3744  256 */\n      0x0100\n        /* \"@chainlink/contracts/src/v0.8/vendor/BufferChainlink.sol\":3741:3756  256**(32 - len) */\n      exp\n        /* \"@chainlink/contracts/src/v0.8/vendor/BufferChainlink.sol\":3740:3761  (256**(32 - len)) - 1 */\n      sub\n        /* \"@chainlink/contracts/src/v0.8/vendor/BufferChainlink.sol\":3725:3761  uint256 mask = (256**(32 - len)) - 1 */\n      swap1\n      pop\n        /* \"@chainlink/contracts/src/v0.8/vendor/BufferChainlink.sol\":3823:3827  mask */\n      dup1\n        /* \"@chainlink/contracts/src/v0.8/vendor/BufferChainlink.sol\":3819:3828  not(mask) */\n      not\n        /* \"@chainlink/contracts/src/v0.8/vendor/BufferChainlink.sol\":3813:3816  src */\n      dup3\n        /* \"@chainlink/contracts/src/v0.8/vendor/BufferChainlink.sol\":3807:3817  mload(src) */\n      mload\n        /* \"@chainlink/contracts/src/v0.8/vendor/BufferChainlink.sol\":3803:3829  and(mload(src), not(mask)) */\n      and\n        /* \"@chainlink/contracts/src/v0.8/vendor/BufferChainlink.sol\":3871:3875  mask */\n      dup2\n        /* \"@chainlink/contracts/src/v0.8/vendor/BufferChainlink.sol\":3864:3868  dest */\n      dup5\n        /* \"@chainlink/contracts/src/v0.8/vendor/BufferChainlink.sol\":3858:3869  mload(dest) */\n      mload\n        /* \"@chainlink/contracts/src/v0.8/vendor/BufferChainlink.sol\":3854:3876  and(mload(dest), mask) */\n      and\n        /* \"@chainlink/contracts/src/v0.8/vendor/BufferChainlink.sol\":3911:3918  srcpart */\n      dup2\n        /* \"@chainlink/contracts/src/v0.8/vendor/BufferChainlink.sol\":3901:3909  destpart */\n      dup2\n        /* \"@chainlink/contracts/src/v0.8/vendor/BufferChainlink.sol\":3898:3919  or(destpart, srcpart) */\n      or\n        /* \"@chainlink/contracts/src/v0.8/vendor/BufferChainlink.sol\":3892:3896  dest */\n      dup6\n        /* \"@chainlink/contracts/src/v0.8/vendor/BufferChainlink.sol\":3885:3920  mstore(dest, or(destpart, srcpart)) */\n      mstore\n        /* \"@chainlink/contracts/src/v0.8/vendor/BufferChainlink.sol\":3778:3928  {... */\n      pop\n      pop\n      pop\n        /* \"@chainlink/contracts/src/v0.8/vendor/BufferChainlink.sol\":3947:3950  buf */\n      dup7\n        /* \"@chainlink/contracts/src/v0.8/vendor/BufferChainlink.sol\":3940:3950  return buf */\n      swap3\n      pop\n      pop\n      pop\n        /* \"@chainlink/contracts/src/v0.8/vendor/BufferChainlink.sol\":2745:3955  function write(... */\n      swap5\n      swap4\n      pop\n      pop\n      pop\n      pop\n      jump\t// out\n        /* \"@chainlink/contracts/src/v0.8/vendor/BufferChainlink.sol\":5148:5787  function writeUint8(... */\n    tag_103:\n        /* \"@chainlink/contracts/src/v0.8/vendor/BufferChainlink.sol\":5251:5264  buffer memory */\n      tag_127\n      tag_67\n      jump\t// in\n    tag_127:\n        /* \"@chainlink/contracts/src/v0.8/vendor/BufferChainlink.sol\":5283:5286  buf */\n      dup4\n        /* \"@chainlink/contracts/src/v0.8/vendor/BufferChainlink.sol\":5283:5295  buf.capacity */\n      0x20\n      add\n      mload\n        /* \"@chainlink/contracts/src/v0.8/vendor/BufferChainlink.sol\":5276:5279  off */\n      dup4\n        /* \"@chainlink/contracts/src/v0.8/vendor/BufferChainlink.sol\":5276:5295  off >= buf.capacity */\n      lt\n        /* \"@chainlink/contracts/src/v0.8/vendor/BufferChainlink.sol\":5272:5341  if (off >= buf.capacity) {... */\n      tag_129\n      jumpi\n        /* \"@chainlink/contracts/src/v0.8/vendor/BufferChainlink.sol\":5305:5334  resize(buf, buf.capacity * 2) */\n      tag_130\n        /* \"@chainlink/contracts/src/v0.8/vendor/BufferChainlink.sol\":5312:5315  buf */\n      dup5\n        /* \"@chainlink/contracts/src/v0.8/vendor/BufferChainlink.sol\":5332:5333  2 */\n      0x02\n        /* \"@chainlink/contracts/src/v0.8/vendor/BufferChainlink.sol\":5317:5320  buf */\n      dup7\n        /* \"@chainlink/contracts/src/v0.8/vendor/BufferChainlink.sol\":5317:5329  buf.capacity */\n      0x20\n      add\n      mload\n        /* \"@chainlink/contracts/src/v0.8/vendor/BufferChainlink.sol\":5317:5333  buf.capacity * 2 */\n      tag_131\n      swap2\n      swap1\n      tag_118\n      jump\t// in\n    tag_131:\n        /* \"@chainlink/contracts/src/v0.8/vendor/BufferChainlink.sol\":5305:5311  resize */\n      tag_119\n        /* \"@chainlink/contracts/src/v0.8/vendor/BufferChainlink.sol\":5305:5334  resize(buf, buf.capacity * 2) */\n      jump\t// in\n    tag_130:\n        /* \"@chainlink/contracts/src/v0.8/vendor/BufferChainlink.sol\":5272:5341  if (off >= buf.capacity) {... */\n    tag_129:\n        /* \"@chainlink/contracts/src/v0.8/vendor/BufferChainlink.sol\":5427:5430  buf */\n      dup4\n        /* \"@chainlink/contracts/src/v0.8/vendor/BufferChainlink.sol\":5421:5431  mload(buf) */\n      mload\n        /* \"@chainlink/contracts/src/v0.8/vendor/BufferChainlink.sol\":5498:5504  bufptr */\n      dup1\n        /* \"@chainlink/contracts/src/v0.8/vendor/BufferChainlink.sol\":5492:5505  mload(bufptr) */\n      mload\n        /* \"@chainlink/contracts/src/v0.8/vendor/BufferChainlink.sol\":5610:5612  32 */\n      0x20\n        /* \"@chainlink/contracts/src/v0.8/vendor/BufferChainlink.sol\":5604:5607  off */\n      dup6\n        /* \"@chainlink/contracts/src/v0.8/vendor/BufferChainlink.sol\":5596:5602  bufptr */\n      dup4\n        /* \"@chainlink/contracts/src/v0.8/vendor/BufferChainlink.sol\":5592:5608  add(bufptr, off) */\n      add\n        /* \"@chainlink/contracts/src/v0.8/vendor/BufferChainlink.sol\":5588:5613  add(add(bufptr, off), 32) */\n      add\n        /* \"@chainlink/contracts/src/v0.8/vendor/BufferChainlink.sol\":5634:5638  data */\n      dup5\n        /* \"@chainlink/contracts/src/v0.8/vendor/BufferChainlink.sol\":5628:5632  dest */\n      dup2\n        /* \"@chainlink/contracts/src/v0.8/vendor/BufferChainlink.sol\":5620:5639  mstore8(dest, data) */\n      mstore8\n        /* \"@chainlink/contracts/src/v0.8/vendor/BufferChainlink.sol\":5705:5711  buflen */\n      dup2\n        /* \"@chainlink/contracts/src/v0.8/vendor/BufferChainlink.sol\":5700:5703  off */\n      dup7\n        /* \"@chainlink/contracts/src/v0.8/vendor/BufferChainlink.sol\":5697:5712  eq(off, buflen) */\n      sub\n        /* \"@chainlink/contracts/src/v0.8/vendor/BufferChainlink.sol\":5694:5761  if eq(off, buflen) {... */\n      tag_132\n      jumpi\n        /* \"@chainlink/contracts/src/v0.8/vendor/BufferChainlink.sol\":5750:5751  1 */\n      0x01\n        /* \"@chainlink/contracts/src/v0.8/vendor/BufferChainlink.sol\":5742:5748  buflen */\n      dup3\n        /* \"@chainlink/contracts/src/v0.8/vendor/BufferChainlink.sol\":5738:5752  add(buflen, 1) */\n      add\n        /* \"@chainlink/contracts/src/v0.8/vendor/BufferChainlink.sol\":5730:5736  bufptr */\n      dup4\n        /* \"@chainlink/contracts/src/v0.8/vendor/BufferChainlink.sol\":5723:5753  mstore(bufptr, add(buflen, 1)) */\n      mstore\n        /* \"@chainlink/contracts/src/v0.8/vendor/BufferChainlink.sol\":5694:5761  if eq(off, buflen) {... */\n    tag_132:\n        /* \"@chainlink/contracts/src/v0.8/vendor/BufferChainlink.sol\":5356:5767  {... */\n      pop\n      pop\n      pop\n        /* \"@chainlink/contracts/src/v0.8/vendor/BufferChainlink.sol\":5779:5782  buf */\n      dup4\n        /* \"@chainlink/contracts/src/v0.8/vendor/BufferChainlink.sol\":5772:5782  return buf */\n      swap1\n      pop\n        /* \"@chainlink/contracts/src/v0.8/vendor/BufferChainlink.sol\":5148:5787  function writeUint8(... */\n      swap4\n      swap3\n      pop\n      pop\n      pop\n      jump\t// out\n        /* \"@chainlink/contracts/src/v0.8/vendor/BufferChainlink.sol\":8974:9649  function writeInt(... */\n    tag_107:\n        /* \"@chainlink/contracts/src/v0.8/vendor/BufferChainlink.sol\":9093:9106  buffer memory */\n      tag_133\n      tag_67\n      jump\t// in\n    tag_133:\n        /* \"@chainlink/contracts/src/v0.8/vendor/BufferChainlink.sol\":9130:9133  buf */\n      dup5\n        /* \"@chainlink/contracts/src/v0.8/vendor/BufferChainlink.sol\":9130:9142  buf.capacity */\n      0x20\n      add\n      mload\n        /* \"@chainlink/contracts/src/v0.8/vendor/BufferChainlink.sol\":9124:9127  off */\n      dup5\n        /* \"@chainlink/contracts/src/v0.8/vendor/BufferChainlink.sol\":9118:9121  len */\n      dup4\n        /* \"@chainlink/contracts/src/v0.8/vendor/BufferChainlink.sol\":9118:9127  len + off */\n      tag_135\n      swap2\n      swap1\n      tag_40\n      jump\t// in\n    tag_135:\n        /* \"@chainlink/contracts/src/v0.8/vendor/BufferChainlink.sol\":9118:9142  len + off > buf.capacity */\n      gt\n        /* \"@chainlink/contracts/src/v0.8/vendor/BufferChainlink.sol\":9114:9187  if (len + off > buf.capacity) {... */\n      iszero\n      tag_136\n      jumpi\n        /* \"@chainlink/contracts/src/v0.8/vendor/BufferChainlink.sol\":9152:9180  resize(buf, (len + off) * 2) */\n      tag_137\n        /* \"@chainlink/contracts/src/v0.8/vendor/BufferChainlink.sol\":9159:9162  buf */\n      dup6\n        /* \"@chainlink/contracts/src/v0.8/vendor/BufferChainlink.sol\":9178:9179  2 */\n      0x02\n        /* \"@chainlink/contracts/src/v0.8/vendor/BufferChainlink.sol\":9171:9174  off */\n      dup7\n        /* \"@chainlink/contracts/src/v0.8/vendor/BufferChainlink.sol\":9165:9168  len */\n      dup6\n        /* \"@chainlink/contracts/src/v0.8/vendor/BufferChainlink.sol\":9165:9174  len + off */\n      tag_138\n      swap2\n      swap1\n      tag_40\n      jump\t// in\n    tag_138:\n        /* \"@chainlink/contracts/src/v0.8/vendor/BufferChainlink.sol\":9164:9179  (len + off) * 2 */\n      tag_139\n      swap2\n      swap1\n      tag_118\n      jump\t// in\n    tag_139:\n        /* \"@chainlink/contracts/src/v0.8/vendor/BufferChainlink.sol\":9152:9158  resize */\n      tag_119\n        /* \"@chainlink/contracts/src/v0.8/vendor/BufferChainlink.sol\":9152:9180  resize(buf, (len + off) * 2) */\n      jump\t// in\n    tag_137:\n        /* \"@chainlink/contracts/src/v0.8/vendor/BufferChainlink.sol\":9114:9187  if (len + off > buf.capacity) {... */\n    tag_136:\n        /* \"@chainlink/contracts/src/v0.8/vendor/BufferChainlink.sol\":9193:9205  uint256 mask */\n      0x00\n        /* \"@chainlink/contracts/src/v0.8/vendor/BufferChainlink.sol\":9221:9222  1 */\n      0x01\n        /* \"@chainlink/contracts/src/v0.8/vendor/BufferChainlink.sol\":9214:9217  len */\n      dup4\n        /* \"@chainlink/contracts/src/v0.8/vendor/BufferChainlink.sol\":9209:9212  256 */\n      0x0100\n        /* \"@chainlink/contracts/src/v0.8/vendor/BufferChainlink.sol\":9209:9217  256**len */\n      tag_140\n      swap2\n      swap1\n      tag_141\n      jump\t// in\n    tag_140:\n        /* \"@chainlink/contracts/src/v0.8/vendor/BufferChainlink.sol\":9208:9222  (256**len) - 1 */\n      tag_142\n      swap2\n      swap1\n      tag_74\n      jump\t// in\n    tag_142:\n        /* \"@chainlink/contracts/src/v0.8/vendor/BufferChainlink.sol\":9193:9222  uint256 mask = (256**len) - 1 */\n      swap1\n      pop\n        /* \"@chainlink/contracts/src/v0.8/vendor/BufferChainlink.sol\":9308:9311  buf */\n      dup6\n        /* \"@chainlink/contracts/src/v0.8/vendor/BufferChainlink.sol\":9302:9312  mload(buf) */\n      mload\n        /* \"@chainlink/contracts/src/v0.8/vendor/BufferChainlink.sol\":9423:9426  len */\n      dup4\n        /* \"@chainlink/contracts/src/v0.8/vendor/BufferChainlink.sol\":9417:9420  off */\n      dup7\n        /* \"@chainlink/contracts/src/v0.8/vendor/BufferChainlink.sol\":9409:9415  bufptr */\n      dup3\n        /* \"@chainlink/contracts/src/v0.8/vendor/BufferChainlink.sol\":9405:9421  add(bufptr, off) */\n      add\n        /* \"@chainlink/contracts/src/v0.8/vendor/BufferChainlink.sol\":9401:9427  add(add(bufptr, off), len) */\n      add\n        /* \"@chainlink/contracts/src/v0.8/vendor/BufferChainlink.sol\":9479:9483  data */\n      dup6\n        /* \"@chainlink/contracts/src/v0.8/vendor/BufferChainlink.sol\":9471:9475  mask */\n      dup4\n        /* \"@chainlink/contracts/src/v0.8/vendor/BufferChainlink.sol\":9467:9476  not(mask) */\n      not\n        /* \"@chainlink/contracts/src/v0.8/vendor/BufferChainlink.sol\":9460:9464  dest */\n      dup3\n        /* \"@chainlink/contracts/src/v0.8/vendor/BufferChainlink.sol\":9454:9465  mload(dest) */\n      mload\n        /* \"@chainlink/contracts/src/v0.8/vendor/BufferChainlink.sol\":9450:9477  and(mload(dest), not(mask)) */\n      and\n        /* \"@chainlink/contracts/src/v0.8/vendor/BufferChainlink.sol\":9447:9484  or(and(mload(dest), not(mask)), data) */\n      or\n        /* \"@chainlink/contracts/src/v0.8/vendor/BufferChainlink.sol\":9441:9445  dest */\n      dup2\n        /* \"@chainlink/contracts/src/v0.8/vendor/BufferChainlink.sol\":9434:9485  mstore(dest, or(and(mload(dest), not(mask)), data)) */\n      mstore\n        /* \"@chainlink/contracts/src/v0.8/vendor/BufferChainlink.sol\":9567:9573  bufptr */\n      dup2\n        /* \"@chainlink/contracts/src/v0.8/vendor/BufferChainlink.sol\":9561:9574  mload(bufptr) */\n      mload\n        /* \"@chainlink/contracts/src/v0.8/vendor/BufferChainlink.sol\":9555:9558  len */\n      dup6\n        /* \"@chainlink/contracts/src/v0.8/vendor/BufferChainlink.sol\":9550:9553  off */\n      dup9\n        /* \"@chainlink/contracts/src/v0.8/vendor/BufferChainlink.sol\":9546:9559  add(off, len) */\n      add\n        /* \"@chainlink/contracts/src/v0.8/vendor/BufferChainlink.sol\":9543:9575  gt(add(off, len), mload(bufptr)) */\n      gt\n        /* \"@chainlink/contracts/src/v0.8/vendor/BufferChainlink.sol\":9540:9623  if gt(add(off, len), mload(bufptr)) {... */\n      iszero\n      tag_143\n      jumpi\n        /* \"@chainlink/contracts/src/v0.8/vendor/BufferChainlink.sol\":9610:9613  len */\n      dup5\n        /* \"@chainlink/contracts/src/v0.8/vendor/BufferChainlink.sol\":9605:9608  off */\n      dup8\n        /* \"@chainlink/contracts/src/v0.8/vendor/BufferChainlink.sol\":9601:9614  add(off, len) */\n      add\n        /* \"@chainlink/contracts/src/v0.8/vendor/BufferChainlink.sol\":9593:9599  bufptr */\n      dup3\n        /* \"@chainlink/contracts/src/v0.8/vendor/BufferChainlink.sol\":9586:9615  mstore(bufptr, add(off, len)) */\n      mstore\n        /* \"@chainlink/contracts/src/v0.8/vendor/BufferChainlink.sol\":9540:9623  if gt(add(off, len), mload(bufptr)) {... */\n    tag_143:\n        /* \"@chainlink/contracts/src/v0.8/vendor/BufferChainlink.sol\":9237:9629  {... */\n      pop\n      pop\n        /* \"@chainlink/contracts/src/v0.8/vendor/BufferChainlink.sol\":9641:9644  buf */\n      dup6\n        /* \"@chainlink/contracts/src/v0.8/vendor/BufferChainlink.sol\":9634:9644  return buf */\n      swap2\n      pop\n      pop\n        /* \"@chainlink/contracts/src/v0.8/vendor/BufferChainlink.sol\":8974:9649  function writeInt(... */\n      swap5\n      swap4\n      pop\n      pop\n      pop\n      pop\n      jump\t// out\n        /* \"@chainlink/contracts/src/v0.8/vendor/BufferChainlink.sol\":1961:2085  function max(uint256 a, uint256 b) private pure returns (uint256) {... */\n    tag_116:\n        /* \"@chainlink/contracts/src/v0.8/vendor/BufferChainlink.sol\":2018:2025  uint256 */\n      0x00\n        /* \"@chainlink/contracts/src/v0.8/vendor/BufferChainlink.sol\":2041:2042  b */\n      dup2\n        /* \"@chainlink/contracts/src/v0.8/vendor/BufferChainlink.sol\":2037:2038  a */\n      dup4\n        /* \"@chainlink/contracts/src/v0.8/vendor/BufferChainlink.sol\":2037:2042  a > b */\n      gt\n        /* \"@chainlink/contracts/src/v0.8/vendor/BufferChainlink.sol\":2033:2067  if (a > b) {... */\n      iszero\n      tag_145\n      jumpi\n        /* \"@chainlink/contracts/src/v0.8/vendor/BufferChainlink.sol\":2059:2060  a */\n      dup3\n        /* \"@chainlink/contracts/src/v0.8/vendor/BufferChainlink.sol\":2052:2060  return a */\n      swap1\n      pop\n      jump(tag_144)\n        /* \"@chainlink/contracts/src/v0.8/vendor/BufferChainlink.sol\":2033:2067  if (a > b) {... */\n    tag_145:\n        /* \"@chainlink/contracts/src/v0.8/vendor/BufferChainlink.sol\":2079:2080  b */\n      dup2\n        /* \"@chainlink/contracts/src/v0.8/vendor/BufferChainlink.sol\":2072:2080  return b */\n      swap1\n      pop\n        /* \"@chainlink/contracts/src/v0.8/vendor/BufferChainlink.sol\":1961:2085  function max(uint256 a, uint256 b) private pure returns (uint256) {... */\n    tag_144:\n      swap3\n      swap2\n      pop\n      pop\n      jump\t// out\n        /* \"@chainlink/contracts/src/v0.8/vendor/BufferChainlink.sol\":1801:1957  function resize(buffer memory buf, uint256 capacity) private pure {... */\n    tag_119:\n        /* \"@chainlink/contracts/src/v0.8/vendor/BufferChainlink.sol\":1873:1892  bytes memory oldbuf */\n      0x00\n        /* \"@chainlink/contracts/src/v0.8/vendor/BufferChainlink.sol\":1895:1898  buf */\n      dup3\n        /* \"@chainlink/contracts/src/v0.8/vendor/BufferChainlink.sol\":1895:1902  buf.buf */\n      0x00\n      add\n      mload\n        /* \"@chainlink/contracts/src/v0.8/vendor/BufferChainlink.sol\":1873:1902  bytes memory oldbuf = buf.buf */\n      swap1\n      pop\n        /* \"@chainlink/contracts/src/v0.8/vendor/BufferChainlink.sol\":1908:1927  init(buf, capacity) */\n      tag_147\n        /* \"@chainlink/contracts/src/v0.8/vendor/BufferChainlink.sol\":1913:1916  buf */\n      dup4\n        /* \"@chainlink/contracts/src/v0.8/vendor/BufferChainlink.sol\":1918:1926  capacity */\n      dup4\n        /* \"@chainlink/contracts/src/v0.8/vendor/BufferChainlink.sol\":1908:1912  init */\n      tag_48\n        /* \"@chainlink/contracts/src/v0.8/vendor/BufferChainlink.sol\":1908:1927  init(buf, capacity) */\n      jump\t// in\n    tag_147:\n      pop\n        /* \"@chainlink/contracts/src/v0.8/vendor/BufferChainlink.sol\":1933:1952  append(buf, oldbuf) */\n      tag_148\n        /* \"@chainlink/contracts/src/v0.8/vendor/BufferChainlink.sol\":1940:1943  buf */\n      dup4\n        /* \"@chainlink/contracts/src/v0.8/vendor/BufferChainlink.sol\":1945:1951  oldbuf */\n      dup3\n        /* \"@chainlink/contracts/src/v0.8/vendor/BufferChainlink.sol\":1933:1939  append */\n      tag_53\n        /* \"@chainlink/contracts/src/v0.8/vendor/BufferChainlink.sol\":1933:1952  append(buf, oldbuf) */\n      jump\t// in\n    tag_148:\n      pop\n        /* \"@chainlink/contracts/src/v0.8/vendor/BufferChainlink.sol\":1867:1957  {... */\n      pop\n        /* \"@chainlink/contracts/src/v0.8/vendor/BufferChainlink.sol\":1801:1957  function resize(buffer memory buf, uint256 capacity) private pure {... */\n      pop\n      pop\n      jump\t// out\n    tag_29:\n      mload(0x40)\n      dup1\n      0xa0\n      add\n      0x40\n      mstore\n      dup1\n      0x00\n      dup1\n      not\n      and\n      dup2\n      mstore\n      0x20\n      add\n      and(0xffffffffffffffffffffffffffffffffffffffff, 0x00)\n      dup2\n      mstore\n      0x20\n      add\n      and(not(0xffffffffffffffffffffffffffffffffffffffffffffffffffffffff), 0x00)\n      dup2\n      mstore\n      0x20\n      add\n      0x00\n      dup2\n      mstore\n      0x20\n      add\n      tag_149\n      tag_67\n      jump\t// in\n    tag_149:\n      dup2\n      mstore\n      pop\n      swap1\n      jump\t// out\n    tag_67:\n      mload(0x40)\n      dup1\n      0x40\n      add\n      0x40\n      mstore\n      dup1\n      0x60\n      dup2\n      mstore\n      0x20\n      add\n      0x00\n      dup2\n      mstore\n      pop\n      swap1\n      jump\t// out\n        /* \"#utility.yul\":7:82   */\n    tag_150:\n        /* \"#utility.yul\":40:46   */\n      0x00\n        /* \"#utility.yul\":73:75   */\n      0x40\n        /* \"#utility.yul\":67:76   */\n      mload\n        /* \"#utility.yul\":57:76   */\n      swap1\n      pop\n        /* \"#utility.yul\":7:82   */\n      swap1\n      jump\t// out\n        /* \"#utility.yul\":88:205   */\n    tag_151:\n        /* \"#utility.yul\":197:198   */\n      0x00\n        /* \"#utility.yul\":194:195   */\n      dup1\n        /* \"#utility.yul\":187:199   */\n      revert\n        /* \"#utility.yul\":211:328   */\n    tag_152:\n        /* \"#utility.yul\":320:321   */\n      0x00\n        /* \"#utility.yul\":317:318   */\n      dup1\n        /* \"#utility.yul\":310:322   */\n      revert\n        /* \"#utility.yul\":334:451   */\n    tag_153:\n        /* \"#utility.yul\":443:444   */\n      0x00\n        /* \"#utility.yul\":440:441   */\n      dup1\n        /* \"#utility.yul\":433:445   */\n      revert\n        /* \"#utility.yul\":457:574   */\n    tag_154:\n        /* \"#utility.yul\":566:567   */\n      0x00\n        /* \"#utility.yul\":563:564   */\n      dup1\n        /* \"#utility.yul\":556:568   */\n      revert\n        /* \"#utility.yul\":580:682   */\n    tag_155:\n        /* \"#utility.yul\":621:627   */\n      0x00\n        /* \"#utility.yul\":672:674   */\n      0x1f\n        /* \"#utility.yul\":668:675   */\n      not\n        /* \"#utility.yul\":663:665   */\n      0x1f\n        /* \"#utility.yul\":656:661   */\n      dup4\n        /* \"#utility.yul\":652:666   */\n      add\n        /* \"#utility.yul\":648:676   */\n      and\n        /* \"#utility.yul\":638:676   */\n      swap1\n      pop\n        /* \"#utility.yul\":580:682   */\n      swap2\n      swap1\n      pop\n      jump\t// out\n        /* \"#utility.yul\":688:868   */\n    tag_156:\n        /* \"#utility.yul\":736:813   */\n      0x4e487b7100000000000000000000000000000000000000000000000000000000\n        /* \"#utility.yul\":733:734   */\n      0x00\n        /* \"#utility.yul\":726:814   */\n      mstore\n        /* \"#utility.yul\":833:837   */\n      0x41\n        /* \"#utility.yul\":830:831   */\n      0x04\n        /* \"#utility.yul\":823:838   */\n      mstore\n        /* \"#utility.yul\":857:861   */\n      0x24\n        /* \"#utility.yul\":854:855   */\n      0x00\n        /* \"#utility.yul\":847:862   */\n      revert\n        /* \"#utility.yul\":874:1155   */\n    tag_157:\n        /* \"#utility.yul\":957:984   */\n      tag_212\n        /* \"#utility.yul\":979:983   */\n      dup3\n        /* \"#utility.yul\":957:984   */\n      tag_155\n      jump\t// in\n    tag_212:\n        /* \"#utility.yul\":949:955   */\n      dup2\n        /* \"#utility.yul\":945:985   */\n      add\n        /* \"#utility.yul\":1087:1093   */\n      dup2\n        /* \"#utility.yul\":1075:1085   */\n      dup2\n        /* \"#utility.yul\":1072:1094   */\n      lt\n        /* \"#utility.yul\":1051:1069   */\n      0xffffffffffffffff\n        /* \"#utility.yul\":1039:1049   */\n      dup3\n        /* \"#utility.yul\":1036:1070   */\n      gt\n        /* \"#utility.yul\":1033:1095   */\n      or\n        /* \"#utility.yul\":1030:1118   */\n      iszero\n      tag_213\n      jumpi\n        /* \"#utility.yul\":1098:1116   */\n      tag_214\n      tag_156\n      jump\t// in\n    tag_214:\n        /* \"#utility.yul\":1030:1118   */\n    tag_213:\n        /* \"#utility.yul\":1138:1148   */\n      dup1\n        /* \"#utility.yul\":1134:1136   */\n      0x40\n        /* \"#utility.yul\":1127:1149   */\n      mstore\n        /* \"#utility.yul\":917:1155   */\n      pop\n        /* \"#utility.yul\":874:1155   */\n      pop\n      pop\n      jump\t// out\n        /* \"#utility.yul\":1161:1290   */\n    tag_158:\n        /* \"#utility.yul\":1195:1201   */\n      0x00\n        /* \"#utility.yul\":1222:1242   */\n      tag_216\n      tag_150\n      jump\t// in\n    tag_216:\n        /* \"#utility.yul\":1212:1242   */\n      swap1\n      pop\n        /* \"#utility.yul\":1251:1284   */\n      tag_217\n        /* \"#utility.yul\":1279:1283   */\n      dup3\n        /* \"#utility.yul\":1271:1277   */\n      dup3\n        /* \"#utility.yul\":1251:1284   */\n      tag_157\n      jump\t// in\n    tag_217:\n        /* \"#utility.yul\":1161:1290   */\n      swap2\n      swap1\n      pop\n      jump\t// out\n        /* \"#utility.yul\":1296:1604   */\n    tag_159:\n        /* \"#utility.yul\":1358:1362   */\n      0x00\n        /* \"#utility.yul\":1448:1466   */\n      0xffffffffffffffff\n        /* \"#utility.yul\":1440:1446   */\n      dup3\n        /* \"#utility.yul\":1437:1467   */\n      gt\n        /* \"#utility.yul\":1434:1490   */\n      iszero\n      tag_219\n      jumpi\n        /* \"#utility.yul\":1470:1488   */\n      tag_220\n      tag_156\n      jump\t// in\n    tag_220:\n        /* \"#utility.yul\":1434:1490   */\n    tag_219:\n        /* \"#utility.yul\":1508:1537   */\n      tag_221\n        /* \"#utility.yul\":1530:1536   */\n      dup3\n        /* \"#utility.yul\":1508:1537   */\n      tag_155\n      jump\t// in\n    tag_221:\n        /* \"#utility.yul\":1500:1537   */\n      swap1\n      pop\n        /* \"#utility.yul\":1592:1596   */\n      0x20\n        /* \"#utility.yul\":1586:1590   */\n      dup2\n        /* \"#utility.yul\":1582:1597   */\n      add\n        /* \"#utility.yul\":1574:1597   */\n      swap1\n      pop\n        /* \"#utility.yul\":1296:1604   */\n      swap2\n      swap1\n      pop\n      jump\t// out\n        /* \"#utility.yul\":1610:1756   */\n    tag_160:\n        /* \"#utility.yul\":1707:1713   */\n      dup3\n        /* \"#utility.yul\":1702:1705   */\n      dup2\n        /* \"#utility.yul\":1697:1700   */\n      dup4\n        /* \"#utility.yul\":1684:1714   */\n      calldatacopy\n        /* \"#utility.yul\":1748:1749   */\n      0x00\n        /* \"#utility.yul\":1739:1745   */\n      dup4\n        /* \"#utility.yul\":1734:1737   */\n      dup4\n        /* \"#utility.yul\":1730:1746   */\n      add\n        /* \"#utility.yul\":1723:1750   */\n      mstore\n        /* \"#utility.yul\":1610:1756   */\n      pop\n      pop\n      pop\n      jump\t// out\n        /* \"#utility.yul\":1762:2187   */\n    tag_161:\n        /* \"#utility.yul\":1840:1845   */\n      0x00\n        /* \"#utility.yul\":1865:1931   */\n      tag_224\n        /* \"#utility.yul\":1881:1930   */\n      tag_225\n        /* \"#utility.yul\":1923:1929   */\n      dup5\n        /* \"#utility.yul\":1881:1930   */\n      tag_159\n      jump\t// in\n    tag_225:\n        /* \"#utility.yul\":1865:1931   */\n      tag_158\n      jump\t// in\n    tag_224:\n        /* \"#utility.yul\":1856:1931   */\n      swap1\n      pop\n        /* \"#utility.yul\":1954:1960   */\n      dup3\n        /* \"#utility.yul\":1947:1952   */\n      dup2\n        /* \"#utility.yul\":1940:1961   */\n      mstore\n        /* \"#utility.yul\":1992:1996   */\n      0x20\n        /* \"#utility.yul\":1985:1990   */\n      dup2\n        /* \"#utility.yul\":1981:1997   */\n      add\n        /* \"#utility.yul\":2030:2033   */\n      dup5\n        /* \"#utility.yul\":2021:2027   */\n      dup5\n        /* \"#utility.yul\":2016:2019   */\n      dup5\n        /* \"#utility.yul\":2012:2028   */\n      add\n        /* \"#utility.yul\":2009:2034   */\n      gt\n        /* \"#utility.yul\":2006:2118   */\n      iszero\n      tag_226\n      jumpi\n        /* \"#utility.yul\":2037:2116   */\n      tag_227\n      tag_154\n      jump\t// in\n    tag_227:\n        /* \"#utility.yul\":2006:2118   */\n    tag_226:\n        /* \"#utility.yul\":2127:2181   */\n      tag_228\n        /* \"#utility.yul\":2174:2180   */\n      dup5\n        /* \"#utility.yul\":2169:2172   */\n      dup3\n        /* \"#utility.yul\":2164:2167   */\n      dup6\n        /* \"#utility.yul\":2127:2181   */\n      tag_160\n      jump\t// in\n    tag_228:\n        /* \"#utility.yul\":1846:2187   */\n      pop\n        /* \"#utility.yul\":1762:2187   */\n      swap4\n      swap3\n      pop\n      pop\n      pop\n      jump\t// out\n        /* \"#utility.yul\":2207:2547   */\n    tag_162:\n        /* \"#utility.yul\":2263:2268   */\n      0x00\n        /* \"#utility.yul\":2312:2315   */\n      dup3\n        /* \"#utility.yul\":2305:2309   */\n      0x1f\n        /* \"#utility.yul\":2297:2303   */\n      dup4\n        /* \"#utility.yul\":2293:2310   */\n      add\n        /* \"#utility.yul\":2289:2316   */\n      slt\n        /* \"#utility.yul\":2279:2401   */\n      tag_230\n      jumpi\n        /* \"#utility.yul\":2320:2399   */\n      tag_231\n      tag_153\n      jump\t// in\n    tag_231:\n        /* \"#utility.yul\":2279:2401   */\n    tag_230:\n        /* \"#utility.yul\":2437:2443   */\n      dup2\n        /* \"#utility.yul\":2424:2444   */\n      calldataload\n        /* \"#utility.yul\":2462:2541   */\n      tag_232\n        /* \"#utility.yul\":2537:2540   */\n      dup5\n        /* \"#utility.yul\":2529:2535   */\n      dup3\n        /* \"#utility.yul\":2522:2526   */\n      0x20\n        /* \"#utility.yul\":2514:2520   */\n      dup7\n        /* \"#utility.yul\":2510:2527   */\n      add\n        /* \"#utility.yul\":2462:2541   */\n      tag_161\n      jump\t// in\n    tag_232:\n        /* \"#utility.yul\":2453:2541   */\n      swap2\n      pop\n        /* \"#utility.yul\":2269:2547   */\n      pop\n        /* \"#utility.yul\":2207:2547   */\n      swap3\n      swap2\n      pop\n      pop\n      jump\t// out\n        /* \"#utility.yul\":2553:3062   */\n    tag_7:\n        /* \"#utility.yul\":2622:2628   */\n      0x00\n        /* \"#utility.yul\":2671:2673   */\n      0x20\n        /* \"#utility.yul\":2659:2668   */\n      dup3\n        /* \"#utility.yul\":2650:2657   */\n      dup5\n        /* \"#utility.yul\":2646:2669   */\n      sub\n        /* \"#utility.yul\":2642:2674   */\n      slt\n        /* \"#utility.yul\":2639:2758   */\n      iszero\n      tag_234\n      jumpi\n        /* \"#utility.yul\":2677:2756   */\n      tag_235\n      tag_151\n      jump\t// in\n    tag_235:\n        /* \"#utility.yul\":2639:2758   */\n    tag_234:\n        /* \"#utility.yul\":2825:2826   */\n      0x00\n        /* \"#utility.yul\":2814:2823   */\n      dup3\n        /* \"#utility.yul\":2810:2827   */\n      add\n        /* \"#utility.yul\":2797:2828   */\n      calldataload\n        /* \"#utility.yul\":2855:2873   */\n      0xffffffffffffffff\n        /* \"#utility.yul\":2847:2853   */\n      dup2\n        /* \"#utility.yul\":2844:2874   */\n      gt\n        /* \"#utility.yul\":2841:2958   */\n      iszero\n      tag_236\n      jumpi\n        /* \"#utility.yul\":2877:2956   */\n      tag_237\n      tag_152\n      jump\t// in\n    tag_237:\n        /* \"#utility.yul\":2841:2958   */\n    tag_236:\n        /* \"#utility.yul\":2982:3045   */\n      tag_238\n        /* \"#utility.yul\":3037:3044   */\n      dup5\n        /* \"#utility.yul\":3028:3034   */\n      dup3\n        /* \"#utility.yul\":3017:3026   */\n      dup6\n        /* \"#utility.yul\":3013:3035   */\n      add\n        /* \"#utility.yul\":2982:3045   */\n      tag_162\n      jump\t// in\n    tag_238:\n        /* \"#utility.yul\":2972:3045   */\n      swap2\n      pop\n        /* \"#utility.yul\":2768:3055   */\n      pop\n        /* \"#utility.yul\":2553:3062   */\n      swap3\n      swap2\n      pop\n      pop\n      jump\t// out\n        /* \"#utility.yul\":3068:3145   */\n    tag_163:\n        /* \"#utility.yul\":3105:3112   */\n      0x00\n        /* \"#utility.yul\":3134:3139   */\n      dup2\n        /* \"#utility.yul\":3123:3139   */\n      swap1\n      pop\n        /* \"#utility.yul\":3068:3145   */\n      swap2\n      swap1\n      pop\n      jump\t// out\n        /* \"#utility.yul\":3151:3273   */\n    tag_164:\n        /* \"#utility.yul\":3224:3248   */\n      tag_241\n        /* \"#utility.yul\":3242:3247   */\n      dup2\n        /* \"#utility.yul\":3224:3248   */\n      tag_163\n      jump\t// in\n    tag_241:\n        /* \"#utility.yul\":3217:3222   */\n      dup2\n        /* \"#utility.yul\":3214:3249   */\n      eq\n        /* \"#utility.yul\":3204:3267   */\n      tag_242\n      jumpi\n        /* \"#utility.yul\":3263:3264   */\n      0x00\n        /* \"#utility.yul\":3260:3261   */\n      dup1\n        /* \"#utility.yul\":3253:3265   */\n      revert\n        /* \"#utility.yul\":3204:3267   */\n    tag_242:\n        /* \"#utility.yul\":3151:3273   */\n      pop\n      jump\t// out\n        /* \"#utility.yul\":3279:3418   */\n    tag_165:\n        /* \"#utility.yul\":3325:3330   */\n      0x00\n        /* \"#utility.yul\":3363:3369   */\n      dup2\n        /* \"#utility.yul\":3350:3370   */\n      calldataload\n        /* \"#utility.yul\":3341:3370   */\n      swap1\n      pop\n        /* \"#utility.yul\":3379:3412   */\n      tag_244\n        /* \"#utility.yul\":3406:3411   */\n      dup2\n        /* \"#utility.yul\":3379:3412   */\n      tag_164\n      jump\t// in\n    tag_244:\n        /* \"#utility.yul\":3279:3418   */\n      swap3\n      swap2\n      pop\n      pop\n      jump\t// out\n        /* \"#utility.yul\":3424:3501   */\n    tag_166:\n        /* \"#utility.yul\":3461:3468   */\n      0x00\n        /* \"#utility.yul\":3490:3495   */\n      dup2\n        /* \"#utility.yul\":3479:3495   */\n      swap1\n      pop\n        /* \"#utility.yul\":3424:3501   */\n      swap2\n      swap1\n      pop\n      jump\t// out\n        /* \"#utility.yul\":3507:3629   */\n    tag_167:\n        /* \"#utility.yul\":3580:3604   */\n      tag_247\n        /* \"#utility.yul\":3598:3603   */\n      dup2\n        /* \"#utility.yul\":3580:3604   */\n      tag_166\n      jump\t// in\n    tag_247:\n        /* \"#utility.yul\":3573:3578   */\n      dup2\n        /* \"#utility.yul\":3570:3605   */\n      eq\n        /* \"#utility.yul\":3560:3623   */\n      tag_248\n      jumpi\n        /* \"#utility.yul\":3619:3620   */\n      0x00\n        /* \"#utility.yul\":3616:3617   */\n      dup1\n        /* \"#utility.yul\":3609:3621   */\n      revert\n        /* \"#utility.yul\":3560:3623   */\n    tag_248:\n        /* \"#utility.yul\":3507:3629   */\n      pop\n      jump\t// out\n        /* \"#utility.yul\":3635:3774   */\n    tag_168:\n        /* \"#utility.yul\":3681:3686   */\n      0x00\n        /* \"#utility.yul\":3719:3725   */\n      dup2\n        /* \"#utility.yul\":3706:3726   */\n      calldataload\n        /* \"#utility.yul\":3697:3726   */\n      swap1\n      pop\n        /* \"#utility.yul\":3735:3768   */\n      tag_250\n        /* \"#utility.yul\":3762:3767   */\n      dup2\n        /* \"#utility.yul\":3735:3768   */\n      tag_167\n      jump\t// in\n    tag_250:\n        /* \"#utility.yul\":3635:3774   */\n      swap3\n      swap2\n      pop\n      pop\n      jump\t// out\n        /* \"#utility.yul\":3780:4254   */\n    tag_11:\n        /* \"#utility.yul\":3848:3854   */\n      0x00\n        /* \"#utility.yul\":3856:3862   */\n      dup1\n        /* \"#utility.yul\":3905:3907   */\n      0x40\n        /* \"#utility.yul\":3893:3902   */\n      dup4\n        /* \"#utility.yul\":3884:3891   */\n      dup6\n        /* \"#utility.yul\":3880:3903   */\n      sub\n        /* \"#utility.yul\":3876:3908   */\n      slt\n        /* \"#utility.yul\":3873:3992   */\n      iszero\n      tag_252\n      jumpi\n        /* \"#utility.yul\":3911:3990   */\n      tag_253\n      tag_151\n      jump\t// in\n    tag_253:\n        /* \"#utility.yul\":3873:3992   */\n    tag_252:\n        /* \"#utility.yul\":4031:4032   */\n      0x00\n        /* \"#utility.yul\":4056:4109   */\n      tag_254\n        /* \"#utility.yul\":4101:4108   */\n      dup6\n        /* \"#utility.yul\":4092:4098   */\n      dup3\n        /* \"#utility.yul\":4081:4090   */\n      dup7\n        /* \"#utility.yul\":4077:4099   */\n      add\n        /* \"#utility.yul\":4056:4109   */\n      tag_165\n      jump\t// in\n    tag_254:\n        /* \"#utility.yul\":4046:4109   */\n      swap3\n      pop\n        /* \"#utility.yul\":4002:4119   */\n      pop\n        /* \"#utility.yul\":4158:4160   */\n      0x20\n        /* \"#utility.yul\":4184:4237   */\n      tag_255\n        /* \"#utility.yul\":4229:4236   */\n      dup6\n        /* \"#utility.yul\":4220:4226   */\n      dup3\n        /* \"#utility.yul\":4209:4218   */\n      dup7\n        /* \"#utility.yul\":4205:4227   */\n      add\n        /* \"#utility.yul\":4184:4237   */\n      tag_168\n      jump\t// in\n    tag_255:\n        /* \"#utility.yul\":4174:4237   */\n      swap2\n      pop\n        /* \"#utility.yul\":4129:4247   */\n      pop\n        /* \"#utility.yul\":3780:4254   */\n      swap3\n      pop\n      swap3\n      swap1\n      pop\n      jump\t// out\n        /* \"#utility.yul\":4260:4429   */\n    tag_169:\n        /* \"#utility.yul\":4344:4355   */\n      0x00\n        /* \"#utility.yul\":4378:4384   */\n      dup3\n        /* \"#utility.yul\":4373:4376   */\n      dup3\n        /* \"#utility.yul\":4366:4385   */\n      mstore\n        /* \"#utility.yul\":4418:4422   */\n      0x20\n        /* \"#utility.yul\":4413:4416   */\n      dup3\n        /* \"#utility.yul\":4409:4423   */\n      add\n        /* \"#utility.yul\":4394:4423   */\n      swap1\n      pop\n        /* \"#utility.yul\":4260:4429   */\n      swap3\n      swap2\n      pop\n      pop\n      jump\t// out\n        /* \"#utility.yul\":4435:4662   */\n    tag_170:\n        /* \"#utility.yul\":4575:4609   */\n      0x536f75726365206d75737420626520746865206f7261636c65206f6620746865\n        /* \"#utility.yul\":4571:4572   */\n      0x00\n        /* \"#utility.yul\":4563:4569   */\n      dup3\n        /* \"#utility.yul\":4559:4573   */\n      add\n        /* \"#utility.yul\":4552:4610   */\n      mstore\n        /* \"#utility.yul\":4644:4654   */\n      0x2072657175657374000000000000000000000000000000000000000000000000\n        /* \"#utility.yul\":4639:4641   */\n      0x20\n        /* \"#utility.yul\":4631:4637   */\n      dup3\n        /* \"#utility.yul\":4627:4642   */\n      add\n        /* \"#utility.yul\":4620:4655   */\n      mstore\n        /* \"#utility.yul\":4435:4662   */\n      pop\n      jump\t// out\n        /* \"#utility.yul\":4668:5034   */\n    tag_171:\n        /* \"#utility.yul\":4810:4813   */\n      0x00\n        /* \"#utility.yul\":4831:4898   */\n      tag_259\n        /* \"#utility.yul\":4895:4897   */\n      0x28\n        /* \"#utility.yul\":4890:4893   */\n      dup4\n        /* \"#utility.yul\":4831:4898   */\n      tag_169\n      jump\t// in\n    tag_259:\n        /* \"#utility.yul\":4824:4898   */\n      swap2\n      pop\n        /* \"#utility.yul\":4907:5000   */\n      tag_260\n        /* \"#utility.yul\":4996:4999   */\n      dup3\n        /* \"#utility.yul\":4907:5000   */\n      tag_170\n      jump\t// in\n    tag_260:\n        /* \"#utility.yul\":5025:5027   */\n      0x40\n        /* \"#utility.yul\":5020:5023   */\n      dup3\n        /* \"#utility.yul\":5016:5028   */\n      add\n        /* \"#utility.yul\":5009:5028   */\n      swap1\n      pop\n        /* \"#utility.yul\":4668:5034   */\n      swap2\n      swap1\n      pop\n      jump\t// out\n        /* \"#utility.yul\":5040:5459   */\n    tag_24:\n        /* \"#utility.yul\":5206:5210   */\n      0x00\n        /* \"#utility.yul\":5244:5246   */\n      0x20\n        /* \"#utility.yul\":5233:5242   */\n      dup3\n        /* \"#utility.yul\":5229:5247   */\n      add\n        /* \"#utility.yul\":5221:5247   */\n      swap1\n      pop\n        /* \"#utility.yul\":5293:5302   */\n      dup2\n        /* \"#utility.yul\":5287:5291   */\n      dup2\n        /* \"#utility.yul\":5283:5303   */\n      sub\n        /* \"#utility.yul\":5279:5280   */\n      0x00\n        /* \"#utility.yul\":5268:5277   */\n      dup4\n        /* \"#utility.yul\":5264:5281   */\n      add\n        /* \"#utility.yul\":5257:5304   */\n      mstore\n        /* \"#utility.yul\":5321:5452   */\n      tag_262\n        /* \"#utility.yul\":5447:5451   */\n      dup2\n        /* \"#utility.yul\":5321:5452   */\n      tag_171\n      jump\t// in\n    tag_262:\n        /* \"#utility.yul\":5313:5452   */\n      swap1\n      pop\n        /* \"#utility.yul\":5040:5459   */\n      swap2\n      swap1\n      pop\n      jump\t// out\n        /* \"#utility.yul\":5465:5583   */\n    tag_172:\n        /* \"#utility.yul\":5552:5576   */\n      tag_264\n        /* \"#utility.yul\":5570:5575   */\n      dup2\n        /* \"#utility.yul\":5552:5576   */\n      tag_166\n      jump\t// in\n    tag_264:\n        /* \"#utility.yul\":5547:5550   */\n      dup3\n        /* \"#utility.yul\":5540:5577   */\n      mstore\n        /* \"#utility.yul\":5465:5583   */\n      pop\n      pop\n      jump\t// out\n        /* \"#utility.yul\":5589:5811   */\n    tag_27:\n        /* \"#utility.yul\":5682:5686   */\n      0x00\n        /* \"#utility.yul\":5720:5722   */\n      0x20\n        /* \"#utility.yul\":5709:5718   */\n      dup3\n        /* \"#utility.yul\":5705:5723   */\n      add\n        /* \"#utility.yul\":5697:5723   */\n      swap1\n      pop\n        /* \"#utility.yul\":5733:5804   */\n      tag_266\n        /* \"#utility.yul\":5801:5802   */\n      0x00\n        /* \"#utility.yul\":5790:5799   */\n      dup4\n        /* \"#utility.yul\":5786:5803   */\n      add\n        /* \"#utility.yul\":5777:5783   */\n      dup5\n        /* \"#utility.yul\":5733:5804   */\n      tag_172\n      jump\t// in\n    tag_266:\n        /* \"#utility.yul\":5589:5811   */\n      swap3\n      swap2\n      pop\n      pop\n      jump\t// out\n        /* \"#utility.yul\":5817:5997   */\n    tag_173:\n        /* \"#utility.yul\":5865:5942   */\n      0x4e487b7100000000000000000000000000000000000000000000000000000000\n        /* \"#utility.yul\":5862:5863   */\n      0x00\n        /* \"#utility.yul\":5855:5943   */\n      mstore\n        /* \"#utility.yul\":5962:5966   */\n      0x11\n        /* \"#utility.yul\":5959:5960   */\n      0x04\n        /* \"#utility.yul\":5952:5967   */\n      mstore\n        /* \"#utility.yul\":5986:5990   */\n      0x24\n        /* \"#utility.yul\":5983:5984   */\n      0x00\n        /* \"#utility.yul\":5976:5991   */\n      revert\n        /* \"#utility.yul\":6003:6194   */\n    tag_40:\n        /* \"#utility.yul\":6043:6046   */\n      0x00\n        /* \"#utility.yul\":6062:6082   */\n      tag_269\n        /* \"#utility.yul\":6080:6081   */\n      dup3\n        /* \"#utility.yul\":6062:6082   */\n      tag_166\n      jump\t// in\n    tag_269:\n        /* \"#utility.yul\":6057:6082   */\n      swap2\n      pop\n        /* \"#utility.yul\":6096:6116   */\n      tag_270\n        /* \"#utility.yul\":6114:6115   */\n      dup4\n        /* \"#utility.yul\":6096:6116   */\n      tag_166\n      jump\t// in\n    tag_270:\n        /* \"#utility.yul\":6091:6116   */\n      swap3\n      pop\n        /* \"#utility.yul\":6139:6140   */\n      dup3\n        /* \"#utility.yul\":6136:6137   */\n      dup3\n        /* \"#utility.yul\":6132:6141   */\n      add\n        /* \"#utility.yul\":6125:6141   */\n      swap1\n      pop\n        /* \"#utility.yul\":6160:6163   */\n      dup1\n        /* \"#utility.yul\":6157:6158   */\n      dup3\n        /* \"#utility.yul\":6154:6164   */\n      gt\n        /* \"#utility.yul\":6151:6187   */\n      iszero\n      tag_271\n      jumpi\n        /* \"#utility.yul\":6167:6185   */\n      tag_272\n      tag_173\n      jump\t// in\n    tag_272:\n        /* \"#utility.yul\":6151:6187   */\n    tag_271:\n        /* \"#utility.yul\":6003:6194   */\n      swap3\n      swap2\n      pop\n      pop\n      jump\t// out\n        /* \"#utility.yul\":6200:6326   */\n    tag_174:\n        /* \"#utility.yul\":6237:6244   */\n      0x00\n        /* \"#utility.yul\":6277:6319   */\n      0xffffffffffffffffffffffffffffffffffffffff\n        /* \"#utility.yul\":6270:6275   */\n      dup3\n        /* \"#utility.yul\":6266:6320   */\n      and\n        /* \"#utility.yul\":6255:6320   */\n      swap1\n      pop\n        /* \"#utility.yul\":6200:6326   */\n      swap2\n      swap1\n      pop\n      jump\t// out\n        /* \"#utility.yul\":6332:6428   */\n    tag_175:\n        /* \"#utility.yul\":6369:6376   */\n      0x00\n        /* \"#utility.yul\":6398:6422   */\n      tag_275\n        /* \"#utility.yul\":6416:6421   */\n      dup3\n        /* \"#utility.yul\":6398:6422   */\n      tag_174\n      jump\t// in\n    tag_275:\n        /* \"#utility.yul\":6387:6422   */\n      swap1\n      pop\n        /* \"#utility.yul\":6332:6428   */\n      swap2\n      swap1\n      pop\n      jump\t// out\n        /* \"#utility.yul\":6434:6552   */\n    tag_176:\n        /* \"#utility.yul\":6521:6545   */\n      tag_277\n        /* \"#utility.yul\":6539:6544   */\n      dup2\n        /* \"#utility.yul\":6521:6545   */\n      tag_175\n      jump\t// in\n    tag_277:\n        /* \"#utility.yul\":6516:6519   */\n      dup3\n        /* \"#utility.yul\":6509:6546   */\n      mstore\n        /* \"#utility.yul\":6434:6552   */\n      pop\n      pop\n      jump\t// out\n        /* \"#utility.yul\":6558:6676   */\n    tag_177:\n        /* \"#utility.yul\":6645:6669   */\n      tag_279\n        /* \"#utility.yul\":6663:6668   */\n      dup2\n        /* \"#utility.yul\":6645:6669   */\n      tag_163\n      jump\t// in\n    tag_279:\n        /* \"#utility.yul\":6640:6643   */\n      dup3\n        /* \"#utility.yul\":6633:6670   */\n      mstore\n        /* \"#utility.yul\":6558:6676   */\n      pop\n      pop\n      jump\t// out\n        /* \"#utility.yul\":6682:6831   */\n    tag_178:\n        /* \"#utility.yul\":6718:6725   */\n      0x00\n        /* \"#utility.yul\":6758:6824   */\n      0xffffffff00000000000000000000000000000000000000000000000000000000\n        /* \"#utility.yul\":6751:6756   */\n      dup3\n        /* \"#utility.yul\":6747:6825   */\n      and\n        /* \"#utility.yul\":6736:6825   */\n      swap1\n      pop\n        /* \"#utility.yul\":6682:6831   */\n      swap2\n      swap1\n      pop\n      jump\t// out\n        /* \"#utility.yul\":6837:6952   */\n    tag_179:\n        /* \"#utility.yul\":6922:6945   */\n      tag_282\n        /* \"#utility.yul\":6939:6944   */\n      dup2\n        /* \"#utility.yul\":6922:6945   */\n      tag_178\n      jump\t// in\n    tag_282:\n        /* \"#utility.yul\":6917:6920   */\n      dup3\n        /* \"#utility.yul\":6910:6946   */\n      mstore\n        /* \"#utility.yul\":6837:6952   */\n      pop\n      pop\n      jump\t// out\n        /* \"#utility.yul\":6958:7056   */\n    tag_180:\n        /* \"#utility.yul\":7009:7015   */\n      0x00\n        /* \"#utility.yul\":7043:7048   */\n      dup2\n        /* \"#utility.yul\":7037:7049   */\n      mload\n        /* \"#utility.yul\":7027:7049   */\n      swap1\n      pop\n        /* \"#utility.yul\":6958:7056   */\n      swap2\n      swap1\n      pop\n      jump\t// out\n        /* \"#utility.yul\":7062:7230   */\n    tag_181:\n        /* \"#utility.yul\":7145:7156   */\n      0x00\n        /* \"#utility.yul\":7179:7185   */\n      dup3\n        /* \"#utility.yul\":7174:7177   */\n      dup3\n        /* \"#utility.yul\":7167:7186   */\n      mstore\n        /* \"#utility.yul\":7219:7223   */\n      0x20\n        /* \"#utility.yul\":7214:7217   */\n      dup3\n        /* \"#utility.yul\":7210:7224   */\n      add\n        /* \"#utility.yul\":7195:7224   */\n      swap1\n      pop\n        /* \"#utility.yul\":7062:7230   */\n      swap3\n      swap2\n      pop\n      pop\n      jump\t// out\n        /* \"#utility.yul\":7236:7482   */\n    tag_182:\n        /* \"#utility.yul\":7317:7318   */\n      0x00\n        /* \"#utility.yul\":7327:7440   */\n    tag_286:\n        /* \"#utility.yul\":7341:7347   */\n      dup4\n        /* \"#utility.yul\":7338:7339   */\n      dup2\n        /* \"#utility.yul\":7335:7348   */\n      lt\n        /* \"#utility.yul\":7327:7440   */\n      iszero\n      tag_288\n      jumpi\n        /* \"#utility.yul\":7426:7427   */\n      dup1\n        /* \"#utility.yul\":7421:7424   */\n      dup3\n        /* \"#utility.yul\":7417:7428   */\n      add\n        /* \"#utility.yul\":7411:7429   */\n      mload\n        /* \"#utility.yul\":7407:7408   */\n      dup2\n        /* \"#utility.yul\":7402:7405   */\n      dup5\n        /* \"#utility.yul\":7398:7409   */\n      add\n        /* \"#utility.yul\":7391:7430   */\n      mstore\n        /* \"#utility.yul\":7363:7365   */\n      0x20\n        /* \"#utility.yul\":7360:7361   */\n      dup2\n        /* \"#utility.yul\":7356:7366   */\n      add\n        /* \"#utility.yul\":7351:7366   */\n      swap1\n      pop\n        /* \"#utility.yul\":7327:7440   */\n      jump(tag_286)\n    tag_288:\n        /* \"#utility.yul\":7474:7475   */\n      0x00\n        /* \"#utility.yul\":7465:7471   */\n      dup5\n        /* \"#utility.yul\":7460:7463   */\n      dup5\n        /* \"#utility.yul\":7456:7472   */\n      add\n        /* \"#utility.yul\":7449:7476   */\n      mstore\n        /* \"#utility.yul\":7298:7482   */\n      pop\n        /* \"#utility.yul\":7236:7482   */\n      pop\n      pop\n      pop\n      jump\t// out\n        /* \"#utility.yul\":7488:7861   */\n    tag_183:\n        /* \"#utility.yul\":7574:7577   */\n      0x00\n        /* \"#utility.yul\":7602:7640   */\n      tag_290\n        /* \"#utility.yul\":7634:7639   */\n      dup3\n        /* \"#utility.yul\":7602:7640   */\n      tag_180\n      jump\t// in\n    tag_290:\n        /* \"#utility.yul\":7656:7726   */\n      tag_291\n        /* \"#utility.yul\":7719:7725   */\n      dup2\n        /* \"#utility.yul\":7714:7717   */\n      dup6\n        /* \"#utility.yul\":7656:7726   */\n      tag_181\n      jump\t// in\n    tag_291:\n        /* \"#utility.yul\":7649:7726   */\n      swap4\n      pop\n        /* \"#utility.yul\":7735:7800   */\n      tag_292\n        /* \"#utility.yul\":7793:7799   */\n      dup2\n        /* \"#utility.yul\":7788:7791   */\n      dup6\n        /* \"#utility.yul\":7781:7785   */\n      0x20\n        /* \"#utility.yul\":7774:7779   */\n      dup7\n        /* \"#utility.yul\":7770:7786   */\n      add\n        /* \"#utility.yul\":7735:7800   */\n      tag_182\n      jump\t// in\n    tag_292:\n        /* \"#utility.yul\":7825:7854   */\n      tag_293\n        /* \"#utility.yul\":7847:7853   */\n      dup2\n        /* \"#utility.yul\":7825:7854   */\n      tag_155\n      jump\t// in\n    tag_293:\n        /* \"#utility.yul\":7820:7823   */\n      dup5\n        /* \"#utility.yul\":7816:7855   */\n      add\n        /* \"#utility.yul\":7809:7855   */\n      swap2\n      pop\n        /* \"#utility.yul\":7578:7861   */\n      pop\n        /* \"#utility.yul\":7488:7861   */\n      swap3\n      swap2\n      pop\n      pop\n      jump\t// out\n        /* \"#utility.yul\":7867:8947   */\n    tag_42:\n        /* \"#utility.yul\":8172:8176   */\n      0x00\n        /* \"#utility.yul\":8210:8213   */\n      0x0100\n        /* \"#utility.yul\":8199:8208   */\n      dup3\n        /* \"#utility.yul\":8195:8214   */\n      add\n        /* \"#utility.yul\":8187:8214   */\n      swap1\n      pop\n        /* \"#utility.yul\":8224:8295   */\n      tag_295\n        /* \"#utility.yul\":8292:8293   */\n      0x00\n        /* \"#utility.yul\":8281:8290   */\n      dup4\n        /* \"#utility.yul\":8277:8294   */\n      add\n        /* \"#utility.yul\":8268:8274   */\n      dup12\n        /* \"#utility.yul\":8224:8295   */\n      tag_176\n      jump\t// in\n    tag_295:\n        /* \"#utility.yul\":8305:8377   */\n      tag_296\n        /* \"#utility.yul\":8373:8375   */\n      0x20\n        /* \"#utility.yul\":8362:8371   */\n      dup4\n        /* \"#utility.yul\":8358:8376   */\n      add\n        /* \"#utility.yul\":8349:8355   */\n      dup11\n        /* \"#utility.yul\":8305:8377   */\n      tag_172\n      jump\t// in\n    tag_296:\n        /* \"#utility.yul\":8387:8459   */\n      tag_297\n        /* \"#utility.yul\":8455:8457   */\n      0x40\n        /* \"#utility.yul\":8444:8453   */\n      dup4\n        /* \"#utility.yul\":8440:8458   */\n      add\n        /* \"#utility.yul\":8431:8437   */\n      dup10\n        /* \"#utility.yul\":8387:8459   */\n      tag_177\n      jump\t// in\n    tag_297:\n        /* \"#utility.yul\":8469:8541   */\n      tag_298\n        /* \"#utility.yul\":8537:8539   */\n      0x60\n        /* \"#utility.yul\":8526:8535   */\n      dup4\n        /* \"#utility.yul\":8522:8540   */\n      add\n        /* \"#utility.yul\":8513:8519   */\n      dup9\n        /* \"#utility.yul\":8469:8541   */\n      tag_176\n      jump\t// in\n    tag_298:\n        /* \"#utility.yul\":8551:8622   */\n      tag_299\n        /* \"#utility.yul\":8617:8620   */\n      0x80\n        /* \"#utility.yul\":8606:8615   */\n      dup4\n        /* \"#utility.yul\":8602:8621   */\n      add\n        /* \"#utility.yul\":8593:8599   */\n      dup8\n        /* \"#utility.yul\":8551:8622   */\n      tag_179\n      jump\t// in\n    tag_299:\n        /* \"#utility.yul\":8632:8705   */\n      tag_300\n        /* \"#utility.yul\":8700:8703   */\n      0xa0\n        /* \"#utility.yul\":8689:8698   */\n      dup4\n        /* \"#utility.yul\":8685:8704   */\n      add\n        /* \"#utility.yul\":8676:8682   */\n      dup7\n        /* \"#utility.yul\":8632:8705   */\n      tag_172\n      jump\t// in\n    tag_300:\n        /* \"#utility.yul\":8715:8788   */\n      tag_301\n        /* \"#utility.yul\":8783:8786   */\n      0xc0\n        /* \"#utility.yul\":8772:8781   */\n      dup4\n        /* \"#utility.yul\":8768:8787   */\n      add\n        /* \"#utility.yul\":8759:8765   */\n      dup6\n        /* \"#utility.yul\":8715:8788   */\n      tag_172\n      jump\t// in\n    tag_301:\n        /* \"#utility.yul\":8836:8845   */\n      dup2\n        /* \"#utility.yul\":8830:8834   */\n      dup2\n        /* \"#utility.yul\":8826:8846   */\n      sub\n        /* \"#utility.yul\":8820:8823   */\n      0xe0\n        /* \"#utility.yul\":8809:8818   */\n      dup4\n        /* \"#utility.yul\":8805:8824   */\n      add\n        /* \"#utility.yul\":8798:8847   */\n      mstore\n        /* \"#utility.yul\":8864:8940   */\n      tag_302\n        /* \"#utility.yul\":8935:8939   */\n      dup2\n        /* \"#utility.yul\":8926:8932   */\n      dup5\n        /* \"#utility.yul\":8864:8940   */\n      tag_183\n      jump\t// in\n    tag_302:\n        /* \"#utility.yul\":8856:8940   */\n      swap1\n      pop\n        /* \"#utility.yul\":7867:8947   */\n      swap10\n      swap9\n      pop\n      pop\n      pop\n      pop\n      pop\n      pop\n      pop\n      pop\n      pop\n      jump\t// out\n        /* \"#utility.yul\":8953:9013   */\n    tag_184:\n        /* \"#utility.yul\":8981:8984   */\n      0x00\n        /* \"#utility.yul\":9002:9007   */\n      dup2\n        /* \"#utility.yul\":8995:9007   */\n      swap1\n      pop\n        /* \"#utility.yul\":8953:9013   */\n      swap2\n      swap1\n      pop\n      jump\t// out\n        /* \"#utility.yul\":9019:9161   */\n    tag_185:\n        /* \"#utility.yul\":9069:9078   */\n      0x00\n        /* \"#utility.yul\":9102:9155   */\n      tag_305\n        /* \"#utility.yul\":9120:9154   */\n      tag_306\n        /* \"#utility.yul\":9129:9153   */\n      tag_307\n        /* \"#utility.yul\":9147:9152   */\n      dup5\n        /* \"#utility.yul\":9129:9153   */\n      tag_174\n      jump\t// in\n    tag_307:\n        /* \"#utility.yul\":9120:9154   */\n      tag_184\n      jump\t// in\n    tag_306:\n        /* \"#utility.yul\":9102:9155   */\n      tag_174\n      jump\t// in\n    tag_305:\n        /* \"#utility.yul\":9089:9155   */\n      swap1\n      pop\n        /* \"#utility.yul\":9019:9161   */\n      swap2\n      swap1\n      pop\n      jump\t// out\n        /* \"#utility.yul\":9167:9293   */\n    tag_186:\n        /* \"#utility.yul\":9217:9226   */\n      0x00\n        /* \"#utility.yul\":9250:9287   */\n      tag_309\n        /* \"#utility.yul\":9281:9286   */\n      dup3\n        /* \"#utility.yul\":9250:9287   */\n      tag_185\n      jump\t// in\n    tag_309:\n        /* \"#utility.yul\":9237:9287   */\n      swap1\n      pop\n        /* \"#utility.yul\":9167:9293   */\n      swap2\n      swap1\n      pop\n      jump\t// out\n        /* \"#utility.yul\":9299:9448   */\n    tag_187:\n        /* \"#utility.yul\":9372:9381   */\n      0x00\n        /* \"#utility.yul\":9405:9442   */\n      tag_311\n        /* \"#utility.yul\":9436:9441   */\n      dup3\n        /* \"#utility.yul\":9405:9442   */\n      tag_186\n      jump\t// in\n    tag_311:\n        /* \"#utility.yul\":9392:9442   */\n      swap1\n      pop\n        /* \"#utility.yul\":9299:9448   */\n      swap2\n      swap1\n      pop\n      jump\t// out\n        /* \"#utility.yul\":9454:9548   */\n    tag_188:\n        /* \"#utility.yul\":9487:9495   */\n      0x00\n        /* \"#utility.yul\":9535:9540   */\n      dup2\n        /* \"#utility.yul\":9531:9533   */\n      0x60\n        /* \"#utility.yul\":9527:9541   */\n      shl\n        /* \"#utility.yul\":9506:9541   */\n      swap1\n      pop\n        /* \"#utility.yul\":9454:9548   */\n      swap2\n      swap1\n      pop\n      jump\t// out\n        /* \"#utility.yul\":9554:9648   */\n    tag_189:\n        /* \"#utility.yul\":9593:9600   */\n      0x00\n        /* \"#utility.yul\":9622:9642   */\n      tag_314\n        /* \"#utility.yul\":9636:9641   */\n      dup3\n        /* \"#utility.yul\":9622:9642   */\n      tag_188\n      jump\t// in\n    tag_314:\n        /* \"#utility.yul\":9611:9642   */\n      swap1\n      pop\n        /* \"#utility.yul\":9554:9648   */\n      swap2\n      swap1\n      pop\n      jump\t// out\n        /* \"#utility.yul\":9654:9754   */\n    tag_190:\n        /* \"#utility.yul\":9693:9700   */\n      0x00\n        /* \"#utility.yul\":9722:9748   */\n      tag_316\n        /* \"#utility.yul\":9742:9747   */\n      dup3\n        /* \"#utility.yul\":9722:9748   */\n      tag_189\n      jump\t// in\n    tag_316:\n        /* \"#utility.yul\":9711:9748   */\n      swap1\n      pop\n        /* \"#utility.yul\":9654:9754   */\n      swap2\n      swap1\n      pop\n      jump\t// out\n        /* \"#utility.yul\":9760:9976   */\n    tag_191:\n        /* \"#utility.yul\":9888:9969   */\n      tag_318\n        /* \"#utility.yul\":9908:9968   */\n      tag_319\n        /* \"#utility.yul\":9962:9967   */\n      dup3\n        /* \"#utility.yul\":9908:9968   */\n      tag_187\n      jump\t// in\n    tag_319:\n        /* \"#utility.yul\":9888:9969   */\n      tag_190\n      jump\t// in\n    tag_318:\n        /* \"#utility.yul\":9883:9886   */\n      dup3\n        /* \"#utility.yul\":9876:9970   */\n      mstore\n        /* \"#utility.yul\":9760:9976   */\n      pop\n      pop\n      jump\t// out\n        /* \"#utility.yul\":9982:10061   */\n    tag_192:\n        /* \"#utility.yul\":10021:10028   */\n      0x00\n        /* \"#utility.yul\":10050:10055   */\n      dup2\n        /* \"#utility.yul\":10039:10055   */\n      swap1\n      pop\n        /* \"#utility.yul\":9982:10061   */\n      swap2\n      swap1\n      pop\n      jump\t// out\n        /* \"#utility.yul\":10067:10224   */\n    tag_193:\n        /* \"#utility.yul\":10172:10217   */\n      tag_322\n        /* \"#utility.yul\":10192:10216   */\n      tag_323\n        /* \"#utility.yul\":10210:10215   */\n      dup3\n        /* \"#utility.yul\":10192:10216   */\n      tag_166\n      jump\t// in\n    tag_323:\n        /* \"#utility.yul\":10172:10217   */\n      tag_192\n      jump\t// in\n    tag_322:\n        /* \"#utility.yul\":10167:10170   */\n      dup3\n        /* \"#utility.yul\":10160:10218   */\n      mstore\n        /* \"#utility.yul\":10067:10224   */\n      pop\n      pop\n      jump\t// out\n        /* \"#utility.yul\":10230:10673   */\n    tag_56:\n        /* \"#utility.yul\":10393:10396   */\n      0x00\n        /* \"#utility.yul\":10408:10506   */\n      tag_325\n        /* \"#utility.yul\":10502:10505   */\n      dup3\n        /* \"#utility.yul\":10493:10499   */\n      dup6\n        /* \"#utility.yul\":10408:10506   */\n      tag_191\n      jump\t// in\n    tag_325:\n        /* \"#utility.yul\":10531:10533   */\n      0x14\n        /* \"#utility.yul\":10526:10529   */\n      dup3\n        /* \"#utility.yul\":10522:10534   */\n      add\n        /* \"#utility.yul\":10515:10534   */\n      swap2\n      pop\n        /* \"#utility.yul\":10544:10619   */\n      tag_326\n        /* \"#utility.yul\":10615:10618   */\n      dup3\n        /* \"#utility.yul\":10606:10612   */\n      dup5\n        /* \"#utility.yul\":10544:10619   */\n      tag_193\n      jump\t// in\n    tag_326:\n        /* \"#utility.yul\":10644:10646   */\n      0x20\n        /* \"#utility.yul\":10639:10642   */\n      dup3\n        /* \"#utility.yul\":10635:10647   */\n      add\n        /* \"#utility.yul\":10628:10647   */\n      swap2\n      pop\n        /* \"#utility.yul\":10664:10667   */\n      dup2\n        /* \"#utility.yul\":10657:10667   */\n      swap1\n      pop\n        /* \"#utility.yul\":10230:10673   */\n      swap4\n      swap3\n      pop\n      pop\n      pop\n      jump\t// out\n        /* \"#utility.yul\":10679:11208   */\n    tag_58:\n        /* \"#utility.yul\":10846:10850   */\n      0x00\n        /* \"#utility.yul\":10884:10886   */\n      0x60\n        /* \"#utility.yul\":10873:10882   */\n      dup3\n        /* \"#utility.yul\":10869:10887   */\n      add\n        /* \"#utility.yul\":10861:10887   */\n      swap1\n      pop\n        /* \"#utility.yul\":10897:10968   */\n      tag_328\n        /* \"#utility.yul\":10965:10966   */\n      0x00\n        /* \"#utility.yul\":10954:10963   */\n      dup4\n        /* \"#utility.yul\":10950:10967   */\n      add\n        /* \"#utility.yul\":10941:10947   */\n      dup7\n        /* \"#utility.yul\":10897:10968   */\n      tag_176\n      jump\t// in\n    tag_328:\n        /* \"#utility.yul\":10978:11050   */\n      tag_329\n        /* \"#utility.yul\":11046:11048   */\n      0x20\n        /* \"#utility.yul\":11035:11044   */\n      dup4\n        /* \"#utility.yul\":11031:11049   */\n      add\n        /* \"#utility.yul\":11022:11028   */\n      dup6\n        /* \"#utility.yul\":10978:11050   */\n      tag_172\n      jump\t// in\n    tag_329:\n        /* \"#utility.yul\":11097:11106   */\n      dup2\n        /* \"#utility.yul\":11091:11095   */\n      dup2\n        /* \"#utility.yul\":11087:11107   */\n      sub\n        /* \"#utility.yul\":11082:11084   */\n      0x40\n        /* \"#utility.yul\":11071:11080   */\n      dup4\n        /* \"#utility.yul\":11067:11085   */\n      add\n        /* \"#utility.yul\":11060:11108   */\n      mstore\n        /* \"#utility.yul\":11125:11201   */\n      tag_330\n        /* \"#utility.yul\":11196:11200   */\n      dup2\n        /* \"#utility.yul\":11187:11193   */\n      dup5\n        /* \"#utility.yul\":11125:11201   */\n      tag_183\n      jump\t// in\n    tag_330:\n        /* \"#utility.yul\":11117:11201   */\n      swap1\n      pop\n        /* \"#utility.yul\":10679:11208   */\n      swap5\n      swap4\n      pop\n      pop\n      pop\n      pop\n      jump\t// out\n        /* \"#utility.yul\":11214:11304   */\n    tag_194:\n        /* \"#utility.yul\":11248:11255   */\n      0x00\n        /* \"#utility.yul\":11291:11296   */\n      dup2\n        /* \"#utility.yul\":11284:11297   */\n      iszero\n        /* \"#utility.yul\":11277:11298   */\n      iszero\n        /* \"#utility.yul\":11266:11298   */\n      swap1\n      pop\n        /* \"#utility.yul\":11214:11304   */\n      swap2\n      swap1\n      pop\n      jump\t// out\n        /* \"#utility.yul\":11310:11426   */\n    tag_195:\n        /* \"#utility.yul\":11380:11401   */\n      tag_333\n        /* \"#utility.yul\":11395:11400   */\n      dup2\n        /* \"#utility.yul\":11380:11401   */\n      tag_194\n      jump\t// in\n    tag_333:\n        /* \"#utility.yul\":11373:11378   */\n      dup2\n        /* \"#utility.yul\":11370:11402   */\n      eq\n        /* \"#utility.yul\":11360:11420   */\n      tag_334\n      jumpi\n        /* \"#utility.yul\":11416:11417   */\n      0x00\n        /* \"#utility.yul\":11413:11414   */\n      dup1\n        /* \"#utility.yul\":11406:11418   */\n      revert\n        /* \"#utility.yul\":11360:11420   */\n    tag_334:\n        /* \"#utility.yul\":11310:11426   */\n      pop\n      jump\t// out\n        /* \"#utility.yul\":11432:11569   */\n    tag_196:\n        /* \"#utility.yul\":11486:11491   */\n      0x00\n        /* \"#utility.yul\":11517:11523   */\n      dup2\n        /* \"#utility.yul\":11511:11524   */\n      mload\n        /* \"#utility.yul\":11502:11524   */\n      swap1\n      pop\n        /* \"#utility.yul\":11533:11563   */\n      tag_336\n        /* \"#utility.yul\":11557:11562   */\n      dup2\n        /* \"#utility.yul\":11533:11563   */\n      tag_195\n      jump\t// in\n    tag_336:\n        /* \"#utility.yul\":11432:11569   */\n      swap3\n      swap2\n      pop\n      pop\n      jump\t// out\n        /* \"#utility.yul\":11575:11920   */\n    tag_62:\n        /* \"#utility.yul\":11642:11648   */\n      0x00\n        /* \"#utility.yul\":11691:11693   */\n      0x20\n        /* \"#utility.yul\":11679:11688   */\n      dup3\n        /* \"#utility.yul\":11670:11677   */\n      dup5\n        /* \"#utility.yul\":11666:11689   */\n      sub\n        /* \"#utility.yul\":11662:11694   */\n      slt\n        /* \"#utility.yul\":11659:11778   */\n      iszero\n      tag_338\n      jumpi\n        /* \"#utility.yul\":11697:11776   */\n      tag_339\n      tag_151\n      jump\t// in\n    tag_339:\n        /* \"#utility.yul\":11659:11778   */\n    tag_338:\n        /* \"#utility.yul\":11817:11818   */\n      0x00\n        /* \"#utility.yul\":11842:11903   */\n      tag_340\n        /* \"#utility.yul\":11895:11902   */\n      dup5\n        /* \"#utility.yul\":11886:11892   */\n      dup3\n        /* \"#utility.yul\":11875:11884   */\n      dup6\n        /* \"#utility.yul\":11871:11893   */\n      add\n        /* \"#utility.yul\":11842:11903   */\n      tag_196\n      jump\t// in\n    tag_340:\n        /* \"#utility.yul\":11832:11903   */\n      swap2\n      pop\n        /* \"#utility.yul\":11788:11913   */\n      pop\n        /* \"#utility.yul\":11575:11920   */\n      swap3\n      swap2\n      pop\n      pop\n      jump\t// out\n        /* \"#utility.yul\":11926:12148   */\n    tag_197:\n        /* \"#utility.yul\":12066:12100   */\n      0x756e61626c6520746f207472616e73666572416e6443616c6c20746f206f7261\n        /* \"#utility.yul\":12062:12063   */\n      0x00\n        /* \"#utility.yul\":12054:12060   */\n      dup3\n        /* \"#utility.yul\":12050:12064   */\n      add\n        /* \"#utility.yul\":12043:12101   */\n      mstore\n        /* \"#utility.yul\":12135:12140   */\n      0x636c650000000000000000000000000000000000000000000000000000000000\n        /* \"#utility.yul\":12130:12132   */\n      0x20\n        /* \"#utility.yul\":12122:12128   */\n      dup3\n        /* \"#utility.yul\":12118:12133   */\n      add\n        /* \"#utility.yul\":12111:12141   */\n      mstore\n        /* \"#utility.yul\":11926:12148   */\n      pop\n      jump\t// out\n        /* \"#utility.yul\":12154:12520   */\n    tag_198:\n        /* \"#utility.yul\":12296:12299   */\n      0x00\n        /* \"#utility.yul\":12317:12384   */\n      tag_343\n        /* \"#utility.yul\":12381:12383   */\n      0x23\n        /* \"#utility.yul\":12376:12379   */\n      dup4\n        /* \"#utility.yul\":12317:12384   */\n      tag_169\n      jump\t// in\n    tag_343:\n        /* \"#utility.yul\":12310:12384   */\n      swap2\n      pop\n        /* \"#utility.yul\":12393:12486   */\n      tag_344\n        /* \"#utility.yul\":12482:12485   */\n      dup3\n        /* \"#utility.yul\":12393:12486   */\n      tag_197\n      jump\t// in\n    tag_344:\n        /* \"#utility.yul\":12511:12513   */\n      0x40\n        /* \"#utility.yul\":12506:12509   */\n      dup3\n        /* \"#utility.yul\":12502:12514   */\n      add\n        /* \"#utility.yul\":12495:12514   */\n      swap1\n      pop\n        /* \"#utility.yul\":12154:12520   */\n      swap2\n      swap1\n      pop\n      jump\t// out\n        /* \"#utility.yul\":12526:12945   */\n    tag_65:\n        /* \"#utility.yul\":12692:12696   */\n      0x00\n        /* \"#utility.yul\":12730:12732   */\n      0x20\n        /* \"#utility.yul\":12719:12728   */\n      dup3\n        /* \"#utility.yul\":12715:12733   */\n      add\n        /* \"#utility.yul\":12707:12733   */\n      swap1\n      pop\n        /* \"#utility.yul\":12779:12788   */\n      dup2\n        /* \"#utility.yul\":12773:12777   */\n      dup2\n        /* \"#utility.yul\":12769:12789   */\n      sub\n        /* \"#utility.yul\":12765:12766   */\n      0x00\n        /* \"#utility.yul\":12754:12763   */\n      dup4\n        /* \"#utility.yul\":12750:12767   */\n      add\n        /* \"#utility.yul\":12743:12790   */\n      mstore\n        /* \"#utility.yul\":12807:12938   */\n      tag_346\n        /* \"#utility.yul\":12933:12937   */\n      dup2\n        /* \"#utility.yul\":12807:12938   */\n      tag_198\n      jump\t// in\n    tag_346:\n        /* \"#utility.yul\":12799:12938   */\n      swap1\n      pop\n        /* \"#utility.yul\":12526:12945   */\n      swap2\n      swap1\n      pop\n      jump\t// out\n        /* \"#utility.yul\":12951:13131   */\n    tag_199:\n        /* \"#utility.yul\":12999:13076   */\n      0x4e487b7100000000000000000000000000000000000000000000000000000000\n        /* \"#utility.yul\":12996:12997   */\n      0x00\n        /* \"#utility.yul\":12989:13077   */\n      mstore\n        /* \"#utility.yul\":13096:13100   */\n      0x12\n        /* \"#utility.yul\":13093:13094   */\n      0x04\n        /* \"#utility.yul\":13086:13101   */\n      mstore\n        /* \"#utility.yul\":13120:13124   */\n      0x24\n        /* \"#utility.yul\":13117:13118   */\n      0x00\n        /* \"#utility.yul\":13110:13125   */\n      revert\n        /* \"#utility.yul\":13137:13313   */\n    tag_70:\n        /* \"#utility.yul\":13169:13170   */\n      0x00\n        /* \"#utility.yul\":13186:13206   */\n      tag_349\n        /* \"#utility.yul\":13204:13205   */\n      dup3\n        /* \"#utility.yul\":13186:13206   */\n      tag_166\n      jump\t// in\n    tag_349:\n        /* \"#utility.yul\":13181:13206   */\n      swap2\n      pop\n        /* \"#utility.yul\":13220:13240   */\n      tag_350\n        /* \"#utility.yul\":13238:13239   */\n      dup4\n        /* \"#utility.yul\":13220:13240   */\n      tag_166\n      jump\t// in\n    tag_350:\n        /* \"#utility.yul\":13215:13240   */\n      swap3\n      pop\n        /* \"#utility.yul\":13259:13260   */\n      dup3\n        /* \"#utility.yul\":13249:13284   */\n      tag_351\n      jumpi\n        /* \"#utility.yul\":13264:13282   */\n      tag_352\n      tag_199\n      jump\t// in\n    tag_352:\n        /* \"#utility.yul\":13249:13284   */\n    tag_351:\n        /* \"#utility.yul\":13305:13306   */\n      dup3\n        /* \"#utility.yul\":13302:13303   */\n      dup3\n        /* \"#utility.yul\":13298:13307   */\n      mod\n        /* \"#utility.yul\":13293:13307   */\n      swap1\n      pop\n        /* \"#utility.yul\":13137:13313   */\n      swap3\n      swap2\n      pop\n      pop\n      jump\t// out\n        /* \"#utility.yul\":13319:13513   */\n    tag_74:\n        /* \"#utility.yul\":13359:13363   */\n      0x00\n        /* \"#utility.yul\":13379:13399   */\n      tag_354\n        /* \"#utility.yul\":13397:13398   */\n      dup3\n        /* \"#utility.yul\":13379:13399   */\n      tag_166\n      jump\t// in\n    tag_354:\n        /* \"#utility.yul\":13374:13399   */\n      swap2\n      pop\n        /* \"#utility.yul\":13413:13433   */\n      tag_355\n        /* \"#utility.yul\":13431:13432   */\n      dup4\n        /* \"#utility.yul\":13413:13433   */\n      tag_166\n      jump\t// in\n    tag_355:\n        /* \"#utility.yul\":13408:13433   */\n      swap3\n      pop\n        /* \"#utility.yul\":13457:13458   */\n      dup3\n        /* \"#utility.yul\":13454:13455   */\n      dup3\n        /* \"#utility.yul\":13450:13459   */\n      sub\n        /* \"#utility.yul\":13442:13459   */\n      swap1\n      pop\n        /* \"#utility.yul\":13481:13482   */\n      dup2\n        /* \"#utility.yul\":13475:13479   */\n      dup2\n        /* \"#utility.yul\":13472:13483   */\n      gt\n        /* \"#utility.yul\":13469:13506   */\n      iszero\n      tag_356\n      jumpi\n        /* \"#utility.yul\":13486:13504   */\n      tag_357\n      tag_173\n      jump\t// in\n    tag_357:\n        /* \"#utility.yul\":13469:13506   */\n    tag_356:\n        /* \"#utility.yul\":13319:13513   */\n      swap3\n      swap2\n      pop\n      pop\n      jump\t// out\n        /* \"#utility.yul\":13519:13929   */\n    tag_118:\n        /* \"#utility.yul\":13559:13566   */\n      0x00\n        /* \"#utility.yul\":13582:13602   */\n      tag_359\n        /* \"#utility.yul\":13600:13601   */\n      dup3\n        /* \"#utility.yul\":13582:13602   */\n      tag_166\n      jump\t// in\n    tag_359:\n        /* \"#utility.yul\":13577:13602   */\n      swap2\n      pop\n        /* \"#utility.yul\":13616:13636   */\n      tag_360\n        /* \"#utility.yul\":13634:13635   */\n      dup4\n        /* \"#utility.yul\":13616:13636   */\n      tag_166\n      jump\t// in\n    tag_360:\n        /* \"#utility.yul\":13611:13636   */\n      swap3\n      pop\n        /* \"#utility.yul\":13671:13672   */\n      dup3\n        /* \"#utility.yul\":13668:13669   */\n      dup3\n        /* \"#utility.yul\":13664:13673   */\n      mul\n        /* \"#utility.yul\":13693:13723   */\n      tag_361\n        /* \"#utility.yul\":13711:13722   */\n      dup2\n        /* \"#utility.yul\":13693:13723   */\n      tag_166\n      jump\t// in\n    tag_361:\n        /* \"#utility.yul\":13682:13723   */\n      swap2\n      pop\n        /* \"#utility.yul\":13872:13873   */\n      dup3\n        /* \"#utility.yul\":13863:13870   */\n      dup3\n        /* \"#utility.yul\":13859:13874   */\n      div\n        /* \"#utility.yul\":13856:13857   */\n      dup5\n        /* \"#utility.yul\":13853:13875   */\n      eq\n        /* \"#utility.yul\":13833:13834   */\n      dup4\n        /* \"#utility.yul\":13826:13835   */\n      iszero\n        /* \"#utility.yul\":13806:13889   */\n      or\n        /* \"#utility.yul\":13783:13922   */\n      tag_362\n      jumpi\n        /* \"#utility.yul\":13902:13920   */\n      tag_363\n      tag_173\n      jump\t// in\n    tag_363:\n        /* \"#utility.yul\":13783:13922   */\n    tag_362:\n        /* \"#utility.yul\":13567:13929   */\n      pop\n        /* \"#utility.yul\":13519:13929   */\n      swap3\n      swap2\n      pop\n      pop\n      jump\t// out\n        /* \"#utility.yul\":13935:14037   */\n    tag_200:\n        /* \"#utility.yul\":13977:13985   */\n      0x00\n        /* \"#utility.yul\":14024:14029   */\n      dup2\n        /* \"#utility.yul\":14021:14022   */\n      0x01\n        /* \"#utility.yul\":14017:14030   */\n      shr\n        /* \"#utility.yul\":13996:14030   */\n      swap1\n      pop\n        /* \"#utility.yul\":13935:14037   */\n      swap2\n      swap1\n      pop\n      jump\t// out\n        /* \"#utility.yul\":14043:14891   */\n    tag_201:\n        /* \"#utility.yul\":14104:14109   */\n      0x00\n        /* \"#utility.yul\":14111:14115   */\n      dup1\n        /* \"#utility.yul\":14135:14141   */\n      dup3\n        /* \"#utility.yul\":14126:14141   */\n      swap2\n      pop\n        /* \"#utility.yul\":14159:14164   */\n      dup4\n        /* \"#utility.yul\":14150:14164   */\n      swap1\n      pop\n        /* \"#utility.yul\":14173:14885   */\n    tag_366:\n        /* \"#utility.yul\":14194:14195   */\n      0x01\n        /* \"#utility.yul\":14184:14192   */\n      dup6\n        /* \"#utility.yul\":14181:14196   */\n      gt\n        /* \"#utility.yul\":14173:14885   */\n      iszero\n      tag_368\n      jumpi\n        /* \"#utility.yul\":14289:14293   */\n      dup1\n        /* \"#utility.yul\":14284:14287   */\n      dup7\n        /* \"#utility.yul\":14280:14294   */\n      div\n        /* \"#utility.yul\":14274:14278   */\n      dup2\n        /* \"#utility.yul\":14271:14295   */\n      gt\n        /* \"#utility.yul\":14268:14318   */\n      iszero\n      tag_369\n      jumpi\n        /* \"#utility.yul\":14298:14316   */\n      tag_370\n      tag_173\n      jump\t// in\n    tag_370:\n        /* \"#utility.yul\":14268:14318   */\n    tag_369:\n        /* \"#utility.yul\":14348:14349   */\n      0x01\n        /* \"#utility.yul\":14338:14346   */\n      dup6\n        /* \"#utility.yul\":14334:14350   */\n      and\n        /* \"#utility.yul\":14331:14782   */\n      iszero\n      tag_371\n      jumpi\n        /* \"#utility.yul\":14763:14767   */\n      dup1\n        /* \"#utility.yul\":14756:14761   */\n      dup3\n        /* \"#utility.yul\":14752:14768   */\n      mul\n        /* \"#utility.yul\":14743:14768   */\n      swap2\n      pop\n        /* \"#utility.yul\":14331:14782   */\n    tag_371:\n        /* \"#utility.yul\":14813:14817   */\n      dup1\n        /* \"#utility.yul\":14807:14811   */\n      dup2\n        /* \"#utility.yul\":14803:14818   */\n      mul\n        /* \"#utility.yul\":14795:14818   */\n      swap1\n      pop\n        /* \"#utility.yul\":14843:14875   */\n      tag_372\n        /* \"#utility.yul\":14866:14874   */\n      dup6\n        /* \"#utility.yul\":14843:14875   */\n      tag_200\n      jump\t// in\n    tag_372:\n        /* \"#utility.yul\":14831:14875   */\n      swap5\n      pop\n        /* \"#utility.yul\":14173:14885   */\n      jump(tag_366)\n    tag_368:\n        /* \"#utility.yul\":14043:14891   */\n      swap5\n      pop\n      swap5\n      swap3\n      pop\n      pop\n      pop\n      jump\t// out\n        /* \"#utility.yul\":14897:15970   */\n    tag_202:\n        /* \"#utility.yul\":14951:14956   */\n      0x00\n        /* \"#utility.yul\":15142:15150   */\n      dup3\n        /* \"#utility.yul\":15132:15172   */\n      tag_374\n      jumpi\n        /* \"#utility.yul\":15163:15164   */\n      0x01\n        /* \"#utility.yul\":15154:15164   */\n      swap1\n      pop\n        /* \"#utility.yul\":15165:15170   */\n      jump(tag_373)\n        /* \"#utility.yul\":15132:15172   */\n    tag_374:\n        /* \"#utility.yul\":15191:15195   */\n      dup2\n        /* \"#utility.yul\":15181:15217   */\n      tag_375\n      jumpi\n        /* \"#utility.yul\":15208:15209   */\n      0x00\n        /* \"#utility.yul\":15199:15209   */\n      swap1\n      pop\n        /* \"#utility.yul\":15210:15215   */\n      jump(tag_373)\n        /* \"#utility.yul\":15181:15217   */\n    tag_375:\n        /* \"#utility.yul\":15277:15281   */\n      dup2\n        /* \"#utility.yul\":15325:15326   */\n      0x01\n        /* \"#utility.yul\":15320:15347   */\n      dup2\n      eq\n      tag_377\n      jumpi\n        /* \"#utility.yul\":15361:15362   */\n      0x02\n        /* \"#utility.yul\":15356:15547   */\n      dup2\n      eq\n      tag_378\n      jumpi\n        /* \"#utility.yul\":15270:15547   */\n      jump(tag_376)\n        /* \"#utility.yul\":15320:15347   */\n    tag_377:\n        /* \"#utility.yul\":15338:15339   */\n      0x01\n        /* \"#utility.yul\":15329:15339   */\n      swap2\n      pop\n        /* \"#utility.yul\":15340:15345   */\n      pop\n      jump(tag_373)\n        /* \"#utility.yul\":15356:15547   */\n    tag_378:\n        /* \"#utility.yul\":15401:15404   */\n      0xff\n        /* \"#utility.yul\":15391:15399   */\n      dup5\n        /* \"#utility.yul\":15388:15405   */\n      gt\n        /* \"#utility.yul\":15385:15428   */\n      iszero\n      tag_379\n      jumpi\n        /* \"#utility.yul\":15408:15426   */\n      tag_380\n      tag_173\n      jump\t// in\n    tag_380:\n        /* \"#utility.yul\":15385:15428   */\n    tag_379:\n        /* \"#utility.yul\":15457:15465   */\n      dup4\n        /* \"#utility.yul\":15454:15455   */\n      0x02\n        /* \"#utility.yul\":15450:15466   */\n      exp\n        /* \"#utility.yul\":15441:15466   */\n      swap2\n      pop\n        /* \"#utility.yul\":15492:15495   */\n      dup5\n        /* \"#utility.yul\":15485:15490   */\n      dup3\n        /* \"#utility.yul\":15482:15496   */\n      gt\n        /* \"#utility.yul\":15479:15519   */\n      iszero\n      tag_381\n      jumpi\n        /* \"#utility.yul\":15499:15517   */\n      tag_382\n      tag_173\n      jump\t// in\n    tag_382:\n        /* \"#utility.yul\":15479:15519   */\n    tag_381:\n        /* \"#utility.yul\":15532:15537   */\n      pop\n      jump(tag_373)\n        /* \"#utility.yul\":15270:15547   */\n    tag_376:\n      pop\n        /* \"#utility.yul\":15656:15658   */\n      0x20\n        /* \"#utility.yul\":15646:15654   */\n      dup4\n        /* \"#utility.yul\":15643:15659   */\n      lt\n        /* \"#utility.yul\":15637:15640   */\n      0x0133\n        /* \"#utility.yul\":15631:15635   */\n      dup4\n        /* \"#utility.yul\":15628:15641   */\n      lt\n        /* \"#utility.yul\":15624:15660   */\n      and\n        /* \"#utility.yul\":15606:15608   */\n      0x4e\n        /* \"#utility.yul\":15596:15604   */\n      dup5\n        /* \"#utility.yul\":15593:15609   */\n      lt\n        /* \"#utility.yul\":15588:15590   */\n      0x0b\n        /* \"#utility.yul\":15582:15586   */\n      dup5\n        /* \"#utility.yul\":15579:15591   */\n      lt\n        /* \"#utility.yul\":15575:15610   */\n      and\n        /* \"#utility.yul\":15559:15670   */\n      or\n        /* \"#utility.yul\":15556:15802   */\n      iszero\n      tag_383\n      jumpi\n        /* \"#utility.yul\":15712:15720   */\n      dup3\n        /* \"#utility.yul\":15706:15710   */\n      dup3\n        /* \"#utility.yul\":15702:15721   */\n      exp\n        /* \"#utility.yul\":15693:15721   */\n      swap1\n      pop\n        /* \"#utility.yul\":15747:15750   */\n      dup4\n        /* \"#utility.yul\":15740:15745   */\n      dup2\n        /* \"#utility.yul\":15737:15751   */\n      gt\n        /* \"#utility.yul\":15734:15774   */\n      iszero\n      tag_384\n      jumpi\n        /* \"#utility.yul\":15754:15772   */\n      tag_385\n      tag_173\n      jump\t// in\n    tag_385:\n        /* \"#utility.yul\":15734:15774   */\n    tag_384:\n        /* \"#utility.yul\":15787:15792   */\n      jump(tag_373)\n        /* \"#utility.yul\":15556:15802   */\n    tag_383:\n        /* \"#utility.yul\":15827:15869   */\n      tag_386\n        /* \"#utility.yul\":15865:15868   */\n      dup5\n        /* \"#utility.yul\":15855:15863   */\n      dup5\n        /* \"#utility.yul\":15849:15853   */\n      dup5\n        /* \"#utility.yul\":15846:15847   */\n      0x01\n        /* \"#utility.yul\":15827:15869   */\n      tag_201\n      jump\t// in\n    tag_386:\n        /* \"#utility.yul\":15812:15869   */\n      swap3\n      pop\n      swap1\n      pop\n        /* \"#utility.yul\":15901:15905   */\n      dup2\n        /* \"#utility.yul\":15896:15899   */\n      dup5\n        /* \"#utility.yul\":15892:15906   */\n      div\n        /* \"#utility.yul\":15885:15890   */\n      dup2\n        /* \"#utility.yul\":15882:15907   */\n      gt\n        /* \"#utility.yul\":15879:15930   */\n      iszero\n      tag_387\n      jumpi\n        /* \"#utility.yul\":15910:15928   */\n      tag_388\n      tag_173\n      jump\t// in\n    tag_388:\n        /* \"#utility.yul\":15879:15930   */\n    tag_387:\n        /* \"#utility.yul\":15959:15963   */\n      dup2\n        /* \"#utility.yul\":15952:15957   */\n      dup2\n        /* \"#utility.yul\":15948:15964   */\n      mul\n        /* \"#utility.yul\":15939:15964   */\n      swap1\n      pop\n        /* \"#utility.yul\":14897:15970   */\n    tag_373:\n      swap4\n      swap3\n      pop\n      pop\n      pop\n      jump\t// out\n        /* \"#utility.yul\":15976:16261   */\n    tag_141:\n        /* \"#utility.yul\":16036:16041   */\n      0x00\n        /* \"#utility.yul\":16060:16083   */\n      tag_390\n        /* \"#utility.yul\":16078:16082   */\n      dup3\n        /* \"#utility.yul\":16060:16083   */\n      tag_166\n      jump\t// in\n    tag_390:\n        /* \"#utility.yul\":16052:16083   */\n      swap2\n      pop\n        /* \"#utility.yul\":16104:16131   */\n      tag_391\n        /* \"#utility.yul\":16122:16130   */\n      dup4\n        /* \"#utility.yul\":16104:16131   */\n      tag_166\n      jump\t// in\n    tag_391:\n        /* \"#utility.yul\":16092:16131   */\n      swap3\n      pop\n        /* \"#utility.yul\":16150:16254   */\n      tag_392\n        /* \"#utility.yul\":16187:16253   */\n      0xffffffffffffffffffffffffffffffffffffffffffffffffffffffffffffffff\n        /* \"#utility.yul\":16177:16185   */\n      dup5\n        /* \"#utility.yul\":16171:16175   */\n      dup5\n        /* \"#utility.yul\":16150:16254   */\n      tag_202\n      jump\t// in\n    tag_392:\n        /* \"#utility.yul\":16141:16254   */\n      swap1\n      pop\n        /* \"#utility.yul\":15976:16261   */\n      swap3\n      swap2\n      pop\n      pop\n      jump\t// out\n\n    auxdata: 0xa2646970667358221220142e9ee3a41d4ce0394b083ce3111817bb3d9156ecdead0c9b69b923a113abe864736f6c63430008120033\n}\n",
				"bytecode": {
					"linkReferences": {},
					"object": "608060405260016004553480156200001657600080fd5b5062000027620000a960201b60201c565b7312f2d6b0783127c62956fff73f4d7f701433b6f5600660006101000a81548173ffffffffffffffffffffffffffffffffffffffff021916908373ffffffffffffffffffffffffffffffffffffffff1602179055507f313961653638383438646663346633653965663233376539663935623265343460078190555062000221565b6200013f73c89bd4e1632d3a43cb03aaad5262cbe4038bc57173ffffffffffffffffffffffffffffffffffffffff166338cc48316040518163ffffffff1660e01b8152600401602060405180830381865afa1580156200010d573d6000803e3d6000fd5b505050506040513d601f19601f82011682018060405250810190620001339190620001ef565b6200014160201b60201c565b565b80600260006101000a81548173ffffffffffffffffffffffffffffffffffffffff021916908373ffffffffffffffffffffffffffffffffffffffff16021790555050565b600080fd5b600073ffffffffffffffffffffffffffffffffffffffff82169050919050565b6000620001b7826200018a565b9050919050565b620001c981620001aa565b8114620001d557600080fd5b50565b600081519050620001e981620001be565b92915050565b60006020828403121562000208576200020762000185565b5b60006200021884828501620001d8565b91505092915050565b61150180620002316000396000f3fe608060405234801561001057600080fd5b50600436106100365760003560e01c806328b0af2c1461003b5780634357855e14610057575b600080fd5b61005560048036038101906100509190610ca9565b610073565b005b610071600480360381019061006c9190610d5e565b610187565b005b600061008960075430634357855e60e01b6102c8565b90506100d56040518060400160405280600381526020017f676574000000000000000000000000000000000000000000000000000000000081525083836102f99092919063ffffffff16565b6101546040518060400160405280600481526020017f70617468000000000000000000000000000000000000000000000000000000008152506040518060400160405280600681526020017f726573756c740000000000000000000000000000000000000000000000000000815250836102f99092919063ffffffff16565b610182600660009054906101000a900473ffffffffffffffffffffffffffffffffffffffff1682600061032c565b505050565b816005600082815260200190815260200160002060009054906101000a900473ffffffffffffffffffffffffffffffffffffffff1673ffffffffffffffffffffffffffffffffffffffff163373ffffffffffffffffffffffffffffffffffffffff1614610229576040517f08c379a000000000000000000000000000000000000000000000000000000000815260040161022090610e21565b60405180910390fd5b6005600082815260200190815260200160002060006101000a81549073ffffffffffffffffffffffffffffffffffffffff0219169055807f7cc135e0cebb02c3480ae5d74d377283180a2601f8f644edf7987b009316c63a60405160405180910390a27f8d045d83adae4e040b333d2a52a74f1f89f04241cffcb4802aaf0507ce24d20f826040516102bb9190610e50565b60405180910390a1505050565b6102d0610ac8565b6102d8610ac8565b6102ef858585846103f8909392919063ffffffff16565b9150509392505050565b6103108284608001516104a890919063ffffffff16565b6103278184608001516104a890919063ffffffff16565b505050565b60008060045490506001816103419190610e9a565b6004819055506000634042994660e01b60008087600001513089604001518760018c6080015160000151604051602401610382989796959493929190610fd8565b604051602081830303815290604052907bffffffffffffffffffffffffffffffffffffffffffffffffffffffff19166020820180517bffffffffffffffffffffffffffffffffffffffffffffffffffffffff838183161783525050505090506103ed868386846104cd565b925050509392505050565b610400610ac8565b6104108560800151610100610662565b508385600001818152505082856020019073ffffffffffffffffffffffffffffffffffffffff16908173ffffffffffffffffffffffffffffffffffffffff16815250508185604001907bffffffffffffffffffffffffffffffffffffffffffffffffffffffff191690817bffffffffffffffffffffffffffffffffffffffffffffffffffffffff191681525050849050949350505050565b6104b582600383516106cc565b6104c8818361085190919063ffffffff16565b505050565b600030846040516020016104e2929190611116565b604051602081830303815290604052805190602001209050846005600083815260200190815260200160002060006101000a81548173ffffffffffffffffffffffffffffffffffffffff021916908373ffffffffffffffffffffffffffffffffffffffff160217905550807fb5e6e01e79f91267dc17b4e6314d5d4d03593d2ceee0fbb452b750bd70ea5af960405160405180910390a2600260009054906101000a900473ffffffffffffffffffffffffffffffffffffffff1673ffffffffffffffffffffffffffffffffffffffff16634000aea08685856040518463ffffffff1660e01b81526004016105d893929190611142565b6020604051808303816000875af11580156105f7573d6000803e3d6000fd5b505050506040513d601f19601f8201168201806040525081019061061b91906111b8565b61065a576040517f08c379a000000000000000000000000000000000000000000000000000000000815260040161065190611257565b60405180910390fd5b949350505050565b61066a610b35565b600060208361067991906112a6565b146106a55760208261068b91906112a6565b602061069791906112d7565b826106a29190610e9a565b91505b81836020018181525050604051808452600081528281016020016040525082905092915050565b60178167ffffffffffffffff1611610703576106fd8160058460ff16901b60ff16178461087390919063ffffffff16565b5061084c565b60ff8167ffffffffffffffff161161075957610732601860058460ff16901b178461087390919063ffffffff16565b506107538167ffffffffffffffff166001856108939092919063ffffffff16565b5061084b565b61ffff8167ffffffffffffffff16116107b057610789601960058460ff16901b178461087390919063ffffffff16565b506107aa8167ffffffffffffffff166002856108939092919063ffffffff16565b5061084a565b63ffffffff8167ffffffffffffffff1611610809576107e2601a60058460ff16901b178461087390919063ffffffff16565b506108038167ffffffffffffffff166004856108939092919063ffffffff16565b50610849565b610826601b60058460ff16901b178461087390919063ffffffff16565b506108478167ffffffffffffffff166008856108939092919063ffffffff16565b505b5b5b5b505050565b610859610b35565b61086b838460000151518485516108b5565b905092915050565b61087b610b35565b61088b83846000015151846109a4565b905092915050565b61089b610b35565b6108ac8485600001515185856109fa565b90509392505050565b6108bd610b35565b82518211156108cb57600080fd5b846020015182856108dc9190610e9a565b111561091157610910856002610901886020015188876108fc9190610e9a565b610a88565b61090b919061130b565b610aa4565b5b6000808651805187602083010193508088870111156109305787860182525b60208701925050505b6020841061097757805182526020826109529190610e9a565b91506020816109619190610e9a565b905060208461097091906112d7565b9350610939565b60006001856020036101000a03905080198251168184511681811785525050508692505050949350505050565b6109ac610b35565b836020015183106109d2576109d184600286602001516109cc919061130b565b610aa4565b5b835180516020858301018481538186036109ed576001820183525b5050508390509392505050565b610a02610b35565b84602001518483610a139190610e9a565b1115610a3b57610a3a8560028685610a2b9190610e9a565b610a35919061130b565b610aa4565b5b6000600183610100610a4d9190611480565b610a5791906112d7565b90508551838682010185831982511617815281518588011115610a7a5784870182525b505085915050949350505050565b600081831115610a9a57829050610a9e565b8190505b92915050565b600082600001519050610ab78383610662565b50610ac28382610851565b50505050565b6040518060a0016040528060008019168152602001600073ffffffffffffffffffffffffffffffffffffffff16815260200160007bffffffffffffffffffffffffffffffffffffffffffffffffffffffff1916815260200160008152602001610b2f610b35565b81525090565b604051806040016040528060608152602001600081525090565b6000604051905090565b600080fd5b600080fd5b600080fd5b600080fd5b6000601f19601f8301169050919050565b7f4e487b7100000000000000000000000000000000000000000000000000000000600052604160045260246000fd5b610bb682610b6d565b810181811067ffffffffffffffff82111715610bd557610bd4610b7e565b5b80604052505050565b6000610be8610b4f565b9050610bf48282610bad565b919050565b600067ffffffffffffffff821115610c1457610c13610b7e565b5b610c1d82610b6d565b9050602081019050919050565b82818337600083830152505050565b6000610c4c610c4784610bf9565b610bde565b905082815260208101848484011115610c6857610c67610b68565b5b610c73848285610c2a565b509392505050565b600082601f830112610c9057610c8f610b63565b5b8135610ca0848260208601610c39565b91505092915050565b600060208284031215610cbf57610cbe610b59565b5b600082013567ffffffffffffffff811115610cdd57610cdc610b5e565b5b610ce984828501610c7b565b91505092915050565b6000819050919050565b610d0581610cf2565b8114610d1057600080fd5b50565b600081359050610d2281610cfc565b92915050565b6000819050919050565b610d3b81610d28565b8114610d4657600080fd5b50565b600081359050610d5881610d32565b92915050565b60008060408385031215610d7557610d74610b59565b5b6000610d8385828601610d13565b9250506020610d9485828601610d49565b9150509250929050565b600082825260208201905092915050565b7f536f75726365206d75737420626520746865206f7261636c65206f662074686560008201527f2072657175657374000000000000000000000000000000000000000000000000602082015250565b6000610e0b602883610d9e565b9150610e1682610daf565b604082019050919050565b60006020820190508181036000830152610e3a81610dfe565b9050919050565b610e4a81610d28565b82525050565b6000602082019050610e656000830184610e41565b92915050565b7f4e487b7100000000000000000000000000000000000000000000000000000000600052601160045260246000fd5b6000610ea582610d28565b9150610eb083610d28565b9250828201905080821115610ec857610ec7610e6b565b5b92915050565b600073ffffffffffffffffffffffffffffffffffffffff82169050919050565b6000610ef982610ece565b9050919050565b610f0981610eee565b82525050565b610f1881610cf2565b82525050565b60007fffffffff0000000000000000000000000000000000000000000000000000000082169050919050565b610f5381610f1e565b82525050565b600081519050919050565b600082825260208201905092915050565b60005b83811015610f93578082015181840152602081019050610f78565b60008484015250505050565b6000610faa82610f59565b610fb48185610f64565b9350610fc4818560208601610f75565b610fcd81610b6d565b840191505092915050565b600061010082019050610fee600083018b610f00565b610ffb602083018a610e41565b6110086040830189610f0f565b6110156060830188610f00565b6110226080830187610f4a565b61102f60a0830186610e41565b61103c60c0830185610e41565b81810360e083015261104e8184610f9f565b90509998505050505050505050565b6000819050919050565b600061108261107d61107884610ece565b61105d565b610ece565b9050919050565b600061109482611067565b9050919050565b60006110a682611089565b9050919050565b60008160601b9050919050565b60006110c5826110ad565b9050919050565b60006110d7826110ba565b9050919050565b6110ef6110ea8261109b565b6110cc565b82525050565b6000819050919050565b61111061110b82610d28565b6110f5565b82525050565b600061112282856110de565b60148201915061113282846110ff565b6020820191508190509392505050565b60006060820190506111576000830186610f00565b6111646020830185610e41565b81810360408301526111768184610f9f565b9050949350505050565b60008115159050919050565b61119581611180565b81146111a057600080fd5b50565b6000815190506111b28161118c565b92915050565b6000602082840312156111ce576111cd610b59565b5b60006111dc848285016111a3565b91505092915050565b7f756e61626c6520746f207472616e73666572416e6443616c6c20746f206f726160008201527f636c650000000000000000000000000000000000000000000000000000000000602082015250565b6000611241602383610d9e565b915061124c826111e5565b604082019050919050565b6000602082019050818103600083015261127081611234565b9050919050565b7f4e487b7100000000000000000000000000000000000000000000000000000000600052601260045260246000fd5b60006112b182610d28565b91506112bc83610d28565b9250826112cc576112cb611277565b5b828206905092915050565b60006112e282610d28565b91506112ed83610d28565b925082820390508181111561130557611304610e6b565b5b92915050565b600061131682610d28565b915061132183610d28565b925082820261132f81610d28565b9150828204841483151761134657611345610e6b565b5b5092915050565b60008160011c9050919050565b6000808291508390505b60018511156113a4578086048111156113805761137f610e6b565b5b600185161561138f5780820291505b808102905061139d8561134d565b9450611364565b94509492505050565b6000826113bd5760019050611479565b816113cb5760009050611479565b81600181146113e157600281146113eb5761141a565b6001915050611479565b60ff8411156113fd576113fc610e6b565b5b8360020a91508482111561141457611413610e6b565b5b50611479565b5060208310610133831016604e8410600b841016171561144f5782820a90508381111561144a57611449610e6b565b5b611479565b61145c848484600161135a565b9250905081840481111561147357611472610e6b565b5b81810290505b9392505050565b600061148b82610d28565b915061149683610d28565b92506114c37fffffffffffffffffffffffffffffffffffffffffffffffffffffffffffffffff84846113ad565b90509291505056fea2646970667358221220142e9ee3a41d4ce0394b083ce3111817bb3d9156ecdead0c9b69b923a113abe864736f6c63430008120033",
					"opcodes": "PUSH1 0x80 PUSH1 0x40 MSTORE PUSH1 0x1 PUSH1 0x4 SSTORE CALLVALUE DUP1 ISZERO PUSH3 0x16 JUMPI PUSH1 0x0 DUP1 REVERT JUMPDEST POP PUSH3 0x27 PUSH3 0xA9 PUSH1 0x20 SHL PUSH1 0x20 SHR JUMP JUMPDEST PUSH20 0x12F2D6B0783127C62956FFF73F4D7F701433B6F5 PUSH1 0x6 PUSH1 0x0 PUSH2 0x100 EXP DUP2 SLOAD DUP2 PUSH20 0xFFFFFFFFFFFFFFFFFFFFFFFFFFFFFFFFFFFFFFFF MUL NOT AND SWAP1 DUP4 PUSH20 0xFFFFFFFFFFFFFFFFFFFFFFFFFFFFFFFFFFFFFFFF AND MUL OR SWAP1 SSTORE POP PUSH32 0x3139616536383834386466633466336539656632333765396639356232653434 PUSH1 0x7 DUP2 SWAP1 SSTORE POP PUSH3 0x221 JUMP JUMPDEST PUSH3 0x13F PUSH20 0xC89BD4E1632D3A43CB03AAAD5262CBE4038BC571 PUSH20 0xFFFFFFFFFFFFFFFFFFFFFFFFFFFFFFFFFFFFFFFF AND PUSH4 0x38CC4831 PUSH1 0x40 MLOAD DUP2 PUSH4 0xFFFFFFFF AND PUSH1 0xE0 SHL DUP2 MSTORE PUSH1 0x4 ADD PUSH1 0x20 PUSH1 0x40 MLOAD DUP1 DUP4 SUB DUP2 DUP7 GAS STATICCALL ISZERO DUP1 ISZERO PUSH3 0x10D JUMPI RETURNDATASIZE PUSH1 0x0 DUP1 RETURNDATACOPY RETURNDATASIZE PUSH1 0x0 REVERT JUMPDEST POP POP POP POP PUSH1 0x40 MLOAD RETURNDATASIZE PUSH1 0x1F NOT PUSH1 0x1F DUP3 ADD AND DUP3 ADD DUP1 PUSH1 0x40 MSTORE POP DUP2 ADD SWAP1 PUSH3 0x133 SWAP2 SWAP1 PUSH3 0x1EF JUMP JUMPDEST PUSH3 0x141 PUSH1 0x20 SHL PUSH1 0x20 SHR JUMP JUMPDEST JUMP JUMPDEST DUP1 PUSH1 0x2 PUSH1 0x0 PUSH2 0x100 EXP DUP2 SLOAD DUP2 PUSH20 0xFFFFFFFFFFFFFFFFFFFFFFFFFFFFFFFFFFFFFFFF MUL NOT AND SWAP1 DUP4 PUSH20 0xFFFFFFFFFFFFFFFFFFFFFFFFFFFFFFFFFFFFFFFF AND MUL OR SWAP1 SSTORE POP POP JUMP JUMPDEST PUSH1 0x0 DUP1 REVERT JUMPDEST PUSH1 0x0 PUSH20 0xFFFFFFFFFFFFFFFFFFFFFFFFFFFFFFFFFFFFFFFF DUP3 AND SWAP1 POP SWAP2 SWAP1 POP JUMP JUMPDEST PUSH1 0x0 PUSH3 0x1B7 DUP3 PUSH3 0x18A JUMP JUMPDEST SWAP1 POP SWAP2 SWAP1 POP JUMP JUMPDEST PUSH3 0x1C9 DUP2 PUSH3 0x1AA JUMP JUMPDEST DUP2 EQ PUSH3 0x1D5 JUMPI PUSH1 0x0 DUP1 REVERT JUMPDEST POP JUMP JUMPDEST PUSH1 0x0 DUP2 MLOAD SWAP1 POP PUSH3 0x1E9 DUP2 PUSH3 0x1BE JUMP JUMPDEST SWAP3 SWAP2 POP POP JUMP JUMPDEST PUSH1 0x0 PUSH1 0x20 DUP3 DUP5 SUB SLT ISZERO PUSH3 0x208 JUMPI PUSH3 0x207 PUSH3 0x185 JUMP JUMPDEST JUMPDEST PUSH1 0x0 PUSH3 0x218 DUP5 DUP3 DUP6 ADD PUSH3 0x1D8 JUMP JUMPDEST SWAP2 POP POP SWAP3 SWAP2 POP POP JUMP JUMPDEST PUSH2 0x1501 DUP1 PUSH3 0x231 PUSH1 0x0 CODECOPY PUSH1 0x0 RETURN INVALID PUSH1 0x80 PUSH1 0x40 MSTORE CALLVALUE DUP1 ISZERO PUSH2 0x10 JUMPI PUSH1 0x0 DUP1 REVERT JUMPDEST POP PUSH1 0x4 CALLDATASIZE LT PUSH2 0x36 JUMPI PUSH1 0x0 CALLDATALOAD PUSH1 0xE0 SHR DUP1 PUSH4 0x28B0AF2C EQ PUSH2 0x3B JUMPI DUP1 PUSH4 0x4357855E EQ PUSH2 0x57 JUMPI JUMPDEST PUSH1 0x0 DUP1 REVERT JUMPDEST PUSH2 0x55 PUSH1 0x4 DUP1 CALLDATASIZE SUB DUP2 ADD SWAP1 PUSH2 0x50 SWAP2 SWAP1 PUSH2 0xCA9 JUMP JUMPDEST PUSH2 0x73 JUMP JUMPDEST STOP JUMPDEST PUSH2 0x71 PUSH1 0x4 DUP1 CALLDATASIZE SUB DUP2 ADD SWAP1 PUSH2 0x6C SWAP2 SWAP1 PUSH2 0xD5E JUMP JUMPDEST PUSH2 0x187 JUMP JUMPDEST STOP JUMPDEST PUSH1 0x0 PUSH2 0x89 PUSH1 0x7 SLOAD ADDRESS PUSH4 0x4357855E PUSH1 0xE0 SHL PUSH2 0x2C8 JUMP JUMPDEST SWAP1 POP PUSH2 0xD5 PUSH1 0x40 MLOAD DUP1 PUSH1 0x40 ADD PUSH1 0x40 MSTORE DUP1 PUSH1 0x3 DUP2 MSTORE PUSH1 0x20 ADD PUSH32 0x6765740000000000000000000000000000000000000000000000000000000000 DUP2 MSTORE POP DUP4 DUP4 PUSH2 0x2F9 SWAP1 SWAP3 SWAP2 SWAP1 PUSH4 0xFFFFFFFF AND JUMP JUMPDEST PUSH2 0x154 PUSH1 0x40 MLOAD DUP1 PUSH1 0x40 ADD PUSH1 0x40 MSTORE DUP1 PUSH1 0x4 DUP2 MSTORE PUSH1 0x20 ADD PUSH32 0x7061746800000000000000000000000000000000000000000000000000000000 DUP2 MSTORE POP PUSH1 0x40 MLOAD DUP1 PUSH1 0x40 ADD PUSH1 0x40 MSTORE DUP1 PUSH1 0x6 DUP2 MSTORE PUSH1 0x20 ADD PUSH32 0x726573756C740000000000000000000000000000000000000000000000000000 DUP2 MSTORE POP DUP4 PUSH2 0x2F9 SWAP1 SWAP3 SWAP2 SWAP1 PUSH4 0xFFFFFFFF AND JUMP JUMPDEST PUSH2 0x182 PUSH1 0x6 PUSH1 0x0 SWAP1 SLOAD SWAP1 PUSH2 0x100 EXP SWAP1 DIV PUSH20 0xFFFFFFFFFFFFFFFFFFFFFFFFFFFFFFFFFFFFFFFF AND DUP3 PUSH1 0x0 PUSH2 0x32C JUMP JUMPDEST POP POP POP JUMP JUMPDEST DUP2 PUSH1 0x5 PUSH1 0x0 DUP3 DUP2 MSTORE PUSH1 0x20 ADD SWAP1 DUP2 MSTORE PUSH1 0x20 ADD PUSH1 0x0 KECCAK256 PUSH1 0x0 SWAP1 SLOAD SWAP1 PUSH2 0x100 EXP SWAP1 DIV PUSH20 0xFFFFFFFFFFFFFFFFFFFFFFFFFFFFFFFFFFFFFFFF AND PUSH20 0xFFFFFFFFFFFFFFFFFFFFFFFFFFFFFFFFFFFFFFFF AND CALLER PUSH20 0xFFFFFFFFFFFFFFFFFFFFFFFFFFFFFFFFFFFFFFFF AND EQ PUSH2 0x229 JUMPI PUSH1 0x40 MLOAD PUSH32 0x8C379A000000000000000000000000000000000000000000000000000000000 DUP2 MSTORE PUSH1 0x4 ADD PUSH2 0x220 SWAP1 PUSH2 0xE21 JUMP JUMPDEST PUSH1 0x40 MLOAD DUP1 SWAP2 SUB SWAP1 REVERT JUMPDEST PUSH1 0x5 PUSH1 0x0 DUP3 DUP2 MSTORE PUSH1 0x20 ADD SWAP1 DUP2 MSTORE PUSH1 0x20 ADD PUSH1 0x0 KECCAK256 PUSH1 0x0 PUSH2 0x100 EXP DUP2 SLOAD SWAP1 PUSH20 0xFFFFFFFFFFFFFFFFFFFFFFFFFFFFFFFFFFFFFFFF MUL NOT AND SWAP1 SSTORE DUP1 PUSH32 0x7CC135E0CEBB02C3480AE5D74D377283180A2601F8F644EDF7987B009316C63A PUSH1 0x40 MLOAD PUSH1 0x40 MLOAD DUP1 SWAP2 SUB SWAP1 LOG2 PUSH32 0x8D045D83ADAE4E040B333D2A52A74F1F89F04241CFFCB4802AAF0507CE24D20F DUP3 PUSH1 0x40 MLOAD PUSH2 0x2BB SWAP2 SWAP1 PUSH2 0xE50 JUMP JUMPDEST PUSH1 0x40 MLOAD DUP1 SWAP2 SUB SWAP1 LOG1 POP POP POP JUMP JUMPDEST PUSH2 0x2D0 PUSH2 0xAC8 JUMP JUMPDEST PUSH2 0x2D8 PUSH2 0xAC8 JUMP JUMPDEST PUSH2 0x2EF DUP6 DUP6 DUP6 DUP5 PUSH2 0x3F8 SWAP1 SWAP4 SWAP3 SWAP2 SWAP1 PUSH4 0xFFFFFFFF AND JUMP JUMPDEST SWAP2 POP POP SWAP4 SWAP3 POP POP POP JUMP JUMPDEST PUSH2 0x310 DUP3 DUP5 PUSH1 0x80 ADD MLOAD PUSH2 0x4A8 SWAP1 SWAP2 SWAP1 PUSH4 0xFFFFFFFF AND JUMP JUMPDEST PUSH2 0x327 DUP2 DUP5 PUSH1 0x80 ADD MLOAD PUSH2 0x4A8 SWAP1 SWAP2 SWAP1 PUSH4 0xFFFFFFFF AND JUMP JUMPDEST POP POP POP JUMP JUMPDEST PUSH1 0x0 DUP1 PUSH1 0x4 SLOAD SWAP1 POP PUSH1 0x1 DUP2 PUSH2 0x341 SWAP2 SWAP1 PUSH2 0xE9A JUMP JUMPDEST PUSH1 0x4 DUP2 SWAP1 SSTORE POP PUSH1 0x0 PUSH4 0x40429946 PUSH1 0xE0 SHL PUSH1 0x0 DUP1 DUP8 PUSH1 0x0 ADD MLOAD ADDRESS DUP10 PUSH1 0x40 ADD MLOAD DUP8 PUSH1 0x1 DUP13 PUSH1 0x80 ADD MLOAD PUSH1 0x0 ADD MLOAD PUSH1 0x40 MLOAD PUSH1 0x24 ADD PUSH2 0x382 SWAP9 SWAP8 SWAP7 SWAP6 SWAP5 SWAP4 SWAP3 SWAP2 SWAP1 PUSH2 0xFD8 JUMP JUMPDEST PUSH1 0x40 MLOAD PUSH1 0x20 DUP2 DUP4 SUB SUB DUP2 MSTORE SWAP1 PUSH1 0x40 MSTORE SWAP1 PUSH28 0xFFFFFFFFFFFFFFFFFFFFFFFFFFFFFFFFFFFFFFFFFFFFFFFFFFFFFFFF NOT AND PUSH1 0x20 DUP3 ADD DUP1 MLOAD PUSH28 0xFFFFFFFFFFFFFFFFFFFFFFFFFFFFFFFFFFFFFFFFFFFFFFFFFFFFFFFF DUP4 DUP2 DUP4 AND OR DUP4 MSTORE POP POP POP POP SWAP1 POP PUSH2 0x3ED DUP7 DUP4 DUP7 DUP5 PUSH2 0x4CD JUMP JUMPDEST SWAP3 POP POP POP SWAP4 SWAP3 POP POP POP JUMP JUMPDEST PUSH2 0x400 PUSH2 0xAC8 JUMP JUMPDEST PUSH2 0x410 DUP6 PUSH1 0x80 ADD MLOAD PUSH2 0x100 PUSH2 0x662 JUMP JUMPDEST POP DUP4 DUP6 PUSH1 0x0 ADD DUP2 DUP2 MSTORE POP POP DUP3 DUP6 PUSH1 0x20 ADD SWAP1 PUSH20 0xFFFFFFFFFFFFFFFFFFFFFFFFFFFFFFFFFFFFFFFF AND SWAP1 DUP2 PUSH20 0xFFFFFFFFFFFFFFFFFFFFFFFFFFFFFFFFFFFFFFFF AND DUP2 MSTORE POP POP DUP2 DUP6 PUSH1 0x40 ADD SWAP1 PUSH28 0xFFFFFFFFFFFFFFFFFFFFFFFFFFFFFFFFFFFFFFFFFFFFFFFFFFFFFFFF NOT AND SWAP1 DUP2 PUSH28 0xFFFFFFFFFFFFFFFFFFFFFFFFFFFFFFFFFFFFFFFFFFFFFFFFFFFFFFFF NOT AND DUP2 MSTORE POP POP DUP5 SWAP1 POP SWAP5 SWAP4 POP POP POP POP JUMP JUMPDEST PUSH2 0x4B5 DUP3 PUSH1 0x3 DUP4 MLOAD PUSH2 0x6CC JUMP JUMPDEST PUSH2 0x4C8 DUP2 DUP4 PUSH2 0x851 SWAP1 SWAP2 SWAP1 PUSH4 0xFFFFFFFF AND JUMP JUMPDEST POP POP POP JUMP JUMPDEST PUSH1 0x0 ADDRESS DUP5 PUSH1 0x40 MLOAD PUSH1 0x20 ADD PUSH2 0x4E2 SWAP3 SWAP2 SWAP1 PUSH2 0x1116 JUMP JUMPDEST PUSH1 0x40 MLOAD PUSH1 0x20 DUP2 DUP4 SUB SUB DUP2 MSTORE SWAP1 PUSH1 0x40 MSTORE DUP1 MLOAD SWAP1 PUSH1 0x20 ADD KECCAK256 SWAP1 POP DUP5 PUSH1 0x5 PUSH1 0x0 DUP4 DUP2 MSTORE PUSH1 0x20 ADD SWAP1 DUP2 MSTORE PUSH1 0x20 ADD PUSH1 0x0 KECCAK256 PUSH1 0x0 PUSH2 0x100 EXP DUP2 SLOAD DUP2 PUSH20 0xFFFFFFFFFFFFFFFFFFFFFFFFFFFFFFFFFFFFFFFF MUL NOT AND SWAP1 DUP4 PUSH20 0xFFFFFFFFFFFFFFFFFFFFFFFFFFFFFFFFFFFFFFFF AND MUL OR SWAP1 SSTORE POP DUP1 PUSH32 0xB5E6E01E79F91267DC17B4E6314D5D4D03593D2CEEE0FBB452B750BD70EA5AF9 PUSH1 0x40 MLOAD PUSH1 0x40 MLOAD DUP1 SWAP2 SUB SWAP1 LOG2 PUSH1 0x2 PUSH1 0x0 SWAP1 SLOAD SWAP1 PUSH2 0x100 EXP SWAP1 DIV PUSH20 0xFFFFFFFFFFFFFFFFFFFFFFFFFFFFFFFFFFFFFFFF AND PUSH20 0xFFFFFFFFFFFFFFFFFFFFFFFFFFFFFFFFFFFFFFFF AND PUSH4 0x4000AEA0 DUP7 DUP6 DUP6 PUSH1 0x40 MLOAD DUP5 PUSH4 0xFFFFFFFF AND PUSH1 0xE0 SHL DUP2 MSTORE PUSH1 0x4 ADD PUSH2 0x5D8 SWAP4 SWAP3 SWAP2 SWAP1 PUSH2 0x1142 JUMP JUMPDEST PUSH1 0x20 PUSH1 0x40 MLOAD DUP1 DUP4 SUB DUP2 PUSH1 0x0 DUP8 GAS CALL ISZERO DUP1 ISZERO PUSH2 0x5F7 JUMPI RETURNDATASIZE PUSH1 0x0 DUP1 RETURNDATACOPY RETURNDATASIZE PUSH1 0x0 REVERT JUMPDEST POP POP POP POP PUSH1 0x40 MLOAD RETURNDATASIZE PUSH1 0x1F NOT PUSH1 0x1F DUP3 ADD AND DUP3 ADD DUP1 PUSH1 0x40 MSTORE POP DUP2 ADD SWAP1 PUSH2 0x61B SWAP2 SWAP1 PUSH2 0x11B8 JUMP JUMPDEST PUSH2 0x65A JUMPI PUSH1 0x40 MLOAD PUSH32 0x8C379A000000000000000000000000000000000000000000000000000000000 DUP2 MSTORE PUSH1 0x4 ADD PUSH2 0x651 SWAP1 PUSH2 0x1257 JUMP JUMPDEST PUSH1 0x40 MLOAD DUP1 SWAP2 SUB SWAP1 REVERT JUMPDEST SWAP5 SWAP4 POP POP POP POP JUMP JUMPDEST PUSH2 0x66A PUSH2 0xB35 JUMP JUMPDEST PUSH1 0x0 PUSH1 0x20 DUP4 PUSH2 0x679 SWAP2 SWAP1 PUSH2 0x12A6 JUMP JUMPDEST EQ PUSH2 0x6A5 JUMPI PUSH1 0x20 DUP3 PUSH2 0x68B SWAP2 SWAP1 PUSH2 0x12A6 JUMP JUMPDEST PUSH1 0x20 PUSH2 0x697 SWAP2 SWAP1 PUSH2 0x12D7 JUMP JUMPDEST DUP3 PUSH2 0x6A2 SWAP2 SWAP1 PUSH2 0xE9A JUMP JUMPDEST SWAP2 POP JUMPDEST DUP2 DUP4 PUSH1 0x20 ADD DUP2 DUP2 MSTORE POP POP PUSH1 0x40 MLOAD DUP1 DUP5 MSTORE PUSH1 0x0 DUP2 MSTORE DUP3 DUP2 ADD PUSH1 0x20 ADD PUSH1 0x40 MSTORE POP DUP3 SWAP1 POP SWAP3 SWAP2 POP POP JUMP JUMPDEST PUSH1 0x17 DUP2 PUSH8 0xFFFFFFFFFFFFFFFF AND GT PUSH2 0x703 JUMPI PUSH2 0x6FD DUP2 PUSH1 0x5 DUP5 PUSH1 0xFF AND SWAP1 SHL PUSH1 0xFF AND OR DUP5 PUSH2 0x873 SWAP1 SWAP2 SWAP1 PUSH4 0xFFFFFFFF AND JUMP JUMPDEST POP PUSH2 0x84C JUMP JUMPDEST PUSH1 0xFF DUP2 PUSH8 0xFFFFFFFFFFFFFFFF AND GT PUSH2 0x759 JUMPI PUSH2 0x732 PUSH1 0x18 PUSH1 0x5 DUP5 PUSH1 0xFF AND SWAP1 SHL OR DUP5 PUSH2 0x873 SWAP1 SWAP2 SWAP1 PUSH4 0xFFFFFFFF AND JUMP JUMPDEST POP PUSH2 0x753 DUP2 PUSH8 0xFFFFFFFFFFFFFFFF AND PUSH1 0x1 DUP6 PUSH2 0x893 SWAP1 SWAP3 SWAP2 SWAP1 PUSH4 0xFFFFFFFF AND JUMP JUMPDEST POP PUSH2 0x84B JUMP JUMPDEST PUSH2 0xFFFF DUP2 PUSH8 0xFFFFFFFFFFFFFFFF AND GT PUSH2 0x7B0 JUMPI PUSH2 0x789 PUSH1 0x19 PUSH1 0x5 DUP5 PUSH1 0xFF AND SWAP1 SHL OR DUP5 PUSH2 0x873 SWAP1 SWAP2 SWAP1 PUSH4 0xFFFFFFFF AND JUMP JUMPDEST POP PUSH2 0x7AA DUP2 PUSH8 0xFFFFFFFFFFFFFFFF AND PUSH1 0x2 DUP6 PUSH2 0x893 SWAP1 SWAP3 SWAP2 SWAP1 PUSH4 0xFFFFFFFF AND JUMP JUMPDEST POP PUSH2 0x84A JUMP JUMPDEST PUSH4 0xFFFFFFFF DUP2 PUSH8 0xFFFFFFFFFFFFFFFF AND GT PUSH2 0x809 JUMPI PUSH2 0x7E2 PUSH1 0x1A PUSH1 0x5 DUP5 PUSH1 0xFF AND SWAP1 SHL OR DUP5 PUSH2 0x873 SWAP1 SWAP2 SWAP1 PUSH4 0xFFFFFFFF AND JUMP JUMPDEST POP PUSH2 0x803 DUP2 PUSH8 0xFFFFFFFFFFFFFFFF AND PUSH1 0x4 DUP6 PUSH2 0x893 SWAP1 SWAP3 SWAP2 SWAP1 PUSH4 0xFFFFFFFF AND JUMP JUMPDEST POP PUSH2 0x849 JUMP JUMPDEST PUSH2 0x826 PUSH1 0x1B PUSH1 0x5 DUP5 PUSH1 0xFF AND SWAP1 SHL OR DUP5 PUSH2 0x873 SWAP1 SWAP2 SWAP1 PUSH4 0xFFFFFFFF AND JUMP JUMPDEST POP PUSH2 0x847 DUP2 PUSH8 0xFFFFFFFFFFFFFFFF AND PUSH1 0x8 DUP6 PUSH2 0x893 SWAP1 SWAP3 SWAP2 SWAP1 PUSH4 0xFFFFFFFF AND JUMP JUMPDEST POP JUMPDEST JUMPDEST JUMPDEST JUMPDEST POP POP POP JUMP JUMPDEST PUSH2 0x859 PUSH2 0xB35 JUMP JUMPDEST PUSH2 0x86B DUP4 DUP5 PUSH1 0x0 ADD MLOAD MLOAD DUP5 DUP6 MLOAD PUSH2 0x8B5 JUMP JUMPDEST SWAP1 POP SWAP3 SWAP2 POP POP JUMP JUMPDEST PUSH2 0x87B PUSH2 0xB35 JUMP JUMPDEST PUSH2 0x88B DUP4 DUP5 PUSH1 0x0 ADD MLOAD MLOAD DUP5 PUSH2 0x9A4 JUMP JUMPDEST SWAP1 POP SWAP3 SWAP2 POP POP JUMP JUMPDEST PUSH2 0x89B PUSH2 0xB35 JUMP JUMPDEST PUSH2 0x8AC DUP5 DUP6 PUSH1 0x0 ADD MLOAD MLOAD DUP6 DUP6 PUSH2 0x9FA JUMP JUMPDEST SWAP1 POP SWAP4 SWAP3 POP POP POP JUMP JUMPDEST PUSH2 0x8BD PUSH2 0xB35 JUMP JUMPDEST DUP3 MLOAD DUP3 GT ISZERO PUSH2 0x8CB JUMPI PUSH1 0x0 DUP1 REVERT JUMPDEST DUP5 PUSH1 0x20 ADD MLOAD DUP3 DUP6 PUSH2 0x8DC SWAP2 SWAP1 PUSH2 0xE9A JUMP JUMPDEST GT ISZERO PUSH2 0x911 JUMPI PUSH2 0x910 DUP6 PUSH1 0x2 PUSH2 0x901 DUP9 PUSH1 0x20 ADD MLOAD DUP9 DUP8 PUSH2 0x8FC SWAP2 SWAP1 PUSH2 0xE9A JUMP JUMPDEST PUSH2 0xA88 JUMP JUMPDEST PUSH2 0x90B SWAP2 SWAP1 PUSH2 0x130B JUMP JUMPDEST PUSH2 0xAA4 JUMP JUMPDEST JUMPDEST PUSH1 0x0 DUP1 DUP7 MLOAD DUP1 MLOAD DUP8 PUSH1 0x20 DUP4 ADD ADD SWAP4 POP DUP1 DUP9 DUP8 ADD GT ISZERO PUSH2 0x930 JUMPI DUP8 DUP7 ADD DUP3 MSTORE JUMPDEST PUSH1 0x20 DUP8 ADD SWAP3 POP POP POP JUMPDEST PUSH1 0x20 DUP5 LT PUSH2 0x977 JUMPI DUP1 MLOAD DUP3 MSTORE PUSH1 0x20 DUP3 PUSH2 0x952 SWAP2 SWAP1 PUSH2 0xE9A JUMP JUMPDEST SWAP2 POP PUSH1 0x20 DUP2 PUSH2 0x961 SWAP2 SWAP1 PUSH2 0xE9A JUMP JUMPDEST SWAP1 POP PUSH1 0x20 DUP5 PUSH2 0x970 SWAP2 SWAP1 PUSH2 0x12D7 JUMP JUMPDEST SWAP4 POP PUSH2 0x939 JUMP JUMPDEST PUSH1 0x0 PUSH1 0x1 DUP6 PUSH1 0x20 SUB PUSH2 0x100 EXP SUB SWAP1 POP DUP1 NOT DUP3 MLOAD AND DUP2 DUP5 MLOAD AND DUP2 DUP2 OR DUP6 MSTORE POP POP POP DUP7 SWAP3 POP POP POP SWAP5 SWAP4 POP POP POP POP JUMP JUMPDEST PUSH2 0x9AC PUSH2 0xB35 JUMP JUMPDEST DUP4 PUSH1 0x20 ADD MLOAD DUP4 LT PUSH2 0x9D2 JUMPI PUSH2 0x9D1 DUP5 PUSH1 0x2 DUP7 PUSH1 0x20 ADD MLOAD PUSH2 0x9CC SWAP2 SWAP1 PUSH2 0x130B JUMP JUMPDEST PUSH2 0xAA4 JUMP JUMPDEST JUMPDEST DUP4 MLOAD DUP1 MLOAD PUSH1 0x20 DUP6 DUP4 ADD ADD DUP5 DUP2 MSTORE8 DUP2 DUP7 SUB PUSH2 0x9ED JUMPI PUSH1 0x1 DUP3 ADD DUP4 MSTORE JUMPDEST POP POP POP DUP4 SWAP1 POP SWAP4 SWAP3 POP POP POP JUMP JUMPDEST PUSH2 0xA02 PUSH2 0xB35 JUMP JUMPDEST DUP5 PUSH1 0x20 ADD MLOAD DUP5 DUP4 PUSH2 0xA13 SWAP2 SWAP1 PUSH2 0xE9A JUMP JUMPDEST GT ISZERO PUSH2 0xA3B JUMPI PUSH2 0xA3A DUP6 PUSH1 0x2 DUP7 DUP6 PUSH2 0xA2B SWAP2 SWAP1 PUSH2 0xE9A JUMP JUMPDEST PUSH2 0xA35 SWAP2 SWAP1 PUSH2 0x130B JUMP JUMPDEST PUSH2 0xAA4 JUMP JUMPDEST JUMPDEST PUSH1 0x0 PUSH1 0x1 DUP4 PUSH2 0x100 PUSH2 0xA4D SWAP2 SWAP1 PUSH2 0x1480 JUMP JUMPDEST PUSH2 0xA57 SWAP2 SWAP1 PUSH2 0x12D7 JUMP JUMPDEST SWAP1 POP DUP6 MLOAD DUP4 DUP7 DUP3 ADD ADD DUP6 DUP4 NOT DUP3 MLOAD AND OR DUP2 MSTORE DUP2 MLOAD DUP6 DUP9 ADD GT ISZERO PUSH2 0xA7A JUMPI DUP5 DUP8 ADD DUP3 MSTORE JUMPDEST POP POP DUP6 SWAP2 POP POP SWAP5 SWAP4 POP POP POP POP JUMP JUMPDEST PUSH1 0x0 DUP2 DUP4 GT ISZERO PUSH2 0xA9A JUMPI DUP3 SWAP1 POP PUSH2 0xA9E JUMP JUMPDEST DUP2 SWAP1 POP JUMPDEST SWAP3 SWAP2 POP POP JUMP JUMPDEST PUSH1 0x0 DUP3 PUSH1 0x0 ADD MLOAD SWAP1 POP PUSH2 0xAB7 DUP4 DUP4 PUSH2 0x662 JUMP JUMPDEST POP PUSH2 0xAC2 DUP4 DUP3 PUSH2 0x851 JUMP JUMPDEST POP POP POP POP JUMP JUMPDEST PUSH1 0x40 MLOAD DUP1 PUSH1 0xA0 ADD PUSH1 0x40 MSTORE DUP1 PUSH1 0x0 DUP1 NOT AND DUP2 MSTORE PUSH1 0x20 ADD PUSH1 0x0 PUSH20 0xFFFFFFFFFFFFFFFFFFFFFFFFFFFFFFFFFFFFFFFF AND DUP2 MSTORE PUSH1 0x20 ADD PUSH1 0x0 PUSH28 0xFFFFFFFFFFFFFFFFFFFFFFFFFFFFFFFFFFFFFFFFFFFFFFFFFFFFFFFF NOT AND DUP2 MSTORE PUSH1 0x20 ADD PUSH1 0x0 DUP2 MSTORE PUSH1 0x20 ADD PUSH2 0xB2F PUSH2 0xB35 JUMP JUMPDEST DUP2 MSTORE POP SWAP1 JUMP JUMPDEST PUSH1 0x40 MLOAD DUP1 PUSH1 0x40 ADD PUSH1 0x40 MSTORE DUP1 PUSH1 0x60 DUP2 MSTORE PUSH1 0x20 ADD PUSH1 0x0 DUP2 MSTORE POP SWAP1 JUMP JUMPDEST PUSH1 0x0 PUSH1 0x40 MLOAD SWAP1 POP SWAP1 JUMP JUMPDEST PUSH1 0x0 DUP1 REVERT JUMPDEST PUSH1 0x0 DUP1 REVERT JUMPDEST PUSH1 0x0 DUP1 REVERT JUMPDEST PUSH1 0x0 DUP1 REVERT JUMPDEST PUSH1 0x0 PUSH1 0x1F NOT PUSH1 0x1F DUP4 ADD AND SWAP1 POP SWAP2 SWAP1 POP JUMP JUMPDEST PUSH32 0x4E487B7100000000000000000000000000000000000000000000000000000000 PUSH1 0x0 MSTORE PUSH1 0x41 PUSH1 0x4 MSTORE PUSH1 0x24 PUSH1 0x0 REVERT JUMPDEST PUSH2 0xBB6 DUP3 PUSH2 0xB6D JUMP JUMPDEST DUP2 ADD DUP2 DUP2 LT PUSH8 0xFFFFFFFFFFFFFFFF DUP3 GT OR ISZERO PUSH2 0xBD5 JUMPI PUSH2 0xBD4 PUSH2 0xB7E JUMP JUMPDEST JUMPDEST DUP1 PUSH1 0x40 MSTORE POP POP POP JUMP JUMPDEST PUSH1 0x0 PUSH2 0xBE8 PUSH2 0xB4F JUMP JUMPDEST SWAP1 POP PUSH2 0xBF4 DUP3 DUP3 PUSH2 0xBAD JUMP JUMPDEST SWAP2 SWAP1 POP JUMP JUMPDEST PUSH1 0x0 PUSH8 0xFFFFFFFFFFFFFFFF DUP3 GT ISZERO PUSH2 0xC14 JUMPI PUSH2 0xC13 PUSH2 0xB7E JUMP JUMPDEST JUMPDEST PUSH2 0xC1D DUP3 PUSH2 0xB6D JUMP JUMPDEST SWAP1 POP PUSH1 0x20 DUP2 ADD SWAP1 POP SWAP2 SWAP1 POP JUMP JUMPDEST DUP3 DUP2 DUP4 CALLDATACOPY PUSH1 0x0 DUP4 DUP4 ADD MSTORE POP POP POP JUMP JUMPDEST PUSH1 0x0 PUSH2 0xC4C PUSH2 0xC47 DUP5 PUSH2 0xBF9 JUMP JUMPDEST PUSH2 0xBDE JUMP JUMPDEST SWAP1 POP DUP3 DUP2 MSTORE PUSH1 0x20 DUP2 ADD DUP5 DUP5 DUP5 ADD GT ISZERO PUSH2 0xC68 JUMPI PUSH2 0xC67 PUSH2 0xB68 JUMP JUMPDEST JUMPDEST PUSH2 0xC73 DUP5 DUP3 DUP6 PUSH2 0xC2A JUMP JUMPDEST POP SWAP4 SWAP3 POP POP POP JUMP JUMPDEST PUSH1 0x0 DUP3 PUSH1 0x1F DUP4 ADD SLT PUSH2 0xC90 JUMPI PUSH2 0xC8F PUSH2 0xB63 JUMP JUMPDEST JUMPDEST DUP2 CALLDATALOAD PUSH2 0xCA0 DUP5 DUP3 PUSH1 0x20 DUP7 ADD PUSH2 0xC39 JUMP JUMPDEST SWAP2 POP POP SWAP3 SWAP2 POP POP JUMP JUMPDEST PUSH1 0x0 PUSH1 0x20 DUP3 DUP5 SUB SLT ISZERO PUSH2 0xCBF JUMPI PUSH2 0xCBE PUSH2 0xB59 JUMP JUMPDEST JUMPDEST PUSH1 0x0 DUP3 ADD CALLDATALOAD PUSH8 0xFFFFFFFFFFFFFFFF DUP2 GT ISZERO PUSH2 0xCDD JUMPI PUSH2 0xCDC PUSH2 0xB5E JUMP JUMPDEST JUMPDEST PUSH2 0xCE9 DUP5 DUP3 DUP6 ADD PUSH2 0xC7B JUMP JUMPDEST SWAP2 POP POP SWAP3 SWAP2 POP POP JUMP JUMPDEST PUSH1 0x0 DUP2 SWAP1 POP SWAP2 SWAP1 POP JUMP JUMPDEST PUSH2 0xD05 DUP2 PUSH2 0xCF2 JUMP JUMPDEST DUP2 EQ PUSH2 0xD10 JUMPI PUSH1 0x0 DUP1 REVERT JUMPDEST POP JUMP JUMPDEST PUSH1 0x0 DUP2 CALLDATALOAD SWAP1 POP PUSH2 0xD22 DUP2 PUSH2 0xCFC JUMP JUMPDEST SWAP3 SWAP2 POP POP JUMP JUMPDEST PUSH1 0x0 DUP2 SWAP1 POP SWAP2 SWAP1 POP JUMP JUMPDEST PUSH2 0xD3B DUP2 PUSH2 0xD28 JUMP JUMPDEST DUP2 EQ PUSH2 0xD46 JUMPI PUSH1 0x0 DUP1 REVERT JUMPDEST POP JUMP JUMPDEST PUSH1 0x0 DUP2 CALLDATALOAD SWAP1 POP PUSH2 0xD58 DUP2 PUSH2 0xD32 JUMP JUMPDEST SWAP3 SWAP2 POP POP JUMP JUMPDEST PUSH1 0x0 DUP1 PUSH1 0x40 DUP4 DUP6 SUB SLT ISZERO PUSH2 0xD75 JUMPI PUSH2 0xD74 PUSH2 0xB59 JUMP JUMPDEST JUMPDEST PUSH1 0x0 PUSH2 0xD83 DUP6 DUP3 DUP7 ADD PUSH2 0xD13 JUMP JUMPDEST SWAP3 POP POP PUSH1 0x20 PUSH2 0xD94 DUP6 DUP3 DUP7 ADD PUSH2 0xD49 JUMP JUMPDEST SWAP2 POP POP SWAP3 POP SWAP3 SWAP1 POP JUMP JUMPDEST PUSH1 0x0 DUP3 DUP3 MSTORE PUSH1 0x20 DUP3 ADD SWAP1 POP SWAP3 SWAP2 POP POP JUMP JUMPDEST PUSH32 0x536F75726365206D75737420626520746865206F7261636C65206F6620746865 PUSH1 0x0 DUP3 ADD MSTORE PUSH32 0x2072657175657374000000000000000000000000000000000000000000000000 PUSH1 0x20 DUP3 ADD MSTORE POP JUMP JUMPDEST PUSH1 0x0 PUSH2 0xE0B PUSH1 0x28 DUP4 PUSH2 0xD9E JUMP JUMPDEST SWAP2 POP PUSH2 0xE16 DUP3 PUSH2 0xDAF JUMP JUMPDEST PUSH1 0x40 DUP3 ADD SWAP1 POP SWAP2 SWAP1 POP JUMP JUMPDEST PUSH1 0x0 PUSH1 0x20 DUP3 ADD SWAP1 POP DUP2 DUP2 SUB PUSH1 0x0 DUP4 ADD MSTORE PUSH2 0xE3A DUP2 PUSH2 0xDFE JUMP JUMPDEST SWAP1 POP SWAP2 SWAP1 POP JUMP JUMPDEST PUSH2 0xE4A DUP2 PUSH2 0xD28 JUMP JUMPDEST DUP3 MSTORE POP POP JUMP JUMPDEST PUSH1 0x0 PUSH1 0x20 DUP3 ADD SWAP1 POP PUSH2 0xE65 PUSH1 0x0 DUP4 ADD DUP5 PUSH2 0xE41 JUMP JUMPDEST SWAP3 SWAP2 POP POP JUMP JUMPDEST PUSH32 0x4E487B7100000000000000000000000000000000000000000000000000000000 PUSH1 0x0 MSTORE PUSH1 0x11 PUSH1 0x4 MSTORE PUSH1 0x24 PUSH1 0x0 REVERT JUMPDEST PUSH1 0x0 PUSH2 0xEA5 DUP3 PUSH2 0xD28 JUMP JUMPDEST SWAP2 POP PUSH2 0xEB0 DUP4 PUSH2 0xD28 JUMP JUMPDEST SWAP3 POP DUP3 DUP3 ADD SWAP1 POP DUP1 DUP3 GT ISZERO PUSH2 0xEC8 JUMPI PUSH2 0xEC7 PUSH2 0xE6B JUMP JUMPDEST JUMPDEST SWAP3 SWAP2 POP POP JUMP JUMPDEST PUSH1 0x0 PUSH20 0xFFFFFFFFFFFFFFFFFFFFFFFFFFFFFFFFFFFFFFFF DUP3 AND SWAP1 POP SWAP2 SWAP1 POP JUMP JUMPDEST PUSH1 0x0 PUSH2 0xEF9 DUP3 PUSH2 0xECE JUMP JUMPDEST SWAP1 POP SWAP2 SWAP1 POP JUMP JUMPDEST PUSH2 0xF09 DUP2 PUSH2 0xEEE JUMP JUMPDEST DUP3 MSTORE POP POP JUMP JUMPDEST PUSH2 0xF18 DUP2 PUSH2 0xCF2 JUMP JUMPDEST DUP3 MSTORE POP POP JUMP JUMPDEST PUSH1 0x0 PUSH32 0xFFFFFFFF00000000000000000000000000000000000000000000000000000000 DUP3 AND SWAP1 POP SWAP2 SWAP1 POP JUMP JUMPDEST PUSH2 0xF53 DUP2 PUSH2 0xF1E JUMP JUMPDEST DUP3 MSTORE POP POP JUMP JUMPDEST PUSH1 0x0 DUP2 MLOAD SWAP1 POP SWAP2 SWAP1 POP JUMP JUMPDEST PUSH1 0x0 DUP3 DUP3 MSTORE PUSH1 0x20 DUP3 ADD SWAP1 POP SWAP3 SWAP2 POP POP JUMP JUMPDEST PUSH1 0x0 JUMPDEST DUP4 DUP2 LT ISZERO PUSH2 0xF93 JUMPI DUP1 DUP3 ADD MLOAD DUP2 DUP5 ADD MSTORE PUSH1 0x20 DUP2 ADD SWAP1 POP PUSH2 0xF78 JUMP JUMPDEST PUSH1 0x0 DUP5 DUP5 ADD MSTORE POP POP POP POP JUMP JUMPDEST PUSH1 0x0 PUSH2 0xFAA DUP3 PUSH2 0xF59 JUMP JUMPDEST PUSH2 0xFB4 DUP2 DUP6 PUSH2 0xF64 JUMP JUMPDEST SWAP4 POP PUSH2 0xFC4 DUP2 DUP6 PUSH1 0x20 DUP7 ADD PUSH2 0xF75 JUMP JUMPDEST PUSH2 0xFCD DUP2 PUSH2 0xB6D JUMP JUMPDEST DUP5 ADD SWAP2 POP POP SWAP3 SWAP2 POP POP JUMP JUMPDEST PUSH1 0x0 PUSH2 0x100 DUP3 ADD SWAP1 POP PUSH2 0xFEE PUSH1 0x0 DUP4 ADD DUP12 PUSH2 0xF00 JUMP JUMPDEST PUSH2 0xFFB PUSH1 0x20 DUP4 ADD DUP11 PUSH2 0xE41 JUMP JUMPDEST PUSH2 0x1008 PUSH1 0x40 DUP4 ADD DUP10 PUSH2 0xF0F JUMP JUMPDEST PUSH2 0x1015 PUSH1 0x60 DUP4 ADD DUP9 PUSH2 0xF00 JUMP JUMPDEST PUSH2 0x1022 PUSH1 0x80 DUP4 ADD DUP8 PUSH2 0xF4A JUMP JUMPDEST PUSH2 0x102F PUSH1 0xA0 DUP4 ADD DUP7 PUSH2 0xE41 JUMP JUMPDEST PUSH2 0x103C PUSH1 0xC0 DUP4 ADD DUP6 PUSH2 0xE41 JUMP JUMPDEST DUP2 DUP2 SUB PUSH1 0xE0 DUP4 ADD MSTORE PUSH2 0x104E DUP2 DUP5 PUSH2 0xF9F JUMP JUMPDEST SWAP1 POP SWAP10 SWAP9 POP POP POP POP POP POP POP POP POP JUMP JUMPDEST PUSH1 0x0 DUP2 SWAP1 POP SWAP2 SWAP1 POP JUMP JUMPDEST PUSH1 0x0 PUSH2 0x1082 PUSH2 0x107D PUSH2 0x1078 DUP5 PUSH2 0xECE JUMP JUMPDEST PUSH2 0x105D JUMP JUMPDEST PUSH2 0xECE JUMP JUMPDEST SWAP1 POP SWAP2 SWAP1 POP JUMP JUMPDEST PUSH1 0x0 PUSH2 0x1094 DUP3 PUSH2 0x1067 JUMP JUMPDEST SWAP1 POP SWAP2 SWAP1 POP JUMP JUMPDEST PUSH1 0x0 PUSH2 0x10A6 DUP3 PUSH2 0x1089 JUMP JUMPDEST SWAP1 POP SWAP2 SWAP1 POP JUMP JUMPDEST PUSH1 0x0 DUP2 PUSH1 0x60 SHL SWAP1 POP SWAP2 SWAP1 POP JUMP JUMPDEST PUSH1 0x0 PUSH2 0x10C5 DUP3 PUSH2 0x10AD JUMP JUMPDEST SWAP1 POP SWAP2 SWAP1 POP JUMP JUMPDEST PUSH1 0x0 PUSH2 0x10D7 DUP3 PUSH2 0x10BA JUMP JUMPDEST SWAP1 POP SWAP2 SWAP1 POP JUMP JUMPDEST PUSH2 0x10EF PUSH2 0x10EA DUP3 PUSH2 0x109B JUMP JUMPDEST PUSH2 0x10CC JUMP JUMPDEST DUP3 MSTORE POP POP JUMP JUMPDEST PUSH1 0x0 DUP2 SWAP1 POP SWAP2 SWAP1 POP JUMP JUMPDEST PUSH2 0x1110 PUSH2 0x110B DUP3 PUSH2 0xD28 JUMP JUMPDEST PUSH2 0x10F5 JUMP JUMPDEST DUP3 MSTORE POP POP JUMP JUMPDEST PUSH1 0x0 PUSH2 0x1122 DUP3 DUP6 PUSH2 0x10DE JUMP JUMPDEST PUSH1 0x14 DUP3 ADD SWAP2 POP PUSH2 0x1132 DUP3 DUP5 PUSH2 0x10FF JUMP JUMPDEST PUSH1 0x20 DUP3 ADD SWAP2 POP DUP2 SWAP1 POP SWAP4 SWAP3 POP POP POP JUMP JUMPDEST PUSH1 0x0 PUSH1 0x60 DUP3 ADD SWAP1 POP PUSH2 0x1157 PUSH1 0x0 DUP4 ADD DUP7 PUSH2 0xF00 JUMP JUMPDEST PUSH2 0x1164 PUSH1 0x20 DUP4 ADD DUP6 PUSH2 0xE41 JUMP JUMPDEST DUP2 DUP2 SUB PUSH1 0x40 DUP4 ADD MSTORE PUSH2 0x1176 DUP2 DUP5 PUSH2 0xF9F JUMP JUMPDEST SWAP1 POP SWAP5 SWAP4 POP POP POP POP JUMP JUMPDEST PUSH1 0x0 DUP2 ISZERO ISZERO SWAP1 POP SWAP2 SWAP1 POP JUMP JUMPDEST PUSH2 0x1195 DUP2 PUSH2 0x1180 JUMP JUMPDEST DUP2 EQ PUSH2 0x11A0 JUMPI PUSH1 0x0 DUP1 REVERT JUMPDEST POP JUMP JUMPDEST PUSH1 0x0 DUP2 MLOAD SWAP1 POP PUSH2 0x11B2 DUP2 PUSH2 0x118C JUMP JUMPDEST SWAP3 SWAP2 POP POP JUMP JUMPDEST PUSH1 0x0 PUSH1 0x20 DUP3 DUP5 SUB SLT ISZERO PUSH2 0x11CE JUMPI PUSH2 0x11CD PUSH2 0xB59 JUMP JUMPDEST JUMPDEST PUSH1 0x0 PUSH2 0x11DC DUP5 DUP3 DUP6 ADD PUSH2 0x11A3 JUMP JUMPDEST SWAP2 POP POP SWAP3 SWAP2 POP POP JUMP JUMPDEST PUSH32 0x756E61626C6520746F207472616E73666572416E6443616C6C20746F206F7261 PUSH1 0x0 DUP3 ADD MSTORE PUSH32 0x636C650000000000000000000000000000000000000000000000000000000000 PUSH1 0x20 DUP3 ADD MSTORE POP JUMP JUMPDEST PUSH1 0x0 PUSH2 0x1241 PUSH1 0x23 DUP4 PUSH2 0xD9E JUMP JUMPDEST SWAP2 POP PUSH2 0x124C DUP3 PUSH2 0x11E5 JUMP JUMPDEST PUSH1 0x40 DUP3 ADD SWAP1 POP SWAP2 SWAP1 POP JUMP JUMPDEST PUSH1 0x0 PUSH1 0x20 DUP3 ADD SWAP1 POP DUP2 DUP2 SUB PUSH1 0x0 DUP4 ADD MSTORE PUSH2 0x1270 DUP2 PUSH2 0x1234 JUMP JUMPDEST SWAP1 POP SWAP2 SWAP1 POP JUMP JUMPDEST PUSH32 0x4E487B7100000000000000000000000000000000000000000000000000000000 PUSH1 0x0 MSTORE PUSH1 0x12 PUSH1 0x4 MSTORE PUSH1 0x24 PUSH1 0x0 REVERT JUMPDEST PUSH1 0x0 PUSH2 0x12B1 DUP3 PUSH2 0xD28 JUMP JUMPDEST SWAP2 POP PUSH2 0x12BC DUP4 PUSH2 0xD28 JUMP JUMPDEST SWAP3 POP DUP3 PUSH2 0x12CC JUMPI PUSH2 0x12CB PUSH2 0x1277 JUMP JUMPDEST JUMPDEST DUP3 DUP3 MOD SWAP1 POP SWAP3 SWAP2 POP POP JUMP JUMPDEST PUSH1 0x0 PUSH2 0x12E2 DUP3 PUSH2 0xD28 JUMP JUMPDEST SWAP2 POP PUSH2 0x12ED DUP4 PUSH2 0xD28 JUMP JUMPDEST SWAP3 POP DUP3 DUP3 SUB SWAP1 POP DUP2 DUP2 GT ISZERO PUSH2 0x1305 JUMPI PUSH2 0x1304 PUSH2 0xE6B JUMP JUMPDEST JUMPDEST SWAP3 SWAP2 POP POP JUMP JUMPDEST PUSH1 0x0 PUSH2 0x1316 DUP3 PUSH2 0xD28 JUMP JUMPDEST SWAP2 POP PUSH2 0x1321 DUP4 PUSH2 0xD28 JUMP JUMPDEST SWAP3 POP DUP3 DUP3 MUL PUSH2 0x132F DUP2 PUSH2 0xD28 JUMP JUMPDEST SWAP2 POP DUP3 DUP3 DIV DUP5 EQ DUP4 ISZERO OR PUSH2 0x1346 JUMPI PUSH2 0x1345 PUSH2 0xE6B JUMP JUMPDEST JUMPDEST POP SWAP3 SWAP2 POP POP JUMP JUMPDEST PUSH1 0x0 DUP2 PUSH1 0x1 SHR SWAP1 POP SWAP2 SWAP1 POP JUMP JUMPDEST PUSH1 0x0 DUP1 DUP3 SWAP2 POP DUP4 SWAP1 POP JUMPDEST PUSH1 0x1 DUP6 GT ISZERO PUSH2 0x13A4 JUMPI DUP1 DUP7 DIV DUP2 GT ISZERO PUSH2 0x1380 JUMPI PUSH2 0x137F PUSH2 0xE6B JUMP JUMPDEST JUMPDEST PUSH1 0x1 DUP6 AND ISZERO PUSH2 0x138F JUMPI DUP1 DUP3 MUL SWAP2 POP JUMPDEST DUP1 DUP2 MUL SWAP1 POP PUSH2 0x139D DUP6 PUSH2 0x134D JUMP JUMPDEST SWAP5 POP PUSH2 0x1364 JUMP JUMPDEST SWAP5 POP SWAP5 SWAP3 POP POP POP JUMP JUMPDEST PUSH1 0x0 DUP3 PUSH2 0x13BD JUMPI PUSH1 0x1 SWAP1 POP PUSH2 0x1479 JUMP JUMPDEST DUP2 PUSH2 0x13CB JUMPI PUSH1 0x0 SWAP1 POP PUSH2 0x1479 JUMP JUMPDEST DUP2 PUSH1 0x1 DUP2 EQ PUSH2 0x13E1 JUMPI PUSH1 0x2 DUP2 EQ PUSH2 0x13EB JUMPI PUSH2 0x141A JUMP JUMPDEST PUSH1 0x1 SWAP2 POP POP PUSH2 0x1479 JUMP JUMPDEST PUSH1 0xFF DUP5 GT ISZERO PUSH2 0x13FD JUMPI PUSH2 0x13FC PUSH2 0xE6B JUMP JUMPDEST JUMPDEST DUP4 PUSH1 0x2 EXP SWAP2 POP DUP5 DUP3 GT ISZERO PUSH2 0x1414 JUMPI PUSH2 0x1413 PUSH2 0xE6B JUMP JUMPDEST JUMPDEST POP PUSH2 0x1479 JUMP JUMPDEST POP PUSH1 0x20 DUP4 LT PUSH2 0x133 DUP4 LT AND PUSH1 0x4E DUP5 LT PUSH1 0xB DUP5 LT AND OR ISZERO PUSH2 0x144F JUMPI DUP3 DUP3 EXP SWAP1 POP DUP4 DUP2 GT ISZERO PUSH2 0x144A JUMPI PUSH2 0x1449 PUSH2 0xE6B JUMP JUMPDEST JUMPDEST PUSH2 0x1479 JUMP JUMPDEST PUSH2 0x145C DUP5 DUP5 DUP5 PUSH1 0x1 PUSH2 0x135A JUMP JUMPDEST SWAP3 POP SWAP1 POP DUP2 DUP5 DIV DUP2 GT ISZERO PUSH2 0x1473 JUMPI PUSH2 0x1472 PUSH2 0xE6B JUMP JUMPDEST JUMPDEST DUP2 DUP2 MUL SWAP1 POP JUMPDEST SWAP4 SWAP3 POP POP POP JUMP JUMPDEST PUSH1 0x0 PUSH2 0x148B DUP3 PUSH2 0xD28 JUMP JUMPDEST SWAP2 POP PUSH2 0x1496 DUP4 PUSH2 0xD28 JUMP JUMPDEST SWAP3 POP PUSH2 0x14C3 PUSH32 0xFFFFFFFFFFFFFFFFFFFFFFFFFFFFFFFFFFFFFFFFFFFFFFFFFFFFFFFFFFFFFFFF DUP5 DUP5 PUSH2 0x13AD JUMP JUMPDEST SWAP1 POP SWAP3 SWAP2 POP POP JUMP INVALID LOG2 PUSH5 0x6970667358 0x22 SLT KECCAK256 EQ 0x2E SWAP15 0xE3 LOG4 SAR 0x4C 0xE0 CODECOPY 0x4B ADDMOD EXTCODECOPY 0xE3 GT XOR OR 0xBB RETURNDATASIZE SWAP2 JUMP 0xEC 0xDE 0xAD 0xC SWAP12 PUSH10 0xB923A113ABE864736F6C PUSH4 0x43000812 STOP CALLER "
				},
				"gasEstimates": {
					"creation": {
						"codeDepositCost": "1075400",
						"executionCost": "infinite",
						"totalCost": "infinite"
					},
					"external": {
						"fulfill(bytes32,uint256)": "infinite",
						"requestDataFromChainlink(string)": "infinite"
					}
				},
				"methodIdentifiers": {
					"fulfill(bytes32,uint256)": "4357855e",
					"requestDataFromChainlink(string)": "28b0af2c"
				}
			},
			"storageLayout": {
				"storage": [
					{
						"astId": 319,
						"contract": "Users/xopherw/Documents/nishant/smart contracts/ea-fastapi/contracts/FastAPI.sol:FastAPI",
						"label": "s_ens",
						"offset": 0,
						"slot": "0",
						"type": "t_contract(ENSInterface)974"
					},
					{
						"astId": 321,
						"contract": "Users/xopherw/Documents/nishant/smart contracts/ea-fastapi/contracts/FastAPI.sol:FastAPI",
						"label": "s_ensNode",
						"offset": 0,
						"slot": "1",
						"type": "t_bytes32"
					},
					{
						"astId": 324,
						"contract": "Users/xopherw/Documents/nishant/smart contracts/ea-fastapi/contracts/FastAPI.sol:FastAPI",
						"label": "s_link",
						"offset": 0,
						"slot": "2",
						"type": "t_contract(LinkTokenInterface)1069"
					},
					{
						"astId": 327,
						"contract": "Users/xopherw/Documents/nishant/smart contracts/ea-fastapi/contracts/FastAPI.sol:FastAPI",
						"label": "s_oracle",
						"offset": 0,
						"slot": "3",
						"type": "t_contract(OperatorInterface)1149"
					},
					{
						"astId": 330,
						"contract": "Users/xopherw/Documents/nishant/smart contracts/ea-fastapi/contracts/FastAPI.sol:FastAPI",
						"label": "s_requestCount",
						"offset": 0,
						"slot": "4",
						"type": "t_uint256"
					},
					{
						"astId": 334,
						"contract": "Users/xopherw/Documents/nishant/smart contracts/ea-fastapi/contracts/FastAPI.sol:FastAPI",
						"label": "s_pendingRequests",
						"offset": 0,
						"slot": "5",
						"type": "t_mapping(t_bytes32,t_address)"
					},
					{
						"astId": 2186,
						"contract": "Users/xopherw/Documents/nishant/smart contracts/ea-fastapi/contracts/FastAPI.sol:FastAPI",
						"label": "oracle",
						"offset": 0,
						"slot": "6",
						"type": "t_address"
					},
					{
						"astId": 2188,
						"contract": "Users/xopherw/Documents/nishant/smart contracts/ea-fastapi/contracts/FastAPI.sol:FastAPI",
						"label": "jobId",
						"offset": 0,
						"slot": "7",
						"type": "t_bytes32"
					}
				],
				"types": {
					"t_address": {
						"encoding": "inplace",
						"label": "address",
						"numberOfBytes": "20"
					},
					"t_bytes32": {
						"encoding": "inplace",
						"label": "bytes32",
						"numberOfBytes": "32"
					},
					"t_contract(ENSInterface)974": {
						"encoding": "inplace",
						"label": "contract ENSInterface",
						"numberOfBytes": "20"
					},
					"t_contract(LinkTokenInterface)1069": {
						"encoding": "inplace",
						"label": "contract LinkTokenInterface",
						"numberOfBytes": "20"
					},
					"t_contract(OperatorInterface)1149": {
						"encoding": "inplace",
						"label": "contract OperatorInterface",
						"numberOfBytes": "20"
					},
					"t_mapping(t_bytes32,t_address)": {
						"encoding": "mapping",
						"key": "t_bytes32",
						"label": "mapping(bytes32 => address)",
						"numberOfBytes": "32",
						"value": "t_address"
					},
					"t_uint256": {
						"encoding": "inplace",
						"label": "uint256",
						"numberOfBytes": "32"
					}
				}
			},
			"userdoc": {
				"kind": "user",
				"methods": {},
				"version": 1
			}
		}
	}
}