{
	"data": {
		"bytecode": {
			"linkReferences": {},
			"object": "608060405260016004553480156200001657600080fd5b5062000027620000a960201b60201c565b7312f2d6b0783127c62956fff73f4d7f701433b6f5600660006101000a81548173ffffffffffffffffffffffffffffffffffffffff021916908373ffffffffffffffffffffffffffffffffffffffff1602179055507f313961653638383438646663346633653965663233376539663935623265343460078190555062000221565b6200013f73c89bd4e1632d3a43cb03aaad5262cbe4038bc57173ffffffffffffffffffffffffffffffffffffffff166338cc48316040518163ffffffff1660e01b8152600401602060405180830381865afa1580156200010d573d6000803e3d6000fd5b505050506040513d601f19601f82011682018060405250810190620001339190620001ef565b6200014160201b60201c565b565b80600260006101000a81548173ffffffffffffffffffffffffffffffffffffffff021916908373ffffffffffffffffffffffffffffffffffffffff16021790555050565b600080fd5b600073ffffffffffffffffffffffffffffffffffffffff82169050919050565b6000620001b7826200018a565b9050919050565b620001c981620001aa565b8114620001d557600080fd5b50565b600081519050620001e981620001be565b92915050565b60006020828403121562000208576200020762000185565b5b60006200021884828501620001d8565b91505092915050565b61150180620002316000396000f3fe608060405234801561001057600080fd5b50600436106100365760003560e01c806328b0af2c1461003b5780634357855e14610057575b600080fd5b61005560048036038101906100509190610ca9565b610073565b005b610071600480360381019061006c9190610d5e565b610187565b005b600061008960075430634357855e60e01b6102c8565b90506100d56040518060400160405280600381526020017f676574000000000000000000000000000000000000000000000000000000000081525083836102f99092919063ffffffff16565b6101546040518060400160405280600481526020017f70617468000000000000000000000000000000000000000000000000000000008152506040518060400160405280600681526020017f726573756c740000000000000000000000000000000000000000000000000000815250836102f99092919063ffffffff16565b610182600660009054906101000a900473ffffffffffffffffffffffffffffffffffffffff1682600061032c565b505050565b816005600082815260200190815260200160002060009054906101000a900473ffffffffffffffffffffffffffffffffffffffff1673ffffffffffffffffffffffffffffffffffffffff163373ffffffffffffffffffffffffffffffffffffffff1614610229576040517f08c379a000000000000000000000000000000000000000000000000000000000815260040161022090610e21565b60405180910390fd5b6005600082815260200190815260200160002060006101000a81549073ffffffffffffffffffffffffffffffffffffffff0219169055807f7cc135e0cebb02c3480ae5d74d377283180a2601f8f644edf7987b009316c63a60405160405180910390a27f8d045d83adae4e040b333d2a52a74f1f89f04241cffcb4802aaf0507ce24d20f826040516102bb9190610e50565b60405180910390a1505050565b6102d0610ac8565b6102d8610ac8565b6102ef858585846103f8909392919063ffffffff16565b9150509392505050565b6103108284608001516104a890919063ffffffff16565b6103278184608001516104a890919063ffffffff16565b505050565b60008060045490506001816103419190610e9a565b6004819055506000634042994660e01b60008087600001513089604001518760018c6080015160000151604051602401610382989796959493929190610fd8565b604051602081830303815290604052907bffffffffffffffffffffffffffffffffffffffffffffffffffffffff19166020820180517bffffffffffffffffffffffffffffffffffffffffffffffffffffffff838183161783525050505090506103ed868386846104cd565b925050509392505050565b610400610ac8565b6104108560800151610100610662565b508385600001818152505082856020019073ffffffffffffffffffffffffffffffffffffffff16908173ffffffffffffffffffffffffffffffffffffffff16815250508185604001907bffffffffffffffffffffffffffffffffffffffffffffffffffffffff191690817bffffffffffffffffffffffffffffffffffffffffffffffffffffffff191681525050849050949350505050565b6104b582600383516106cc565b6104c8818361085190919063ffffffff16565b505050565b600030846040516020016104e2929190611116565b604051602081830303815290604052805190602001209050846005600083815260200190815260200160002060006101000a81548173ffffffffffffffffffffffffffffffffffffffff021916908373ffffffffffffffffffffffffffffffffffffffff160217905550807fb5e6e01e79f91267dc17b4e6314d5d4d03593d2ceee0fbb452b750bd70ea5af960405160405180910390a2600260009054906101000a900473ffffffffffffffffffffffffffffffffffffffff1673ffffffffffffffffffffffffffffffffffffffff16634000aea08685856040518463ffffffff1660e01b81526004016105d893929190611142565b6020604051808303816000875af11580156105f7573d6000803e3d6000fd5b505050506040513d601f19601f8201168201806040525081019061061b91906111b8565b61065a576040517f08c379a000000000000000000000000000000000000000000000000000000000815260040161065190611257565b60405180910390fd5b949350505050565b61066a610b35565b600060208361067991906112a6565b146106a55760208261068b91906112a6565b602061069791906112d7565b826106a29190610e9a565b91505b81836020018181525050604051808452600081528281016020016040525082905092915050565b60178167ffffffffffffffff1611610703576106fd8160058460ff16901b60ff16178461087390919063ffffffff16565b5061084c565b60ff8167ffffffffffffffff161161075957610732601860058460ff16901b178461087390919063ffffffff16565b506107538167ffffffffffffffff166001856108939092919063ffffffff16565b5061084b565b61ffff8167ffffffffffffffff16116107b057610789601960058460ff16901b178461087390919063ffffffff16565b506107aa8167ffffffffffffffff166002856108939092919063ffffffff16565b5061084a565b63ffffffff8167ffffffffffffffff1611610809576107e2601a60058460ff16901b178461087390919063ffffffff16565b506108038167ffffffffffffffff166004856108939092919063ffffffff16565b50610849565b610826601b60058460ff16901b178461087390919063ffffffff16565b506108478167ffffffffffffffff166008856108939092919063ffffffff16565b505b5b5b5b505050565b610859610b35565b61086b838460000151518485516108b5565b905092915050565b61087b610b35565b61088b83846000015151846109a4565b905092915050565b61089b610b35565b6108ac8485600001515185856109fa565b90509392505050565b6108bd610b35565b82518211156108cb57600080fd5b846020015182856108dc9190610e9a565b111561091157610910856002610901886020015188876108fc9190610e9a565b610a88565b61090b919061130b565b610aa4565b5b6000808651805187602083010193508088870111156109305787860182525b60208701925050505b6020841061097757805182526020826109529190610e9a565b91506020816109619190610e9a565b905060208461097091906112d7565b9350610939565b60006001856020036101000a03905080198251168184511681811785525050508692505050949350505050565b6109ac610b35565b836020015183106109d2576109d184600286602001516109cc919061130b565b610aa4565b5b835180516020858301018481538186036109ed576001820183525b5050508390509392505050565b610a02610b35565b84602001518483610a139190610e9a565b1115610a3b57610a3a8560028685610a2b9190610e9a565b610a35919061130b565b610aa4565b5b6000600183610100610a4d9190611480565b610a5791906112d7565b90508551838682010185831982511617815281518588011115610a7a5784870182525b505085915050949350505050565b600081831115610a9a57829050610a9e565b8190505b92915050565b600082600001519050610ab78383610662565b50610ac28382610851565b50505050565b6040518060a0016040528060008019168152602001600073ffffffffffffffffffffffffffffffffffffffff16815260200160007bffffffffffffffffffffffffffffffffffffffffffffffffffffffff1916815260200160008152602001610b2f610b35565b81525090565b604051806040016040528060608152602001600081525090565b6000604051905090565b600080fd5b600080fd5b600080fd5b600080fd5b6000601f19601f8301169050919050565b7f4e487b7100000000000000000000000000000000000000000000000000000000600052604160045260246000fd5b610bb682610b6d565b810181811067ffffffffffffffff82111715610bd557610bd4610b7e565b5b80604052505050565b6000610be8610b4f565b9050610bf48282610bad565b919050565b600067ffffffffffffffff821115610c1457610c13610b7e565b5b610c1d82610b6d565b9050602081019050919050565b82818337600083830152505050565b6000610c4c610c4784610bf9565b610bde565b905082815260208101848484011115610c6857610c67610b68565b5b610c73848285610c2a565b509392505050565b600082601f830112610c9057610c8f610b63565b5b8135610ca0848260208601610c39565b91505092915050565b600060208284031215610cbf57610cbe610b59565b5b600082013567ffffffffffffffff811115610cdd57610cdc610b5e565b5b610ce984828501610c7b565b91505092915050565b6000819050919050565b610d0581610cf2565b8114610d1057600080fd5b50565b600081359050610d2281610cfc565b92915050565b6000819050919050565b610d3b81610d28565b8114610d4657600080fd5b50565b600081359050610d5881610d32565b92915050565b60008060408385031215610d7557610d74610b59565b5b6000610d8385828601610d13565b9250506020610d9485828601610d49565b9150509250929050565b600082825260208201905092915050565b7f536f75726365206d75737420626520746865206f7261636c65206f662074686560008201527f2072657175657374000000000000000000000000000000000000000000000000602082015250565b6000610e0b602883610d9e565b9150610e1682610daf565b604082019050919050565b60006020820190508181036000830152610e3a81610dfe565b9050919050565b610e4a81610d28565b82525050565b6000602082019050610e656000830184610e41565b92915050565b7f4e487b7100000000000000000000000000000000000000000000000000000000600052601160045260246000fd5b6000610ea582610d28565b9150610eb083610d28565b9250828201905080821115610ec857610ec7610e6b565b5b92915050565b600073ffffffffffffffffffffffffffffffffffffffff82169050919050565b6000610ef982610ece565b9050919050565b610f0981610eee565b82525050565b610f1881610cf2565b82525050565b60007fffffffff0000000000000000000000000000000000000000000000000000000082169050919050565b610f5381610f1e565b82525050565b600081519050919050565b600082825260208201905092915050565b60005b83811015610f93578082015181840152602081019050610f78565b60008484015250505050565b6000610faa82610f59565b610fb48185610f64565b9350610fc4818560208601610f75565b610fcd81610b6d565b840191505092915050565b600061010082019050610fee600083018b610f00565b610ffb602083018a610e41565b6110086040830189610f0f565b6110156060830188610f00565b6110226080830187610f4a565b61102f60a0830186610e41565b61103c60c0830185610e41565b81810360e083015261104e8184610f9f565b90509998505050505050505050565b6000819050919050565b600061108261107d61107884610ece565b61105d565b610ece565b9050919050565b600061109482611067565b9050919050565b60006110a682611089565b9050919050565b60008160601b9050919050565b60006110c5826110ad565b9050919050565b60006110d7826110ba565b9050919050565b6110ef6110ea8261109b565b6110cc565b82525050565b6000819050919050565b61111061110b82610d28565b6110f5565b82525050565b600061112282856110de565b60148201915061113282846110ff565b6020820191508190509392505050565b60006060820190506111576000830186610f00565b6111646020830185610e41565b81810360408301526111768184610f9f565b9050949350505050565b60008115159050919050565b61119581611180565b81146111a057600080fd5b50565b6000815190506111b28161118c565b92915050565b6000602082840312156111ce576111cd610b59565b5b60006111dc848285016111a3565b91505092915050565b7f756e61626c6520746f207472616e73666572416e6443616c6c20746f206f726160008201527f636c650000000000000000000000000000000000000000000000000000000000602082015250565b6000611241602383610d9e565b915061124c826111e5565b604082019050919050565b6000602082019050818103600083015261127081611234565b9050919050565b7f4e487b7100000000000000000000000000000000000000000000000000000000600052601260045260246000fd5b60006112b182610d28565b91506112bc83610d28565b9250826112cc576112cb611277565b5b828206905092915050565b60006112e282610d28565b91506112ed83610d28565b925082820390508181111561130557611304610e6b565b5b92915050565b600061131682610d28565b915061132183610d28565b925082820261132f81610d28565b9150828204841483151761134657611345610e6b565b5b5092915050565b60008160011c9050919050565b6000808291508390505b60018511156113a4578086048111156113805761137f610e6b565b5b600185161561138f5780820291505b808102905061139d8561134d565b9450611364565b94509492505050565b6000826113bd5760019050611479565b816113cb5760009050611479565b81600181146113e157600281146113eb5761141a565b6001915050611479565b60ff8411156113fd576113fc610e6b565b5b8360020a91508482111561141457611413610e6b565b5b50611479565b5060208310610133831016604e8410600b841016171561144f5782820a90508381111561144a57611449610e6b565b5b611479565b61145c848484600161135a565b9250905081840481111561147357611472610e6b565b5b81810290505b9392505050565b600061148b82610d28565b915061149683610d28565b92506114c37fffffffffffffffffffffffffffffffffffffffffffffffffffffffffffffffff84846113ad565b90509291505056fea2646970667358221220142e9ee3a41d4ce0394b083ce3111817bb3d9156ecdead0c9b69b923a113abe864736f6c63430008120033",
			"opcodes": "PUSH1 0x80 PUSH1 0x40 MSTORE PUSH1 0x1 PUSH1 0x4 SSTORE CALLVALUE DUP1 ISZERO PUSH3 0x16 JUMPI PUSH1 0x0 DUP1 REVERT JUMPDEST POP PUSH3 0x27 PUSH3 0xA9 PUSH1 0x20 SHL PUSH1 0x20 SHR JUMP JUMPDEST PUSH20 0x12F2D6B0783127C62956FFF73F4D7F701433B6F5 PUSH1 0x6 PUSH1 0x0 PUSH2 0x100 EXP DUP2 SLOAD DUP2 PUSH20 0xFFFFFFFFFFFFFFFFFFFFFFFFFFFFFFFFFFFFFFFF MUL NOT AND SWAP1 DUP4 PUSH20 0xFFFFFFFFFFFFFFFFFFFFFFFFFFFFFFFFFFFFFFFF AND MUL OR SWAP1 SSTORE POP PUSH32 0x3139616536383834386466633466336539656632333765396639356232653434 PUSH1 0x7 DUP2 SWAP1 SSTORE POP PUSH3 0x221 JUMP JUMPDEST PUSH3 0x13F PUSH20 0xC89BD4E1632D3A43CB03AAAD5262CBE4038BC571 PUSH20 0xFFFFFFFFFFFFFFFFFFFFFFFFFFFFFFFFFFFFFFFF AND PUSH4 0x38CC4831 PUSH1 0x40 MLOAD DUP2 PUSH4 0xFFFFFFFF AND PUSH1 0xE0 SHL DUP2 MSTORE PUSH1 0x4 ADD PUSH1 0x20 PUSH1 0x40 MLOAD DUP1 DUP4 SUB DUP2 DUP7 GAS STATICCALL ISZERO DUP1 ISZERO PUSH3 0x10D JUMPI RETURNDATASIZE PUSH1 0x0 DUP1 RETURNDATACOPY RETURNDATASIZE PUSH1 0x0 REVERT JUMPDEST POP POP POP POP PUSH1 0x40 MLOAD RETURNDATASIZE PUSH1 0x1F NOT PUSH1 0x1F DUP3 ADD AND DUP3 ADD DUP1 PUSH1 0x40 MSTORE POP DUP2 ADD SWAP1 PUSH3 0x133 SWAP2 SWAP1 PUSH3 0x1EF JUMP JUMPDEST PUSH3 0x141 PUSH1 0x20 SHL PUSH1 0x20 SHR JUMP JUMPDEST JUMP JUMPDEST DUP1 PUSH1 0x2 PUSH1 0x0 PUSH2 0x100 EXP DUP2 SLOAD DUP2 PUSH20 0xFFFFFFFFFFFFFFFFFFFFFFFFFFFFFFFFFFFFFFFF MUL NOT AND SWAP1 DUP4 PUSH20 0xFFFFFFFFFFFFFFFFFFFFFFFFFFFFFFFFFFFFFFFF AND MUL OR SWAP1 SSTORE POP POP JUMP JUMPDEST PUSH1 0x0 DUP1 REVERT JUMPDEST PUSH1 0x0 PUSH20 0xFFFFFFFFFFFFFFFFFFFFFFFFFFFFFFFFFFFFFFFF DUP3 AND SWAP1 POP SWAP2 SWAP1 POP JUMP JUMPDEST PUSH1 0x0 PUSH3 0x1B7 DUP3 PUSH3 0x18A JUMP JUMPDEST SWAP1 POP SWAP2 SWAP1 POP JUMP JUMPDEST PUSH3 0x1C9 DUP2 PUSH3 0x1AA JUMP JUMPDEST DUP2 EQ PUSH3 0x1D5 JUMPI PUSH1 0x0 DUP1 REVERT JUMPDEST POP JUMP JUMPDEST PUSH1 0x0 DUP2 MLOAD SWAP1 POP PUSH3 0x1E9 DUP2 PUSH3 0x1BE JUMP JUMPDEST SWAP3 SWAP2 POP POP JUMP JUMPDEST PUSH1 0x0 PUSH1 0x20 DUP3 DUP5 SUB SLT ISZERO PUSH3 0x208 JUMPI PUSH3 0x207 PUSH3 0x185 JUMP JUMPDEST JUMPDEST PUSH1 0x0 PUSH3 0x218 DUP5 DUP3 DUP6 ADD PUSH3 0x1D8 JUMP JUMPDEST SWAP2 POP POP SWAP3 SWAP2 POP POP JUMP JUMPDEST PUSH2 0x1501 DUP1 PUSH3 0x231 PUSH1 0x0 CODECOPY PUSH1 0x0 RETURN INVALID PUSH1 0x80 PUSH1 0x40 MSTORE CALLVALUE DUP1 ISZERO PUSH2 0x10 JUMPI PUSH1 0x0 DUP1 REVERT JUMPDEST POP PUSH1 0x4 CALLDATASIZE LT PUSH2 0x36 JUMPI PUSH1 0x0 CALLDATALOAD PUSH1 0xE0 SHR DUP1 PUSH4 0x28B0AF2C EQ PUSH2 0x3B JUMPI DUP1 PUSH4 0x4357855E EQ PUSH2 0x57 JUMPI JUMPDEST PUSH1 0x0 DUP1 REVERT JUMPDEST PUSH2 0x55 PUSH1 0x4 DUP1 CALLDATASIZE SUB DUP2 ADD SWAP1 PUSH2 0x50 SWAP2 SWAP1 PUSH2 0xCA9 JUMP JUMPDEST PUSH2 0x73 JUMP JUMPDEST STOP JUMPDEST PUSH2 0x71 PUSH1 0x4 DUP1 CALLDATASIZE SUB DUP2 ADD SWAP1 PUSH2 0x6C SWAP2 SWAP1 PUSH2 0xD5E JUMP JUMPDEST PUSH2 0x187 JUMP JUMPDEST STOP JUMPDEST PUSH1 0x0 PUSH2 0x89 PUSH1 0x7 SLOAD ADDRESS PUSH4 0x4357855E PUSH1 0xE0 SHL PUSH2 0x2C8 JUMP JUMPDEST SWAP1 POP PUSH2 0xD5 PUSH1 0x40 MLOAD DUP1 PUSH1 0x40 ADD PUSH1 0x40 MSTORE DUP1 PUSH1 0x3 DUP2 MSTORE PUSH1 0x20 ADD PUSH32 0x6765740000000000000000000000000000000000000000000000000000000000 DUP2 MSTORE POP DUP4 DUP4 PUSH2 0x2F9 SWAP1 SWAP3 SWAP2 SWAP1 PUSH4 0xFFFFFFFF AND JUMP JUMPDEST PUSH2 0x154 PUSH1 0x40 MLOAD DUP1 PUSH1 0x40 ADD PUSH1 0x40 MSTORE DUP1 PUSH1 0x4 DUP2 MSTORE PUSH1 0x20 ADD PUSH32 0x7061746800000000000000000000000000000000000000000000000000000000 DUP2 MSTORE POP PUSH1 0x40 MLOAD DUP1 PUSH1 0x40 ADD PUSH1 0x40 MSTORE DUP1 PUSH1 0x6 DUP2 MSTORE PUSH1 0x20 ADD PUSH32 0x726573756C740000000000000000000000000000000000000000000000000000 DUP2 MSTORE POP DUP4 PUSH2 0x2F9 SWAP1 SWAP3 SWAP2 SWAP1 PUSH4 0xFFFFFFFF AND JUMP JUMPDEST PUSH2 0x182 PUSH1 0x6 PUSH1 0x0 SWAP1 SLOAD SWAP1 PUSH2 0x100 EXP SWAP1 DIV PUSH20 0xFFFFFFFFFFFFFFFFFFFFFFFFFFFFFFFFFFFFFFFF AND DUP3 PUSH1 0x0 PUSH2 0x32C JUMP JUMPDEST POP POP POP JUMP JUMPDEST DUP2 PUSH1 0x5 PUSH1 0x0 DUP3 DUP2 MSTORE PUSH1 0x20 ADD SWAP1 DUP2 MSTORE PUSH1 0x20 ADD PUSH1 0x0 KECCAK256 PUSH1 0x0 SWAP1 SLOAD SWAP1 PUSH2 0x100 EXP SWAP1 DIV PUSH20 0xFFFFFFFFFFFFFFFFFFFFFFFFFFFFFFFFFFFFFFFF AND PUSH20 0xFFFFFFFFFFFFFFFFFFFFFFFFFFFFFFFFFFFFFFFF AND CALLER PUSH20 0xFFFFFFFFFFFFFFFFFFFFFFFFFFFFFFFFFFFFFFFF AND EQ PUSH2 0x229 JUMPI PUSH1 0x40 MLOAD PUSH32 0x8C379A000000000000000000000000000000000000000000000000000000000 DUP2 MSTORE PUSH1 0x4 ADD PUSH2 0x220 SWAP1 PUSH2 0xE21 JUMP JUMPDEST PUSH1 0x40 MLOAD DUP1 SWAP2 SUB SWAP1 REVERT JUMPDEST PUSH1 0x5 PUSH1 0x0 DUP3 DUP2 MSTORE PUSH1 0x20 ADD SWAP1 DUP2 MSTORE PUSH1 0x20 ADD PUSH1 0x0 KECCAK256 PUSH1 0x0 PUSH2 0x100 EXP DUP2 SLOAD SWAP1 PUSH20 0xFFFFFFFFFFFFFFFFFFFFFFFFFFFFFFFFFFFFFFFF MUL NOT AND SWAP1 SSTORE DUP1 PUSH32 0x7CC135E0CEBB02C3480AE5D74D377283180A2601F8F644EDF7987B009316C63A PUSH1 0x40 MLOAD PUSH1 0x40 MLOAD DUP1 SWAP2 SUB SWAP1 LOG2 PUSH32 0x8D045D83ADAE4E040B333D2A52A74F1F89F04241CFFCB4802AAF0507CE24D20F DUP3 PUSH1 0x40 MLOAD PUSH2 0x2BB SWAP2 SWAP1 PUSH2 0xE50 JUMP JUMPDEST PUSH1 0x40 MLOAD DUP1 SWAP2 SUB SWAP1 LOG1 POP POP POP JUMP JUMPDEST PUSH2 0x2D0 PUSH2 0xAC8 JUMP JUMPDEST PUSH2 0x2D8 PUSH2 0xAC8 JUMP JUMPDEST PUSH2 0x2EF DUP6 DUP6 DUP6 DUP5 PUSH2 0x3F8 SWAP1 SWAP4 SWAP3 SWAP2 SWAP1 PUSH4 0xFFFFFFFF AND JUMP JUMPDEST SWAP2 POP POP SWAP4 SWAP3 POP POP POP JUMP JUMPDEST PUSH2 0x310 DUP3 DUP5 PUSH1 0x80 ADD MLOAD PUSH2 0x4A8 SWAP1 SWAP2 SWAP1 PUSH4 0xFFFFFFFF AND JUMP JUMPDEST PUSH2 0x327 DUP2 DUP5 PUSH1 0x80 ADD MLOAD PUSH2 0x4A8 SWAP1 SWAP2 SWAP1 PUSH4 0xFFFFFFFF AND JUMP JUMPDEST POP POP POP JUMP JUMPDEST PUSH1 0x0 DUP1 PUSH1 0x4 SLOAD SWAP1 POP PUSH1 0x1 DUP2 PUSH2 0x341 SWAP2 SWAP1 PUSH2 0xE9A JUMP JUMPDEST PUSH1 0x4 DUP2 SWAP1 SSTORE POP PUSH1 0x0 PUSH4 0x40429946 PUSH1 0xE0 SHL PUSH1 0x0 DUP1 DUP8 PUSH1 0x0 ADD MLOAD ADDRESS DUP10 PUSH1 0x40 ADD MLOAD DUP8 PUSH1 0x1 DUP13 PUSH1 0x80 ADD MLOAD PUSH1 0x0 ADD MLOAD PUSH1 0x40 MLOAD PUSH1 0x24 ADD PUSH2 0x382 SWAP9 SWAP8 SWAP7 SWAP6 SWAP5 SWAP4 SWAP3 SWAP2 SWAP1 PUSH2 0xFD8 JUMP JUMPDEST PUSH1 0x40 MLOAD PUSH1 0x20 DUP2 DUP4 SUB SUB DUP2 MSTORE SWAP1 PUSH1 0x40 MSTORE SWAP1 PUSH28 0xFFFFFFFFFFFFFFFFFFFFFFFFFFFFFFFFFFFFFFFFFFFFFFFFFFFFFFFF NOT AND PUSH1 0x20 DUP3 ADD DUP1 MLOAD PUSH28 0xFFFFFFFFFFFFFFFFFFFFFFFFFFFFFFFFFFFFFFFFFFFFFFFFFFFFFFFF DUP4 DUP2 DUP4 AND OR DUP4 MSTORE POP POP POP POP SWAP1 POP PUSH2 0x3ED DUP7 DUP4 DUP7 DUP5 PUSH2 0x4CD JUMP JUMPDEST SWAP3 POP POP POP SWAP4 SWAP3 POP POP POP JUMP JUMPDEST PUSH2 0x400 PUSH2 0xAC8 JUMP JUMPDEST PUSH2 0x410 DUP6 PUSH1 0x80 ADD MLOAD PUSH2 0x100 PUSH2 0x662 JUMP JUMPDEST POP DUP4 DUP6 PUSH1 0x0 ADD DUP2 DUP2 MSTORE POP POP DUP3 DUP6 PUSH1 0x20 ADD SWAP1 PUSH20 0xFFFFFFFFFFFFFFFFFFFFFFFFFFFFFFFFFFFFFFFF AND SWAP1 DUP2 PUSH20 0xFFFFFFFFFFFFFFFFFFFFFFFFFFFFFFFFFFFFFFFF AND DUP2 MSTORE POP POP DUP2 DUP6 PUSH1 0x40 ADD SWAP1 PUSH28 0xFFFFFFFFFFFFFFFFFFFFFFFFFFFFFFFFFFFFFFFFFFFFFFFFFFFFFFFF NOT AND SWAP1 DUP2 PUSH28 0xFFFFFFFFFFFFFFFFFFFFFFFFFFFFFFFFFFFFFFFFFFFFFFFFFFFFFFFF NOT AND DUP2 MSTORE POP POP DUP5 SWAP1 POP SWAP5 SWAP4 POP POP POP POP JUMP JUMPDEST PUSH2 0x4B5 DUP3 PUSH1 0x3 DUP4 MLOAD PUSH2 0x6CC JUMP JUMPDEST PUSH2 0x4C8 DUP2 DUP4 PUSH2 0x851 SWAP1 SWAP2 SWAP1 PUSH4 0xFFFFFFFF AND JUMP JUMPDEST POP POP POP JUMP JUMPDEST PUSH1 0x0 ADDRESS DUP5 PUSH1 0x40 MLOAD PUSH1 0x20 ADD PUSH2 0x4E2 SWAP3 SWAP2 SWAP1 PUSH2 0x1116 JUMP JUMPDEST PUSH1 0x40 MLOAD PUSH1 0x20 DUP2 DUP4 SUB SUB DUP2 MSTORE SWAP1 PUSH1 0x40 MSTORE DUP1 MLOAD SWAP1 PUSH1 0x20 ADD KECCAK256 SWAP1 POP DUP5 PUSH1 0x5 PUSH1 0x0 DUP4 DUP2 MSTORE PUSH1 0x20 ADD SWAP1 DUP2 MSTORE PUSH1 0x20 ADD PUSH1 0x0 KECCAK256 PUSH1 0x0 PUSH2 0x100 EXP DUP2 SLOAD DUP2 PUSH20 0xFFFFFFFFFFFFFFFFFFFFFFFFFFFFFFFFFFFFFFFF MUL NOT AND SWAP1 DUP4 PUSH20 0xFFFFFFFFFFFFFFFFFFFFFFFFFFFFFFFFFFFFFFFF AND MUL OR SWAP1 SSTORE POP DUP1 PUSH32 0xB5E6E01E79F91267DC17B4E6314D5D4D03593D2CEEE0FBB452B750BD70EA5AF9 PUSH1 0x40 MLOAD PUSH1 0x40 MLOAD DUP1 SWAP2 SUB SWAP1 LOG2 PUSH1 0x2 PUSH1 0x0 SWAP1 SLOAD SWAP1 PUSH2 0x100 EXP SWAP1 DIV PUSH20 0xFFFFFFFFFFFFFFFFFFFFFFFFFFFFFFFFFFFFFFFF AND PUSH20 0xFFFFFFFFFFFFFFFFFFFFFFFFFFFFFFFFFFFFFFFF AND PUSH4 0x4000AEA0 DUP7 DUP6 DUP6 PUSH1 0x40 MLOAD DUP5 PUSH4 0xFFFFFFFF AND PUSH1 0xE0 SHL DUP2 MSTORE PUSH1 0x4 ADD PUSH2 0x5D8 SWAP4 SWAP3 SWAP2 SWAP1 PUSH2 0x1142 JUMP JUMPDEST PUSH1 0x20 PUSH1 0x40 MLOAD DUP1 DUP4 SUB DUP2 PUSH1 0x0 DUP8 GAS CALL ISZERO DUP1 ISZERO PUSH2 0x5F7 JUMPI RETURNDATASIZE PUSH1 0x0 DUP1 RETURNDATACOPY RETURNDATASIZE PUSH1 0x0 REVERT JUMPDEST POP POP POP POP PUSH1 0x40 MLOAD RETURNDATASIZE PUSH1 0x1F NOT PUSH1 0x1F DUP3 ADD AND DUP3 ADD DUP1 PUSH1 0x40 MSTORE POP DUP2 ADD SWAP1 PUSH2 0x61B SWAP2 SWAP1 PUSH2 0x11B8 JUMP JUMPDEST PUSH2 0x65A JUMPI PUSH1 0x40 MLOAD PUSH32 0x8C379A000000000000000000000000000000000000000000000000000000000 DUP2 MSTORE PUSH1 0x4 ADD PUSH2 0x651 SWAP1 PUSH2 0x1257 JUMP JUMPDEST PUSH1 0x40 MLOAD DUP1 SWAP2 SUB SWAP1 REVERT JUMPDEST SWAP5 SWAP4 POP POP POP POP JUMP JUMPDEST PUSH2 0x66A PUSH2 0xB35 JUMP JUMPDEST PUSH1 0x0 PUSH1 0x20 DUP4 PUSH2 0x679 SWAP2 SWAP1 PUSH2 0x12A6 JUMP JUMPDEST EQ PUSH2 0x6A5 JUMPI PUSH1 0x20 DUP3 PUSH2 0x68B SWAP2 SWAP1 PUSH2 0x12A6 JUMP JUMPDEST PUSH1 0x20 PUSH2 0x697 SWAP2 SWAP1 PUSH2 0x12D7 JUMP JUMPDEST DUP3 PUSH2 0x6A2 SWAP2 SWAP1 PUSH2 0xE9A JUMP JUMPDEST SWAP2 POP JUMPDEST DUP2 DUP4 PUSH1 0x20 ADD DUP2 DUP2 MSTORE POP POP PUSH1 0x40 MLOAD DUP1 DUP5 MSTORE PUSH1 0x0 DUP2 MSTORE DUP3 DUP2 ADD PUSH1 0x20 ADD PUSH1 0x40 MSTORE POP DUP3 SWAP1 POP SWAP3 SWAP2 POP POP JUMP JUMPDEST PUSH1 0x17 DUP2 PUSH8 0xFFFFFFFFFFFFFFFF AND GT PUSH2 0x703 JUMPI PUSH2 0x6FD DUP2 PUSH1 0x5 DUP5 PUSH1 0xFF AND SWAP1 SHL PUSH1 0xFF AND OR DUP5 PUSH2 0x873 SWAP1 SWAP2 SWAP1 PUSH4 0xFFFFFFFF AND JUMP JUMPDEST POP PUSH2 0x84C JUMP JUMPDEST PUSH1 0xFF DUP2 PUSH8 0xFFFFFFFFFFFFFFFF AND GT PUSH2 0x759 JUMPI PUSH2 0x732 PUSH1 0x18 PUSH1 0x5 DUP5 PUSH1 0xFF AND SWAP1 SHL OR DUP5 PUSH2 0x873 SWAP1 SWAP2 SWAP1 PUSH4 0xFFFFFFFF AND JUMP JUMPDEST POP PUSH2 0x753 DUP2 PUSH8 0xFFFFFFFFFFFFFFFF AND PUSH1 0x1 DUP6 PUSH2 0x893 SWAP1 SWAP3 SWAP2 SWAP1 PUSH4 0xFFFFFFFF AND JUMP JUMPDEST POP PUSH2 0x84B JUMP JUMPDEST PUSH2 0xFFFF DUP2 PUSH8 0xFFFFFFFFFFFFFFFF AND GT PUSH2 0x7B0 JUMPI PUSH2 0x789 PUSH1 0x19 PUSH1 0x5 DUP5 PUSH1 0xFF AND SWAP1 SHL OR DUP5 PUSH2 0x873 SWAP1 SWAP2 SWAP1 PUSH4 0xFFFFFFFF AND JUMP JUMPDEST POP PUSH2 0x7AA DUP2 PUSH8 0xFFFFFFFFFFFFFFFF AND PUSH1 0x2 DUP6 PUSH2 0x893 SWAP1 SWAP3 SWAP2 SWAP1 PUSH4 0xFFFFFFFF AND JUMP JUMPDEST POP PUSH2 0x84A JUMP JUMPDEST PUSH4 0xFFFFFFFF DUP2 PUSH8 0xFFFFFFFFFFFFFFFF AND GT PUSH2 0x809 JUMPI PUSH2 0x7E2 PUSH1 0x1A PUSH1 0x5 DUP5 PUSH1 0xFF AND SWAP1 SHL OR DUP5 PUSH2 0x873 SWAP1 SWAP2 SWAP1 PUSH4 0xFFFFFFFF AND JUMP JUMPDEST POP PUSH2 0x803 DUP2 PUSH8 0xFFFFFFFFFFFFFFFF AND PUSH1 0x4 DUP6 PUSH2 0x893 SWAP1 SWAP3 SWAP2 SWAP1 PUSH4 0xFFFFFFFF AND JUMP JUMPDEST POP PUSH2 0x849 JUMP JUMPDEST PUSH2 0x826 PUSH1 0x1B PUSH1 0x5 DUP5 PUSH1 0xFF AND SWAP1 SHL OR DUP5 PUSH2 0x873 SWAP1 SWAP2 SWAP1 PUSH4 0xFFFFFFFF AND JUMP JUMPDEST POP PUSH2 0x847 DUP2 PUSH8 0xFFFFFFFFFFFFFFFF AND PUSH1 0x8 DUP6 PUSH2 0x893 SWAP1 SWAP3 SWAP2 SWAP1 PUSH4 0xFFFFFFFF AND JUMP JUMPDEST POP JUMPDEST JUMPDEST JUMPDEST JUMPDEST POP POP POP JUMP JUMPDEST PUSH2 0x859 PUSH2 0xB35 JUMP JUMPDEST PUSH2 0x86B DUP4 DUP5 PUSH1 0x0 ADD MLOAD MLOAD DUP5 DUP6 MLOAD PUSH2 0x8B5 JUMP JUMPDEST SWAP1 POP SWAP3 SWAP2 POP POP JUMP JUMPDEST PUSH2 0x87B PUSH2 0xB35 JUMP JUMPDEST PUSH2 0x88B DUP4 DUP5 PUSH1 0x0 ADD MLOAD MLOAD DUP5 PUSH2 0x9A4 JUMP JUMPDEST SWAP1 POP SWAP3 SWAP2 POP POP JUMP JUMPDEST PUSH2 0x89B PUSH2 0xB35 JUMP JUMPDEST PUSH2 0x8AC DUP5 DUP6 PUSH1 0x0 ADD MLOAD MLOAD DUP6 DUP6 PUSH2 0x9FA JUMP JUMPDEST SWAP1 POP SWAP4 SWAP3 POP POP POP JUMP JUMPDEST PUSH2 0x8BD PUSH2 0xB35 JUMP JUMPDEST DUP3 MLOAD DUP3 GT ISZERO PUSH2 0x8CB JUMPI PUSH1 0x0 DUP1 REVERT JUMPDEST DUP5 PUSH1 0x20 ADD MLOAD DUP3 DUP6 PUSH2 0x8DC SWAP2 SWAP1 PUSH2 0xE9A JUMP JUMPDEST GT ISZERO PUSH2 0x911 JUMPI PUSH2 0x910 DUP6 PUSH1 0x2 PUSH2 0x901 DUP9 PUSH1 0x20 ADD MLOAD DUP9 DUP8 PUSH2 0x8FC SWAP2 SWAP1 PUSH2 0xE9A JUMP JUMPDEST PUSH2 0xA88 JUMP JUMPDEST PUSH2 0x90B SWAP2 SWAP1 PUSH2 0x130B JUMP JUMPDEST PUSH2 0xAA4 JUMP JUMPDEST JUMPDEST PUSH1 0x0 DUP1 DUP7 MLOAD DUP1 MLOAD DUP8 PUSH1 0x20 DUP4 ADD ADD SWAP4 POP DUP1 DUP9 DUP8 ADD GT ISZERO PUSH2 0x930 JUMPI DUP8 DUP7 ADD DUP3 MSTORE JUMPDEST PUSH1 0x20 DUP8 ADD SWAP3 POP POP POP JUMPDEST PUSH1 0x20 DUP5 LT PUSH2 0x977 JUMPI DUP1 MLOAD DUP3 MSTORE PUSH1 0x20 DUP3 PUSH2 0x952 SWAP2 SWAP1 PUSH2 0xE9A JUMP JUMPDEST SWAP2 POP PUSH1 0x20 DUP2 PUSH2 0x961 SWAP2 SWAP1 PUSH2 0xE9A JUMP JUMPDEST SWAP1 POP PUSH1 0x20 DUP5 PUSH2 0x970 SWAP2 SWAP1 PUSH2 0x12D7 JUMP JUMPDEST SWAP4 POP PUSH2 0x939 JUMP JUMPDEST PUSH1 0x0 PUSH1 0x1 DUP6 PUSH1 0x20 SUB PUSH2 0x100 EXP SUB SWAP1 POP DUP1 NOT DUP3 MLOAD AND DUP2 DUP5 MLOAD AND DUP2 DUP2 OR DUP6 MSTORE POP POP POP DUP7 SWAP3 POP POP POP SWAP5 SWAP4 POP POP POP POP JUMP JUMPDEST PUSH2 0x9AC PUSH2 0xB35 JUMP JUMPDEST DUP4 PUSH1 0x20 ADD MLOAD DUP4 LT PUSH2 0x9D2 JUMPI PUSH2 0x9D1 DUP5 PUSH1 0x2 DUP7 PUSH1 0x20 ADD MLOAD PUSH2 0x9CC SWAP2 SWAP1 PUSH2 0x130B JUMP JUMPDEST PUSH2 0xAA4 JUMP JUMPDEST JUMPDEST DUP4 MLOAD DUP1 MLOAD PUSH1 0x20 DUP6 DUP4 ADD ADD DUP5 DUP2 MSTORE8 DUP2 DUP7 SUB PUSH2 0x9ED JUMPI PUSH1 0x1 DUP3 ADD DUP4 MSTORE JUMPDEST POP POP POP DUP4 SWAP1 POP SWAP4 SWAP3 POP POP POP JUMP JUMPDEST PUSH2 0xA02 PUSH2 0xB35 JUMP JUMPDEST DUP5 PUSH1 0x20 ADD MLOAD DUP5 DUP4 PUSH2 0xA13 SWAP2 SWAP1 PUSH2 0xE9A JUMP JUMPDEST GT ISZERO PUSH2 0xA3B JUMPI PUSH2 0xA3A DUP6 PUSH1 0x2 DUP7 DUP6 PUSH2 0xA2B SWAP2 SWAP1 PUSH2 0xE9A JUMP JUMPDEST PUSH2 0xA35 SWAP2 SWAP1 PUSH2 0x130B JUMP JUMPDEST PUSH2 0xAA4 JUMP JUMPDEST JUMPDEST PUSH1 0x0 PUSH1 0x1 DUP4 PUSH2 0x100 PUSH2 0xA4D SWAP2 SWAP1 PUSH2 0x1480 JUMP JUMPDEST PUSH2 0xA57 SWAP2 SWAP1 PUSH2 0x12D7 JUMP JUMPDEST SWAP1 POP DUP6 MLOAD DUP4 DUP7 DUP3 ADD ADD DUP6 DUP4 NOT DUP3 MLOAD AND OR DUP2 MSTORE DUP2 MLOAD DUP6 DUP9 ADD GT ISZERO PUSH2 0xA7A JUMPI DUP5 DUP8 ADD DUP3 MSTORE JUMPDEST POP POP DUP6 SWAP2 POP POP SWAP5 SWAP4 POP POP POP POP JUMP JUMPDEST PUSH1 0x0 DUP2 DUP4 GT ISZERO PUSH2 0xA9A JUMPI DUP3 SWAP1 POP PUSH2 0xA9E JUMP JUMPDEST DUP2 SWAP1 POP JUMPDEST SWAP3 SWAP2 POP POP JUMP JUMPDEST PUSH1 0x0 DUP3 PUSH1 0x0 ADD MLOAD SWAP1 POP PUSH2 0xAB7 DUP4 DUP4 PUSH2 0x662 JUMP JUMPDEST POP PUSH2 0xAC2 DUP4 DUP3 PUSH2 0x851 JUMP JUMPDEST POP POP POP POP JUMP JUMPDEST PUSH1 0x40 MLOAD DUP1 PUSH1 0xA0 ADD PUSH1 0x40 MSTORE DUP1 PUSH1 0x0 DUP1 NOT AND DUP2 MSTORE PUSH1 0x20 ADD PUSH1 0x0 PUSH20 0xFFFFFFFFFFFFFFFFFFFFFFFFFFFFFFFFFFFFFFFF AND DUP2 MSTORE PUSH1 0x20 ADD PUSH1 0x0 PUSH28 0xFFFFFFFFFFFFFFFFFFFFFFFFFFFFFFFFFFFFFFFFFFFFFFFFFFFFFFFF NOT AND DUP2 MSTORE PUSH1 0x20 ADD PUSH1 0x0 DUP2 MSTORE PUSH1 0x20 ADD PUSH2 0xB2F PUSH2 0xB35 JUMP JUMPDEST DUP2 MSTORE POP SWAP1 JUMP JUMPDEST PUSH1 0x40 MLOAD DUP1 PUSH1 0x40 ADD PUSH1 0x40 MSTORE DUP1 PUSH1 0x60 DUP2 MSTORE PUSH1 0x20 ADD PUSH1 0x0 DUP2 MSTORE POP SWAP1 JUMP JUMPDEST PUSH1 0x0 PUSH1 0x40 MLOAD SWAP1 POP SWAP1 JUMP JUMPDEST PUSH1 0x0 DUP1 REVERT JUMPDEST PUSH1 0x0 DUP1 REVERT JUMPDEST PUSH1 0x0 DUP1 REVERT JUMPDEST PUSH1 0x0 DUP1 REVERT JUMPDEST PUSH1 0x0 PUSH1 0x1F NOT PUSH1 0x1F DUP4 ADD AND SWAP1 POP SWAP2 SWAP1 POP JUMP JUMPDEST PUSH32 0x4E487B7100000000000000000000000000000000000000000000000000000000 PUSH1 0x0 MSTORE PUSH1 0x41 PUSH1 0x4 MSTORE PUSH1 0x24 PUSH1 0x0 REVERT JUMPDEST PUSH2 0xBB6 DUP3 PUSH2 0xB6D JUMP JUMPDEST DUP2 ADD DUP2 DUP2 LT PUSH8 0xFFFFFFFFFFFFFFFF DUP3 GT OR ISZERO PUSH2 0xBD5 JUMPI PUSH2 0xBD4 PUSH2 0xB7E JUMP JUMPDEST JUMPDEST DUP1 PUSH1 0x40 MSTORE POP POP POP JUMP JUMPDEST PUSH1 0x0 PUSH2 0xBE8 PUSH2 0xB4F JUMP JUMPDEST SWAP1 POP PUSH2 0xBF4 DUP3 DUP3 PUSH2 0xBAD JUMP JUMPDEST SWAP2 SWAP1 POP JUMP JUMPDEST PUSH1 0x0 PUSH8 0xFFFFFFFFFFFFFFFF DUP3 GT ISZERO PUSH2 0xC14 JUMPI PUSH2 0xC13 PUSH2 0xB7E JUMP JUMPDEST JUMPDEST PUSH2 0xC1D DUP3 PUSH2 0xB6D JUMP JUMPDEST SWAP1 POP PUSH1 0x20 DUP2 ADD SWAP1 POP SWAP2 SWAP1 POP JUMP JUMPDEST DUP3 DUP2 DUP4 CALLDATACOPY PUSH1 0x0 DUP4 DUP4 ADD MSTORE POP POP POP JUMP JUMPDEST PUSH1 0x0 PUSH2 0xC4C PUSH2 0xC47 DUP5 PUSH2 0xBF9 JUMP JUMPDEST PUSH2 0xBDE JUMP JUMPDEST SWAP1 POP DUP3 DUP2 MSTORE PUSH1 0x20 DUP2 ADD DUP5 DUP5 DUP5 ADD GT ISZERO PUSH2 0xC68 JUMPI PUSH2 0xC67 PUSH2 0xB68 JUMP JUMPDEST JUMPDEST PUSH2 0xC73 DUP5 DUP3 DUP6 PUSH2 0xC2A JUMP JUMPDEST POP SWAP4 SWAP3 POP POP POP JUMP JUMPDEST PUSH1 0x0 DUP3 PUSH1 0x1F DUP4 ADD SLT PUSH2 0xC90 JUMPI PUSH2 0xC8F PUSH2 0xB63 JUMP JUMPDEST JUMPDEST DUP2 CALLDATALOAD PUSH2 0xCA0 DUP5 DUP3 PUSH1 0x20 DUP7 ADD PUSH2 0xC39 JUMP JUMPDEST SWAP2 POP POP SWAP3 SWAP2 POP POP JUMP JUMPDEST PUSH1 0x0 PUSH1 0x20 DUP3 DUP5 SUB SLT ISZERO PUSH2 0xCBF JUMPI PUSH2 0xCBE PUSH2 0xB59 JUMP JUMPDEST JUMPDEST PUSH1 0x0 DUP3 ADD CALLDATALOAD PUSH8 0xFFFFFFFFFFFFFFFF DUP2 GT ISZERO PUSH2 0xCDD JUMPI PUSH2 0xCDC PUSH2 0xB5E JUMP JUMPDEST JUMPDEST PUSH2 0xCE9 DUP5 DUP3 DUP6 ADD PUSH2 0xC7B JUMP JUMPDEST SWAP2 POP POP SWAP3 SWAP2 POP POP JUMP JUMPDEST PUSH1 0x0 DUP2 SWAP1 POP SWAP2 SWAP1 POP JUMP JUMPDEST PUSH2 0xD05 DUP2 PUSH2 0xCF2 JUMP JUMPDEST DUP2 EQ PUSH2 0xD10 JUMPI PUSH1 0x0 DUP1 REVERT JUMPDEST POP JUMP JUMPDEST PUSH1 0x0 DUP2 CALLDATALOAD SWAP1 POP PUSH2 0xD22 DUP2 PUSH2 0xCFC JUMP JUMPDEST SWAP3 SWAP2 POP POP JUMP JUMPDEST PUSH1 0x0 DUP2 SWAP1 POP SWAP2 SWAP1 POP JUMP JUMPDEST PUSH2 0xD3B DUP2 PUSH2 0xD28 JUMP JUMPDEST DUP2 EQ PUSH2 0xD46 JUMPI PUSH1 0x0 DUP1 REVERT JUMPDEST POP JUMP JUMPDEST PUSH1 0x0 DUP2 CALLDATALOAD SWAP1 POP PUSH2 0xD58 DUP2 PUSH2 0xD32 JUMP JUMPDEST SWAP3 SWAP2 POP POP JUMP JUMPDEST PUSH1 0x0 DUP1 PUSH1 0x40 DUP4 DUP6 SUB SLT ISZERO PUSH2 0xD75 JUMPI PUSH2 0xD74 PUSH2 0xB59 JUMP JUMPDEST JUMPDEST PUSH1 0x0 PUSH2 0xD83 DUP6 DUP3 DUP7 ADD PUSH2 0xD13 JUMP JUMPDEST SWAP3 POP POP PUSH1 0x20 PUSH2 0xD94 DUP6 DUP3 DUP7 ADD PUSH2 0xD49 JUMP JUMPDEST SWAP2 POP POP SWAP3 POP SWAP3 SWAP1 POP JUMP JUMPDEST PUSH1 0x0 DUP3 DUP3 MSTORE PUSH1 0x20 DUP3 ADD SWAP1 POP SWAP3 SWAP2 POP POP JUMP JUMPDEST PUSH32 0x536F75726365206D75737420626520746865206F7261636C65206F6620746865 PUSH1 0x0 DUP3 ADD MSTORE PUSH32 0x2072657175657374000000000000000000000000000000000000000000000000 PUSH1 0x20 DUP3 ADD MSTORE POP JUMP JUMPDEST PUSH1 0x0 PUSH2 0xE0B PUSH1 0x28 DUP4 PUSH2 0xD9E JUMP JUMPDEST SWAP2 POP PUSH2 0xE16 DUP3 PUSH2 0xDAF JUMP JUMPDEST PUSH1 0x40 DUP3 ADD SWAP1 POP SWAP2 SWAP1 POP JUMP JUMPDEST PUSH1 0x0 PUSH1 0x20 DUP3 ADD SWAP1 POP DUP2 DUP2 SUB PUSH1 0x0 DUP4 ADD MSTORE PUSH2 0xE3A DUP2 PUSH2 0xDFE JUMP JUMPDEST SWAP1 POP SWAP2 SWAP1 POP JUMP JUMPDEST PUSH2 0xE4A DUP2 PUSH2 0xD28 JUMP JUMPDEST DUP3 MSTORE POP POP JUMP JUMPDEST PUSH1 0x0 PUSH1 0x20 DUP3 ADD SWAP1 POP PUSH2 0xE65 PUSH1 0x0 DUP4 ADD DUP5 PUSH2 0xE41 JUMP JUMPDEST SWAP3 SWAP2 POP POP JUMP JUMPDEST PUSH32 0x4E487B7100000000000000000000000000000000000000000000000000000000 PUSH1 0x0 MSTORE PUSH1 0x11 PUSH1 0x4 MSTORE PUSH1 0x24 PUSH1 0x0 REVERT JUMPDEST PUSH1 0x0 PUSH2 0xEA5 DUP3 PUSH2 0xD28 JUMP JUMPDEST SWAP2 POP PUSH2 0xEB0 DUP4 PUSH2 0xD28 JUMP JUMPDEST SWAP3 POP DUP3 DUP3 ADD SWAP1 POP DUP1 DUP3 GT ISZERO PUSH2 0xEC8 JUMPI PUSH2 0xEC7 PUSH2 0xE6B JUMP JUMPDEST JUMPDEST SWAP3 SWAP2 POP POP JUMP JUMPDEST PUSH1 0x0 PUSH20 0xFFFFFFFFFFFFFFFFFFFFFFFFFFFFFFFFFFFFFFFF DUP3 AND SWAP1 POP SWAP2 SWAP1 POP JUMP JUMPDEST PUSH1 0x0 PUSH2 0xEF9 DUP3 PUSH2 0xECE JUMP JUMPDEST SWAP1 POP SWAP2 SWAP1 POP JUMP JUMPDEST PUSH2 0xF09 DUP2 PUSH2 0xEEE JUMP JUMPDEST DUP3 MSTORE POP POP JUMP JUMPDEST PUSH2 0xF18 DUP2 PUSH2 0xCF2 JUMP JUMPDEST DUP3 MSTORE POP POP JUMP JUMPDEST PUSH1 0x0 PUSH32 0xFFFFFFFF00000000000000000000000000000000000000000000000000000000 DUP3 AND SWAP1 POP SWAP2 SWAP1 POP JUMP JUMPDEST PUSH2 0xF53 DUP2 PUSH2 0xF1E JUMP JUMPDEST DUP3 MSTORE POP POP JUMP JUMPDEST PUSH1 0x0 DUP2 MLOAD SWAP1 POP SWAP2 SWAP1 POP JUMP JUMPDEST PUSH1 0x0 DUP3 DUP3 MSTORE PUSH1 0x20 DUP3 ADD SWAP1 POP SWAP3 SWAP2 POP POP JUMP JUMPDEST PUSH1 0x0 JUMPDEST DUP4 DUP2 LT ISZERO PUSH2 0xF93 JUMPI DUP1 DUP3 ADD MLOAD DUP2 DUP5 ADD MSTORE PUSH1 0x20 DUP2 ADD SWAP1 POP PUSH2 0xF78 JUMP JUMPDEST PUSH1 0x0 DUP5 DUP5 ADD MSTORE POP POP POP POP JUMP JUMPDEST PUSH1 0x0 PUSH2 0xFAA DUP3 PUSH2 0xF59 JUMP JUMPDEST PUSH2 0xFB4 DUP2 DUP6 PUSH2 0xF64 JUMP JUMPDEST SWAP4 POP PUSH2 0xFC4 DUP2 DUP6 PUSH1 0x20 DUP7 ADD PUSH2 0xF75 JUMP JUMPDEST PUSH2 0xFCD DUP2 PUSH2 0xB6D JUMP JUMPDEST DUP5 ADD SWAP2 POP POP SWAP3 SWAP2 POP POP JUMP JUMPDEST PUSH1 0x0 PUSH2 0x100 DUP3 ADD SWAP1 POP PUSH2 0xFEE PUSH1 0x0 DUP4 ADD DUP12 PUSH2 0xF00 JUMP JUMPDEST PUSH2 0xFFB PUSH1 0x20 DUP4 ADD DUP11 PUSH2 0xE41 JUMP JUMPDEST PUSH2 0x1008 PUSH1 0x40 DUP4 ADD DUP10 PUSH2 0xF0F JUMP JUMPDEST PUSH2 0x1015 PUSH1 0x60 DUP4 ADD DUP9 PUSH2 0xF00 JUMP JUMPDEST PUSH2 0x1022 PUSH1 0x80 DUP4 ADD DUP8 PUSH2 0xF4A JUMP JUMPDEST PUSH2 0x102F PUSH1 0xA0 DUP4 ADD DUP7 PUSH2 0xE41 JUMP JUMPDEST PUSH2 0x103C PUSH1 0xC0 DUP4 ADD DUP6 PUSH2 0xE41 JUMP JUMPDEST DUP2 DUP2 SUB PUSH1 0xE0 DUP4 ADD MSTORE PUSH2 0x104E DUP2 DUP5 PUSH2 0xF9F JUMP JUMPDEST SWAP1 POP SWAP10 SWAP9 POP POP POP POP POP POP POP POP POP JUMP JUMPDEST PUSH1 0x0 DUP2 SWAP1 POP SWAP2 SWAP1 POP JUMP JUMPDEST PUSH1 0x0 PUSH2 0x1082 PUSH2 0x107D PUSH2 0x1078 DUP5 PUSH2 0xECE JUMP JUMPDEST PUSH2 0x105D JUMP JUMPDEST PUSH2 0xECE JUMP JUMPDEST SWAP1 POP SWAP2 SWAP1 POP JUMP JUMPDEST PUSH1 0x0 PUSH2 0x1094 DUP3 PUSH2 0x1067 JUMP JUMPDEST SWAP1 POP SWAP2 SWAP1 POP JUMP JUMPDEST PUSH1 0x0 PUSH2 0x10A6 DUP3 PUSH2 0x1089 JUMP JUMPDEST SWAP1 POP SWAP2 SWAP1 POP JUMP JUMPDEST PUSH1 0x0 DUP2 PUSH1 0x60 SHL SWAP1 POP SWAP2 SWAP1 POP JUMP JUMPDEST PUSH1 0x0 PUSH2 0x10C5 DUP3 PUSH2 0x10AD JUMP JUMPDEST SWAP1 POP SWAP2 SWAP1 POP JUMP JUMPDEST PUSH1 0x0 PUSH2 0x10D7 DUP3 PUSH2 0x10BA JUMP JUMPDEST SWAP1 POP SWAP2 SWAP1 POP JUMP JUMPDEST PUSH2 0x10EF PUSH2 0x10EA DUP3 PUSH2 0x109B JUMP JUMPDEST PUSH2 0x10CC JUMP JUMPDEST DUP3 MSTORE POP POP JUMP JUMPDEST PUSH1 0x0 DUP2 SWAP1 POP SWAP2 SWAP1 POP JUMP JUMPDEST PUSH2 0x1110 PUSH2 0x110B DUP3 PUSH2 0xD28 JUMP JUMPDEST PUSH2 0x10F5 JUMP JUMPDEST DUP3 MSTORE POP POP JUMP JUMPDEST PUSH1 0x0 PUSH2 0x1122 DUP3 DUP6 PUSH2 0x10DE JUMP JUMPDEST PUSH1 0x14 DUP3 ADD SWAP2 POP PUSH2 0x1132 DUP3 DUP5 PUSH2 0x10FF JUMP JUMPDEST PUSH1 0x20 DUP3 ADD SWAP2 POP DUP2 SWAP1 POP SWAP4 SWAP3 POP POP POP JUMP JUMPDEST PUSH1 0x0 PUSH1 0x60 DUP3 ADD SWAP1 POP PUSH2 0x1157 PUSH1 0x0 DUP4 ADD DUP7 PUSH2 0xF00 JUMP JUMPDEST PUSH2 0x1164 PUSH1 0x20 DUP4 ADD DUP6 PUSH2 0xE41 JUMP JUMPDEST DUP2 DUP2 SUB PUSH1 0x40 DUP4 ADD MSTORE PUSH2 0x1176 DUP2 DUP5 PUSH2 0xF9F JUMP JUMPDEST SWAP1 POP SWAP5 SWAP4 POP POP POP POP JUMP JUMPDEST PUSH1 0x0 DUP2 ISZERO ISZERO SWAP1 POP SWAP2 SWAP1 POP JUMP JUMPDEST PUSH2 0x1195 DUP2 PUSH2 0x1180 JUMP JUMPDEST DUP2 EQ PUSH2 0x11A0 JUMPI PUSH1 0x0 DUP1 REVERT JUMPDEST POP JUMP JUMPDEST PUSH1 0x0 DUP2 MLOAD SWAP1 POP PUSH2 0x11B2 DUP2 PUSH2 0x118C JUMP JUMPDEST SWAP3 SWAP2 POP POP JUMP JUMPDEST PUSH1 0x0 PUSH1 0x20 DUP3 DUP5 SUB SLT ISZERO PUSH2 0x11CE JUMPI PUSH2 0x11CD PUSH2 0xB59 JUMP JUMPDEST JUMPDEST PUSH1 0x0 PUSH2 0x11DC DUP5 DUP3 DUP6 ADD PUSH2 0x11A3 JUMP JUMPDEST SWAP2 POP POP SWAP3 SWAP2 POP POP JUMP JUMPDEST PUSH32 0x756E61626C6520746F207472616E73666572416E6443616C6C20746F206F7261 PUSH1 0x0 DUP3 ADD MSTORE PUSH32 0x636C650000000000000000000000000000000000000000000000000000000000 PUSH1 0x20 DUP3 ADD MSTORE POP JUMP JUMPDEST PUSH1 0x0 PUSH2 0x1241 PUSH1 0x23 DUP4 PUSH2 0xD9E JUMP JUMPDEST SWAP2 POP PUSH2 0x124C DUP3 PUSH2 0x11E5 JUMP JUMPDEST PUSH1 0x40 DUP3 ADD SWAP1 POP SWAP2 SWAP1 POP JUMP JUMPDEST PUSH1 0x0 PUSH1 0x20 DUP3 ADD SWAP1 POP DUP2 DUP2 SUB PUSH1 0x0 DUP4 ADD MSTORE PUSH2 0x1270 DUP2 PUSH2 0x1234 JUMP JUMPDEST SWAP1 POP SWAP2 SWAP1 POP JUMP JUMPDEST PUSH32 0x4E487B7100000000000000000000000000000000000000000000000000000000 PUSH1 0x0 MSTORE PUSH1 0x12 PUSH1 0x4 MSTORE PUSH1 0x24 PUSH1 0x0 REVERT JUMPDEST PUSH1 0x0 PUSH2 0x12B1 DUP3 PUSH2 0xD28 JUMP JUMPDEST SWAP2 POP PUSH2 0x12BC DUP4 PUSH2 0xD28 JUMP JUMPDEST SWAP3 POP DUP3 PUSH2 0x12CC JUMPI PUSH2 0x12CB PUSH2 0x1277 JUMP JUMPDEST JUMPDEST DUP3 DUP3 MOD SWAP1 POP SWAP3 SWAP2 POP POP JUMP JUMPDEST PUSH1 0x0 PUSH2 0x12E2 DUP3 PUSH2 0xD28 JUMP JUMPDEST SWAP2 POP PUSH2 0x12ED DUP4 PUSH2 0xD28 JUMP JUMPDEST SWAP3 POP DUP3 DUP3 SUB SWAP1 POP DUP2 DUP2 GT ISZERO PUSH2 0x1305 JUMPI PUSH2 0x1304 PUSH2 0xE6B JUMP JUMPDEST JUMPDEST SWAP3 SWAP2 POP POP JUMP JUMPDEST PUSH1 0x0 PUSH2 0x1316 DUP3 PUSH2 0xD28 JUMP JUMPDEST SWAP2 POP PUSH2 0x1321 DUP4 PUSH2 0xD28 JUMP JUMPDEST SWAP3 POP DUP3 DUP3 MUL PUSH2 0x132F DUP2 PUSH2 0xD28 JUMP JUMPDEST SWAP2 POP DUP3 DUP3 DIV DUP5 EQ DUP4 ISZERO OR PUSH2 0x1346 JUMPI PUSH2 0x1345 PUSH2 0xE6B JUMP JUMPDEST JUMPDEST POP SWAP3 SWAP2 POP POP JUMP JUMPDEST PUSH1 0x0 DUP2 PUSH1 0x1 SHR SWAP1 POP SWAP2 SWAP1 POP JUMP JUMPDEST PUSH1 0x0 DUP1 DUP3 SWAP2 POP DUP4 SWAP1 POP JUMPDEST PUSH1 0x1 DUP6 GT ISZERO PUSH2 0x13A4 JUMPI DUP1 DUP7 DIV DUP2 GT ISZERO PUSH2 0x1380 JUMPI PUSH2 0x137F PUSH2 0xE6B JUMP JUMPDEST JUMPDEST PUSH1 0x1 DUP6 AND ISZERO PUSH2 0x138F JUMPI DUP1 DUP3 MUL SWAP2 POP JUMPDEST DUP1 DUP2 MUL SWAP1 POP PUSH2 0x139D DUP6 PUSH2 0x134D JUMP JUMPDEST SWAP5 POP PUSH2 0x1364 JUMP JUMPDEST SWAP5 POP SWAP5 SWAP3 POP POP POP JUMP JUMPDEST PUSH1 0x0 DUP3 PUSH2 0x13BD JUMPI PUSH1 0x1 SWAP1 POP PUSH2 0x1479 JUMP JUMPDEST DUP2 PUSH2 0x13CB JUMPI PUSH1 0x0 SWAP1 POP PUSH2 0x1479 JUMP JUMPDEST DUP2 PUSH1 0x1 DUP2 EQ PUSH2 0x13E1 JUMPI PUSH1 0x2 DUP2 EQ PUSH2 0x13EB JUMPI PUSH2 0x141A JUMP JUMPDEST PUSH1 0x1 SWAP2 POP POP PUSH2 0x1479 JUMP JUMPDEST PUSH1 0xFF DUP5 GT ISZERO PUSH2 0x13FD JUMPI PUSH2 0x13FC PUSH2 0xE6B JUMP JUMPDEST JUMPDEST DUP4 PUSH1 0x2 EXP SWAP2 POP DUP5 DUP3 GT ISZERO PUSH2 0x1414 JUMPI PUSH2 0x1413 PUSH2 0xE6B JUMP JUMPDEST JUMPDEST POP PUSH2 0x1479 JUMP JUMPDEST POP PUSH1 0x20 DUP4 LT PUSH2 0x133 DUP4 LT AND PUSH1 0x4E DUP5 LT PUSH1 0xB DUP5 LT AND OR ISZERO PUSH2 0x144F JUMPI DUP3 DUP3 EXP SWAP1 POP DUP4 DUP2 GT ISZERO PUSH2 0x144A JUMPI PUSH2 0x1449 PUSH2 0xE6B JUMP JUMPDEST JUMPDEST PUSH2 0x1479 JUMP JUMPDEST PUSH2 0x145C DUP5 DUP5 DUP5 PUSH1 0x1 PUSH2 0x135A JUMP JUMPDEST SWAP3 POP SWAP1 POP DUP2 DUP5 DIV DUP2 GT ISZERO PUSH2 0x1473 JUMPI PUSH2 0x1472 PUSH2 0xE6B JUMP JUMPDEST JUMPDEST DUP2 DUP2 MUL SWAP1 POP JUMPDEST SWAP4 SWAP3 POP POP POP JUMP JUMPDEST PUSH1 0x0 PUSH2 0x148B DUP3 PUSH2 0xD28 JUMP JUMPDEST SWAP2 POP PUSH2 0x1496 DUP4 PUSH2 0xD28 JUMP JUMPDEST SWAP3 POP PUSH2 0x14C3 PUSH32 0xFFFFFFFFFFFFFFFFFFFFFFFFFFFFFFFFFFFFFFFFFFFFFFFFFFFFFFFFFFFFFFFF DUP5 DUP5 PUSH2 0x13AD JUMP JUMPDEST SWAP1 POP SWAP3 SWAP2 POP POP JUMP INVALID LOG2 PUSH5 0x6970667358 0x22 SLT KECCAK256 EQ 0x2E SWAP15 0xE3 LOG4 SAR 0x4C 0xE0 CODECOPY 0x4B ADDMOD EXTCODECOPY 0xE3 GT XOR OR 0xBB RETURNDATASIZE SWAP2 JUMP 0xEC 0xDE 0xAD 0xC SWAP12 PUSH10 0xB923A113ABE864736F6C PUSH4 0x43000812 STOP CALLER "
		},
		"gasEstimates": {
			"creation": {
				"codeDepositCost": "1075400",
				"executionCost": "infinite",
				"totalCost": "infinite"
			},
			"external": {
				"fulfill(bytes32,uint256)": "infinite",
				"requestDataFromChainlink(string)": "infinite"
			}
		},
		"methodIdentifiers": {
			"fulfill(bytes32,uint256)": "4357855e",
			"requestDataFromChainlink(string)": "28b0af2c"
		}
	},
	"abi": [
		{
			"inputs": [],
			"stateMutability": "nonpayable",
			"type": "constructor"
		},
		{
			"anonymous": false,
			"inputs": [
				{
					"indexed": false,
					"internalType": "uint256",
					"name": "result",
					"type": "uint256"
				}
			],
			"name": "APIResponse",
			"type": "event"
		},
		{
			"anonymous": false,
			"inputs": [
				{
					"indexed": true,
					"internalType": "bytes32",
					"name": "id",
					"type": "bytes32"
				}
			],
			"name": "ChainlinkCancelled",
			"type": "event"
		},
		{
			"anonymous": false,
			"inputs": [
				{
					"indexed": true,
					"internalType": "bytes32",
					"name": "id",
					"type": "bytes32"
				}
			],
			"name": "ChainlinkFulfilled",
			"type": "event"
		},
		{
			"anonymous": false,
			"inputs": [
				{
					"indexed": true,
					"internalType": "bytes32",
					"name": "id",
					"type": "bytes32"
				}
			],
			"name": "ChainlinkRequested",
			"type": "event"
		},
		{
			"inputs": [
				{
					"internalType": "bytes32",
					"name": "requestId",
					"type": "bytes32"
				},
				{
					"internalType": "uint256",
					"name": "result",
					"type": "uint256"
				}
			],
			"name": "fulfill",
			"outputs": [],
			"stateMutability": "nonpayable",
			"type": "function"
		},
		{
			"inputs": [
				{
					"internalType": "string",
					"name": "apiURL",
					"type": "string"
				}
			],
			"name": "requestDataFromChainlink",
			"outputs": [],
			"stateMutability": "nonpayable",
			"type": "function"
		}
	]
}