{
  "contractName": "FastAPI",
  "abi": [
    {
      "inputs": [],
      "stateMutability": "nonpayable",
      "type": "constructor"
    },
    {
      "anonymous": false,
      "inputs": [
        {
          "indexed": false,
          "internalType": "uint256",
          "name": "result",
          "type": "uint256"
        }
      ],
      "name": "APIResponse",
      "type": "event"
    },
    {
      "anonymous": false,
      "inputs": [
        {
          "indexed": true,
          "internalType": "bytes32",
          "name": "id",
          "type": "bytes32"
        }
      ],
      "name": "ChainlinkCancelled",
      "type": "event"
    },
    {
      "anonymous": false,
      "inputs": [
        {
          "indexed": true,
          "internalType": "bytes32",
          "name": "id",
          "type": "bytes32"
        }
      ],
      "name": "ChainlinkFulfilled",
      "type": "event"
    },
    {
      "anonymous": false,
      "inputs": [
        {
          "indexed": true,
          "internalType": "bytes32",
          "name": "id",
          "type": "bytes32"
        }
      ],
      "name": "ChainlinkRequested",
      "type": "event"
    },
    {
      "inputs": [
        {
          "internalType": "string",
          "name": "apiURL",
          "type": "string"
        }
      ],
      "name": "requestDataFromChainlink",
      "outputs": [],
      "stateMutability": "nonpayable",
      "type": "function"
    },
    {
      "inputs": [
        {
          "internalType": "bytes32",
          "name": "requestId",
          "type": "bytes32"
        },
        {
          "internalType": "uint256",
          "name": "result",
          "type": "uint256"
        }
      ],
      "name": "fulfill",
      "outputs": [],
      "stateMutability": "nonpayable",
      "type": "function"
    }
  ],
  "bytecode": "0x6080604052600160045534801561001557600080fd5b507312f2d6b0783127c62956fff73f4d7f701433b6f5600660006101000a81548173ffffffffffffffffffffffffffffffffffffffff021916908373ffffffffffffffffffffffffffffffffffffffff1602179055507f3200000000000000000000000000000000000000000000000000000000000000600781905550611519806100a16000396000f3fe608060405234801561001057600080fd5b50600436106100365760003560e01c806328b0af2c1461003b5780634357855e14610057575b600080fd5b61005560048036038101906100509190610ca9565b610073565b005b610071600480360381019061006c9190610d5e565b610187565b005b600061008960075430634357855e60e01b6102c8565b90506100d56040518060400160405280600381526020017f676574000000000000000000000000000000000000000000000000000000000081525083836102f99092919063ffffffff16565b6101546040518060400160405280600481526020017f70617468000000000000000000000000000000000000000000000000000000008152506040518060400160405280600681526020017f726573756c740000000000000000000000000000000000000000000000000000815250836102f99092919063ffffffff16565b610182600660009054906101000a900473ffffffffffffffffffffffffffffffffffffffff1682600061032c565b505050565b816005600082815260200190815260200160002060009054906101000a900473ffffffffffffffffffffffffffffffffffffffff1673ffffffffffffffffffffffffffffffffffffffff163373ffffffffffffffffffffffffffffffffffffffff1614610229576040517f08c379a000000000000000000000000000000000000000000000000000000000815260040161022090610e21565b60405180910390fd5b6005600082815260200190815260200160002060006101000a81549073ffffffffffffffffffffffffffffffffffffffff0219169055807f7cc135e0cebb02c3480ae5d74d377283180a2601f8f644edf7987b009316c63a60405160405180910390a27f8d045d83adae4e040b333d2a52a74f1f89f04241cffcb4802aaf0507ce24d20f826040516102bb9190610e50565b60405180910390a1505050565b6102d0610ac8565b6102d8610ac8565b6102ef858585846103f8909392919063ffffffff16565b9150509392505050565b6103108284608001516104a890919063ffffffff16565b6103278184608001516104a890919063ffffffff16565b505050565b60008060045490506001816103419190610e9a565b6004819055506000634042994660e01b60008087600001513089604001518760018c6080015160000151604051602401610382989796959493929190610fd8565b604051602081830303815290604052907bffffffffffffffffffffffffffffffffffffffffffffffffffffffff19166020820180517bffffffffffffffffffffffffffffffffffffffffffffffffffffffff838183161783525050505090506103ed868386846104cd565b925050509392505050565b610400610ac8565b6104108560800151610100610662565b508385600001818152505082856020019073ffffffffffffffffffffffffffffffffffffffff16908173ffffffffffffffffffffffffffffffffffffffff16815250508185604001907bffffffffffffffffffffffffffffffffffffffffffffffffffffffff191690817bffffffffffffffffffffffffffffffffffffffffffffffffffffffff191681525050849050949350505050565b6104b582600383516106cc565b6104c8818361085190919063ffffffff16565b505050565b600030846040516020016104e2929190611116565b604051602081830303815290604052805190602001209050846005600083815260200190815260200160002060006101000a81548173ffffffffffffffffffffffffffffffffffffffff021916908373ffffffffffffffffffffffffffffffffffffffff160217905550807fb5e6e01e79f91267dc17b4e6314d5d4d03593d2ceee0fbb452b750bd70ea5af960405160405180910390a2600260009054906101000a900473ffffffffffffffffffffffffffffffffffffffff1673ffffffffffffffffffffffffffffffffffffffff16634000aea08685856040518463ffffffff1660e01b81526004016105d893929190611142565b6020604051808303816000875af11580156105f7573d6000803e3d6000fd5b505050506040513d601f19601f8201168201806040525081019061061b91906111b8565b61065a576040517f08c379a000000000000000000000000000000000000000000000000000000000815260040161065190611257565b60405180910390fd5b949350505050565b61066a610b35565b600060208361067991906112a6565b146106a55760208261068b91906112a6565b602061069791906112d7565b826106a29190610e9a565b91505b81836020018181525050604051808452600081528281016020016040525082905092915050565b60178167ffffffffffffffff1611610703576106fd8160058460ff16901b60ff16178461087390919063ffffffff16565b5061084c565b60ff8167ffffffffffffffff161161075957610732601860058460ff16901b178461087390919063ffffffff16565b506107538167ffffffffffffffff166001856108939092919063ffffffff16565b5061084b565b61ffff8167ffffffffffffffff16116107b057610789601960058460ff16901b178461087390919063ffffffff16565b506107aa8167ffffffffffffffff166002856108939092919063ffffffff16565b5061084a565b63ffffffff8167ffffffffffffffff1611610809576107e2601a60058460ff16901b178461087390919063ffffffff16565b506108038167ffffffffffffffff166004856108939092919063ffffffff16565b50610849565b610826601b60058460ff16901b178461087390919063ffffffff16565b506108478167ffffffffffffffff166008856108939092919063ffffffff16565b505b5b5b5b505050565b610859610b35565b61086b838460000151518485516108b5565b905092915050565b61087b610b35565b61088b83846000015151846109a4565b905092915050565b61089b610b35565b6108ac8485600001515185856109fa565b90509392505050565b6108bd610b35565b82518211156108cb57600080fd5b846020015182856108dc9190610e9a565b111561091157610910856002610901886020015188876108fc9190610e9a565b610a88565b61090b919061130b565b610aa4565b5b6000808651805187602083010193508088870111156109305787860182525b60208701925050505b6020841061097757805182526020826109529190610e9a565b91506020816109619190610e9a565b905060208461097091906112d7565b9350610939565b60006001856020036101000a03905080198251168184511681811785525050508692505050949350505050565b6109ac610b35565b836020015183106109d2576109d184600286602001516109cc919061130b565b610aa4565b5b835180516020858301018481538186036109ed576001820183525b5050508390509392505050565b610a02610b35565b84602001518483610a139190610e9a565b1115610a3b57610a3a8560028685610a2b9190610e9a565b610a35919061130b565b610aa4565b5b6000600183610100610a4d9190611498565b610a5791906112d7565b90508551838682010185831982511617815281518588011115610a7a5784870182525b505085915050949350505050565b600081831115610a9a57829050610a9e565b8190505b92915050565b600082600001519050610ab78383610662565b50610ac28382610851565b50505050565b6040518060a0016040528060008019168152602001600073ffffffffffffffffffffffffffffffffffffffff16815260200160007bffffffffffffffffffffffffffffffffffffffffffffffffffffffff1916815260200160008152602001610b2f610b35565b81525090565b604051806040016040528060608152602001600081525090565b6000604051905090565b600080fd5b600080fd5b600080fd5b600080fd5b6000601f19601f8301169050919050565b7f4e487b7100000000000000000000000000000000000000000000000000000000600052604160045260246000fd5b610bb682610b6d565b810181811067ffffffffffffffff82111715610bd557610bd4610b7e565b5b80604052505050565b6000610be8610b4f565b9050610bf48282610bad565b919050565b600067ffffffffffffffff821115610c1457610c13610b7e565b5b610c1d82610b6d565b9050602081019050919050565b82818337600083830152505050565b6000610c4c610c4784610bf9565b610bde565b905082815260208101848484011115610c6857610c67610b68565b5b610c73848285610c2a565b509392505050565b600082601f830112610c9057610c8f610b63565b5b8135610ca0848260208601610c39565b91505092915050565b600060208284031215610cbf57610cbe610b59565b5b600082013567ffffffffffffffff811115610cdd57610cdc610b5e565b5b610ce984828501610c7b565b91505092915050565b6000819050919050565b610d0581610cf2565b8114610d1057600080fd5b50565b600081359050610d2281610cfc565b92915050565b6000819050919050565b610d3b81610d28565b8114610d4657600080fd5b50565b600081359050610d5881610d32565b92915050565b60008060408385031215610d7557610d74610b59565b5b6000610d8385828601610d13565b9250506020610d9485828601610d49565b9150509250929050565b600082825260208201905092915050565b7f536f75726365206d75737420626520746865206f7261636c65206f662074686560008201527f2072657175657374000000000000000000000000000000000000000000000000602082015250565b6000610e0b602883610d9e565b9150610e1682610daf565b604082019050919050565b60006020820190508181036000830152610e3a81610dfe565b9050919050565b610e4a81610d28565b82525050565b6000602082019050610e656000830184610e41565b92915050565b7f4e487b7100000000000000000000000000000000000000000000000000000000600052601160045260246000fd5b6000610ea582610d28565b9150610eb083610d28565b9250828201905080821115610ec857610ec7610e6b565b5b92915050565b600073ffffffffffffffffffffffffffffffffffffffff82169050919050565b6000610ef982610ece565b9050919050565b610f0981610eee565b82525050565b610f1881610cf2565b82525050565b60007fffffffff0000000000000000000000000000000000000000000000000000000082169050919050565b610f5381610f1e565b82525050565b600081519050919050565b600082825260208201905092915050565b60005b83811015610f93578082015181840152602081019050610f78565b60008484015250505050565b6000610faa82610f59565b610fb48185610f64565b9350610fc4818560208601610f75565b610fcd81610b6d565b840191505092915050565b600061010082019050610fee600083018b610f00565b610ffb602083018a610e41565b6110086040830189610f0f565b6110156060830188610f00565b6110226080830187610f4a565b61102f60a0830186610e41565b61103c60c0830185610e41565b81810360e083015261104e8184610f9f565b90509998505050505050505050565b6000819050919050565b600061108261107d61107884610ece565b61105d565b610ece565b9050919050565b600061109482611067565b9050919050565b60006110a682611089565b9050919050565b60008160601b9050919050565b60006110c5826110ad565b9050919050565b60006110d7826110ba565b9050919050565b6110ef6110ea8261109b565b6110cc565b82525050565b6000819050919050565b61111061110b82610d28565b6110f5565b82525050565b600061112282856110de565b60148201915061113282846110ff565b6020820191508190509392505050565b60006060820190506111576000830186610f00565b6111646020830185610e41565b81810360408301526111768184610f9f565b9050949350505050565b60008115159050919050565b61119581611180565b81146111a057600080fd5b50565b6000815190506111b28161118c565b92915050565b6000602082840312156111ce576111cd610b59565b5b60006111dc848285016111a3565b91505092915050565b7f756e61626c6520746f207472616e73666572416e6443616c6c20746f206f726160008201527f636c650000000000000000000000000000000000000000000000000000000000602082015250565b6000611241602383610d9e565b915061124c826111e5565b604082019050919050565b6000602082019050818103600083015261127081611234565b9050919050565b7f4e487b7100000000000000000000000000000000000000000000000000000000600052601260045260246000fd5b60006112b182610d28565b91506112bc83610d28565b9250826112cc576112cb611277565b5b828206905092915050565b60006112e282610d28565b91506112ed83610d28565b925082820390508181111561130557611304610e6b565b5b92915050565b600061131682610d28565b915061132183610d28565b9250817fffffffffffffffffffffffffffffffffffffffffffffffffffffffffffffffff048311821515161561135a57611359610e6b565b5b828202905092915050565b60008160011c9050919050565b6000808291508390505b60018511156113bc5780860481111561139857611397610e6b565b5b60018516156113a75780820291505b80810290506113b585611365565b945061137c565b94509492505050565b6000826113d55760019050611491565b816113e35760009050611491565b81600181146113f9576002811461140357611432565b6001915050611491565b60ff84111561141557611414610e6b565b5b8360020a91508482111561142c5761142b610e6b565b5b50611491565b5060208310610133831016604e8410600b84101617156114675782820a90508381111561146257611461610e6b565b5b611491565b6114748484846001611372565b9250905081840481111561148b5761148a610e6b565b5b81810290505b9392505050565b60006114a382610d28565b91506114ae83610d28565b92506114db7fffffffffffffffffffffffffffffffffffffffffffffffffffffffffffffffff84846113c5565b90509291505056fea2646970667358221220e59d9d51995f5bd18004617deae4bfadda38447aeb70679babbda53d9d6bb86464736f6c63430008100033",
  "immutableReferences": {},
  "source": "pragma solidity >=0.4.22 <0.9.0;\n\nimport \"@chainlink/contracts/src/v0.8/ChainlinkClient.sol\";\n\ncontract FastAPI is ChainlinkClient {\n    using Chainlink for Chainlink.Request;\n\n    // Chainlink variables\n    address private oracle;\n    bytes32 private jobId;\n\n    // Event to capture the API response\n    event APIResponse(uint256 result);\n\n    // Constructor\n    constructor() {\n        // Set the oracle address and Job ID for your specific Chainlink job\n        oracle = 0x12F2d6b0783127C62956FfF73F4D7f701433b6f5; // Replace with the actual oracle address\n        jobId = \"2\";\n        // jobId = \"19ae68848dfc4f3e9ef237e9f95b2e44\"; // Replace with the actual Job ID\n    }\n\n    // Function to request data from Chainlink external adapter\n    function requestDataFromChainlink(string memory apiURL) public {\n        Chainlink.Request memory req = buildChainlinkRequest(\n            jobId,\n            address(this),\n            this.fulfill.selector\n        );\n        req.add(\"get\", apiURL);\n        req.add(\"path\", \"result\"); // Path to the result in the API response JSON\n        sendChainlinkRequestTo(oracle, req, 0); // Setting fee to 0 for Development mode\n    }\n\n    // Callback function called by Chainlink Oracle with the response\n    function fulfill(\n        bytes32 requestId,\n        uint256 result\n    ) public recordChainlinkFulfillment(requestId) {\n        // Process the API response here\n        emit APIResponse(result);\n    }\n}\n",
  "sourcePath": "/Users/xopherw/Documents/nishant/smart contracts/ea-fastapi/contracts/FastAPI.sol",
  "compiler": {
    "name": "solc",
    "version": "0.8.16+commit.07a7930e.Emscripten.clang"
  },
  "schemaVersion": "3.4.14",
  "updatedAt": "2023-07-27T09:02:55.254Z",
  "networkType": "ethereum",
  "devdoc": {
    "kind": "dev",
    "methods": {},
    "version": 1
  },
  "userdoc": {
    "kind": "user",
    "methods": {},
    "version": 1
  }
}