{
  "contractName": "Summon",
  "abi": [
    {
      "inputs": [
        {
          "internalType": "address",
          "name": "_oracleAddress",
          "type": "address"
        }
      ],
      "stateMutability": "nonpayable",
      "type": "constructor"
    },
    {
      "inputs": [],
      "name": "oracleAddress",
      "outputs": [
        {
          "internalType": "address",
          "name": "",
          "type": "address"
        }
      ],
      "stateMutability": "view",
      "type": "function",
      "constant": true
    },
    {
      "inputs": [],
      "name": "receivedData",
      "outputs": [
        {
          "internalType": "string",
          "name": "",
          "type": "string"
        }
      ],
      "stateMutability": "view",
      "type": "function",
      "constant": true
    },
    {
      "inputs": [
        {
          "internalType": "string",
          "name": "data",
          "type": "string"
        }
      ],
      "name": "receiveData",
      "outputs": [],
      "stateMutability": "nonpayable",
      "type": "function"
    },
    {
      "inputs": [
        {
          "internalType": "string",
          "name": "data",
          "type": "string"
        }
      ],
      "name": "respondData",
      "outputs": [
        {
          "internalType": "string",
          "name": "",
          "type": "string"
        }
      ],
      "stateMutability": "view",
      "type": "function",
      "constant": true
    }
  ],
  "bytecode": "0x608060405234801561001057600080fd5b50604051610b3b380380610b3b833981810160405281019061003291906100db565b806000806101000a81548173ffffffffffffffffffffffffffffffffffffffff021916908373ffffffffffffffffffffffffffffffffffffffff16021790555050610108565b600080fd5b600073ffffffffffffffffffffffffffffffffffffffff82169050919050565b60006100a88261007d565b9050919050565b6100b88161009d565b81146100c357600080fd5b50565b6000815190506100d5816100af565b92915050565b6000602082840312156100f1576100f0610078565b5b60006100ff848285016100c6565b91505092915050565b610a24806101176000396000f3fe608060405234801561001057600080fd5b506004361061004c5760003560e01c80632fd306391461005157806387d40a701461008157806395e73ac41461009f578063a89ae4ba146100bb575b600080fd5b61006b60048036038101906100669190610357565b6100d9565b6040516100789190610434565b60405180910390f35b61008961018b565b6040516100969190610434565b60405180910390f35b6100b960048036038101906100b49190610586565b610219565b005b6100c36102ba565b6040516100d09190610610565b60405180910390f35b60606040518060400160405280600c81526020017f48656c6c6f204f7261636c65000000000000000000000000000000000000000081525080519060200120838360405161012892919061065b565b604051809103902003610172576040518060400160405280600b81526020017f48656c6c6f2074686572650000000000000000000000000000000000000000008152509050610185565b6040518060200160405280600081525090505b92915050565b60018054610198906106a3565b80601f01602080910402602001604051908101604052809291908181526020018280546101c4906106a3565b80156102115780601f106101e657610100808354040283529160200191610211565b820191906000526020600020905b8154815290600101906020018083116101f457829003601f168201915b505050505081565b60008054906101000a900473ffffffffffffffffffffffffffffffffffffffff1673ffffffffffffffffffffffffffffffffffffffff163373ffffffffffffffffffffffffffffffffffffffff16146102a7576040517f08c379a000000000000000000000000000000000000000000000000000000000815260040161029e90610746565b60405180910390fd5b80600190816102b6919061091c565b5050565b60008054906101000a900473ffffffffffffffffffffffffffffffffffffffff1681565b6000604051905090565b600080fd5b600080fd5b600080fd5b600080fd5b600080fd5b60008083601f840112610317576103166102f2565b5b8235905067ffffffffffffffff811115610334576103336102f7565b5b6020830191508360018202830111156103505761034f6102fc565b5b9250929050565b6000806020838503121561036e5761036d6102e8565b5b600083013567ffffffffffffffff81111561038c5761038b6102ed565b5b61039885828601610301565b92509250509250929050565b600081519050919050565b600082825260208201905092915050565b60005b838110156103de5780820151818401526020810190506103c3565b60008484015250505050565b6000601f19601f8301169050919050565b6000610406826103a4565b61041081856103af565b93506104208185602086016103c0565b610429816103ea565b840191505092915050565b6000602082019050818103600083015261044e81846103fb565b905092915050565b600080fd5b7f4e487b7100000000000000000000000000000000000000000000000000000000600052604160045260246000fd5b610493826103ea565b810181811067ffffffffffffffff821117156104b2576104b161045b565b5b80604052505050565b60006104c56102de565b90506104d1828261048a565b919050565b600067ffffffffffffffff8211156104f1576104f061045b565b5b6104fa826103ea565b9050602081019050919050565b82818337600083830152505050565b6000610529610524846104d6565b6104bb565b90508281526020810184848401111561054557610544610456565b5b610550848285610507565b509392505050565b600082601f83011261056d5761056c6102f2565b5b813561057d848260208601610516565b91505092915050565b60006020828403121561059c5761059b6102e8565b5b600082013567ffffffffffffffff8111156105ba576105b96102ed565b5b6105c684828501610558565b91505092915050565b600073ffffffffffffffffffffffffffffffffffffffff82169050919050565b60006105fa826105cf565b9050919050565b61060a816105ef565b82525050565b60006020820190506106256000830184610601565b92915050565b600081905092915050565b6000610642838561062b565b935061064f838584610507565b82840190509392505050565b6000610668828486610636565b91508190509392505050565b7f4e487b7100000000000000000000000000000000000000000000000000000000600052602260045260246000fd5b600060028204905060018216806106bb57607f821691505b6020821081036106ce576106cd610674565b5b50919050565b7f4f6e6c7920746865204f7261636c652063616e2063616c6c207468697320667560008201527f6e6374696f6e0000000000000000000000000000000000000000000000000000602082015250565b60006107306026836103af565b915061073b826106d4565b604082019050919050565b6000602082019050818103600083015261075f81610723565b9050919050565b60008190508160005260206000209050919050565b60006020601f8301049050919050565b600082821b905092915050565b6000600883026107c87fffffffffffffffffffffffffffffffffffffffffffffffffffffffffffffffff8261078b565b6107d2868361078b565b95508019841693508086168417925050509392505050565b6000819050919050565b6000819050919050565b600061081961081461080f846107ea565b6107f4565b6107ea565b9050919050565b6000819050919050565b610833836107fe565b61084761083f82610820565b848454610798565b825550505050565b600090565b61085c61084f565b61086781848461082a565b505050565b5b8181101561088b57610880600082610854565b60018101905061086d565b5050565b601f8211156108d0576108a181610766565b6108aa8461077b565b810160208510156108b9578190505b6108cd6108c58561077b565b83018261086c565b50505b505050565b600082821c905092915050565b60006108f3600019846008026108d5565b1980831691505092915050565b600061090c83836108e2565b9150826002028217905092915050565b610925826103a4565b67ffffffffffffffff81111561093e5761093d61045b565b5b61094882546106a3565b61095382828561088f565b600060209050601f8311600181146109865760008415610974578287015190505b61097e8582610900565b8655506109e6565b601f19841661099486610766565b60005b828110156109bc57848901518255600182019150602085019450602081019050610997565b868310156109d957848901516109d5601f8916826108e2565b8355505b6001600288020188555050505b50505050505056fea2646970667358221220e30d7cc155528c117dae6a8d059fa262f5bfe115ebd53000cfead1f4aa580ded64736f6c63430008100033",
  "immutableReferences": {},
  "source": "pragma solidity >=0.4.22 <0.9.0;\n\ncontract Summon {\n    address public oracleAddress;\n    string public receivedData;\n\n    constructor(address _oracleAddress) {\n        oracleAddress = _oracleAddress;\n    }\n\n    function receiveData(string memory data) public {\n        require(\n            msg.sender == oracleAddress,\n            \"Only the Oracle can call this function\"\n        );\n        receivedData = data;\n    }\n\n    function respondData(\n        string calldata data\n    ) public view returns (string memory) {\n        if (keccak256(bytes(data)) == keccak256(bytes(\"Hello Oracle\"))) {\n            return \"Hello there\";\n        } else {\n            return \"\";\n        }\n    }\n}\n",
  "sourcePath": "/Users/xopherw/Documents/nishant/smart contract/blockchain/oracle/contracts/Summon.sol",
  "compiler": {
    "name": "solc",
    "version": "0.8.16+commit.07a7930e.Emscripten.clang"
  },
  "schemaVersion": "3.4.14",
  "updatedAt": "2023-07-21T03:08:17.354Z",
  "networkType": "ethereum",
  "devdoc": {
    "kind": "dev",
    "methods": {},
    "version": 1
  },
  "userdoc": {
    "kind": "user",
    "methods": {},
    "version": 1
  }
}